S018000070696E675F706F6E675F6E6F64655F322E73726563B5
S1130000C2C00000E0C00000DEC00000DCC0000090
S1130010DAC00000D8C00000D6C00000D4C0000080
S1130020D2C00000D0C00000CEC00000CCC0000090
S1130030CAC00000C8C00000C6C00000C4C00000A0
S1130040C2C00000C0C00000BEC00000BCC00000B0
S1130050BAC00000B8C00000B6C00000B4C00000C0
S1130060B2C00000B0C00000AEC00000ACC00000D0
S1130070AAC00000A8C00000A6C00000A4C00000E0
S1130080A2C00000A0C000009EC000009CC00000F0
S11300909AC0000098C0000096C000009EC50000F1
S11300A092C0000090C000008EC000008CC0000010
S11300B08AC0000088C0000086C0000084C0000020
S11300C082C0000080C000007EC000007CC0000030
S11300D07AC0000078C0000076C0000074C0000040
S11300E072C0000008065A065A065A065A065A06EC
S11300F05A065A0608065A065A065A065A065A064E
S11301005A065A060A065A065A065A065A065A063B
S11301105A065A065A065A065A065A065A065A06DB
S11301205A065A060A065A065A065A065A065A061B
S11301305A065A065A065A065A065A065A065A06BB
S11301405A065A0656065A065A065A065A065A06AF
S11301505A065A0633065A065A065A065A065A06C2
S11301605A065A065A065A065A065A065A065A068B
S11301705A065A0627065A065A065A065A065A06AE
S11301805A065A06450611241FBECFEFD1E2DEBF40
S1130190CDBF00E00CBF12E0A0E0B2E0EEE2FAE175
S11301A000E00BBF02C007900D92A83AB107D9F73F
S11301B022E0A8EAB2E001C01D92AD3BB207E1F72C
S11301C041D10C94150D1CCFEAE7F0E080818760E3
S11301D080838081806880830895ECE7F0E08081EB
S11301E080688083EAE7F0E0808180648083808196
S11301F086FDFDCF209178003091790081E090E078
S11302002436310510F480E090E00895CF93DF9315
S1130210CDB7DEB72A970FB6F894DEBF0FBECDBFB9
S1130220DCD141E060E680E6FAD18FEF9FE80197E8
S1130230F1F700C0000041E061E08BE216D28FEFDD
S11302409FE80197F1F700C0000040E060EE8FE006
S11302500CD28FEF9FE80197F1F700C000004AE04D
S1130260BE016F5F7F4F8EE0BBD18981807E99F0A4
S11302701F928F9387E192E09F938F93BCD78BE972
S113028092E09F938F93B7D70F900F900F900F909A
S11302900F900F9007C08BE592E09F938F93ABD79D
S11302A00F900F902A960FB6F894DEBF0FBECDBF05
S11302B0DF91CF9108951F93CF93DF93EC0141E039
S11302C06A8185E3ACD141E0688181E3A8D141E052
S11302D0688182E3A4D18A81882361F010E0FE0161
S11302E0E10FF11D41E0638186E399D11F5F8A81AB
S11302F01817A8F38BE992E09F938F937CD781E83A
S1130300A4D10F900F90DF91CF911F910895FF9288
S11303100F931F93CF93DF93CDB7DEB72A970FB612
S1130320F894DEBF0FBECDBF8C01F62E41E0BE01B6
S11303306F5F7F4F8CE254D1898181110BC01F9272
S11303401F922DE632E03F932F9355D70F900F90D5
S11303500F900F9041E0BE016F5F7F4F85E68F0DD8
S11303603FD18981F801828341E0BE016F5F7F4FF5
S113037081E68F0D35D1298130E0F8013183208366
S11303804281BE016F5F7F4F86E68F0D29D1F80150
S11303909281992361F09E012F5F3F4FD8011396FC
S11303A0F90181918D938E2F821B8917D0F340E040
S11303B061E08CE25AD12A960FB6F894DEBF0FBEE4
S11303C0CDBFDF91CF911F910F91FF9008950F93AF
S11303D01F93CF93DF93CDB7DEB72A970FB6F89468
S11303E0DEBF0FBECDBF8C0141E0BE016F5F7F4F0A
S11303F08CE2F6D0898180FF0BC060E070E0C80118
S113040086DF40E061E08CE230D181E090E00FC013
S113041081FF0BC061E070E0C80179DF40E062E079
S11304208CE223D181E090E002C080E090E02A9643
S11304300FB6F894DEBF0FBECDBFDF91CF911F91F1
S11304400F910895CF93DF93CDB7DEB7A7970FB67B
S1130450F894DEBF0FBECDBF539A8BB188708BB9B1
S113046087E690E04DD48FE792E0D6D6CFDE81E0E8
S113047090E09A83898321E02B831C829F878E8757
S1130480288B198A82E090E09C8F8B8F2D8F2E8F82
S1130490C2D29ADEA2DE8C01A0DE789411D16FD193
S11304A080E0FBD0E12CF12CC12CD12C0F2EF9E8EB
S11304B0AF2EF2E0BF2EF02D66246394712C812CB4
S11304C0912CCE01019683DF892B09F440C08981E8
S11304D09A818130910579F46C8170E080E090E03C
S11304E021D59B01AC0160E070E08FE793E418D460
S11304F0FAD2B0D22CC08230910519F48C814CD13F
S113050026C083309105F1F4BF92AF9274D65B9A02
S11305102FEF81EE94E0215080409040E1F700C03D
S113052000005B980F900F90DD2014F4C82CD92C98
S11305302FEFC21AD20AC98ACE010E96BCDEE62C6F
S1130540F72C05C0049719F48C8190E0E1D145DEC5
S11305500115110579F4019709F0B3CF8FEF90E7F6
S113056022E0815090402040E1F700C00000062DB9
S1130570172DA7CF0130110509F0A3CF892B09F05E
S1130580A0CFE114F10409F49CCF8FEF90E722E0AF
S1130590815090402040E1F700C00000198ACE014C
S11305A04B9689DECE010E9686DEE82CF92CC82CFB
S11305B0D92C082D192D85CFCF93DF931F92CDB75A
S11305C0DEB72F9880EC898361E0CE010196C5D215
S11305D02F9A0F90DF91CF91089590D2EDCF089587
S11305E0FF920F931F93CF93DF931F921F92CDB768
S11305F0DEB78B01F42E2F9893E099838A8362E00F
S1130600CE010196AAD26F2DC80181D22F9A0F90E4
S11306100F90DF91CF911F910F91FF900895CF9389
S1130620DF9300D0CDB7DEB72F9892E099838A8309
S11306306B8362E0640FCE0101968FD22F9A0F90E4
S11306400F900F90DF91CF910895CF93DF931F9276
S1130650CDB7DEB72F98898361E0CE0101967DD2B4
S11306602F9A0F90DF91CF910895CF93DF9300D00D
S11306701F92CDB7DEB72F9895E099838A836B8359
S11306804C8364E0CE01019668D22F9A0F900F90AC
S11306900F900F90DF91CF910895CF93DF9300D007
S11306A0CDB7DEB790E599831A828B8364E0CE01DF
S11306B0019671D20F900F900F90DF91CF91089512
S11306C060D2E1E0F1E080818A678083E2E0F1E0DA
S11306D080818260808380818061808310920701A1
S11306E080E5DBDF2FE78AE196E0215080409040EF
S11306F0E1F700C000000895882331F0E2E0F1E062
S11307008081826080830895E2E0F1E080818D7FC2
S113071080830895CF93DF9300D01F92CDB7DEB7C7
S1130720E2E0F1E080818F7D80838081877F808318
S113073087E893E10197F1F700C00000809106017A
S11307408C8380818860808387E893E10197F1F747
S113075000C00000809106018B83808180628083C9
S11307602C818B8190E0922B9A83898389819A8151
S11307700F900F900F900F90DF91CF910895E2E0CA
S1130780F1E080818F7B808382E48A95F1F700C059
S113079080818064808308954F925F926F927F92EC
S11307A08F929F92AF92BF92CF92DF92EF92FF927D
S11307B0CF93DF93C82FAEDFC195D0E0BC0180E0BA
S11307C090E0B0D36B017C01609106027091070246
S11307D080E090E0A7D39B01AC01C701B601A0D291
S11307E024E83BE447E05DE353D46BD3C61BD70B4B
S11307F0A090A802B090A902AC0EBD1EB092A902AE
S1130800A092A802609108027091090280E090E031
S113081089D36B017C01BE01882777FD8095982FD1
S113082083D320911202309113024091140250910B
S113083015022ED42B013C01B501882777FD809544
S1130840982F72D320910A0230910B0240910C022E
S113085050910D021DD4A7019601CBD29B01AC018E
S1130860C301B2015ED24B015C018091AA02909156
S1130870AB02BE01681B790B80E090E053D320915A
S11308800E0230910F02409110025091110200D4D7
S11308909B01AC01C701B601FBD39B01AC01C501AF
S11308A0B4013FD20ED36B017C015B01D093AB0248
S11308B0C093AA02161617061CF480E01DDF06C0BA
S11308C081E01ADFAA24BB24AC18BD08E501C536B3
S11308D0D10514F0C4E6D0E08C2FDFDEDF93CF9394
S11308E08EE992E09F938F9386D40F900F900F9090
S11308F00F90DF91CF91FF90EF90DF90CF90BF905A
S1130900AF909F908F907F906F905F904F900895DD
S11309108130910561F18230910509F44DC0892B34
S113092009F066C08AE999E9A9E9BFE38093120254
S113093090931302A0931402B09315028DEC9CECD7
S1130940ACE4BEE380930E0290930F02A0931002D6
S1130950B09311028DEC9CECACE4BFE380930A02EB
S113096090930B02A0930C02B0930D0208958DECAA
S11309709CECACE4BDE38093120290931302A09329
S11309801402B09315028DEC9CECACE4BEE38093AE
S11309900E0290930F02A0931002B09311028DECFB
S11309A09CECACE4BFE380930A0290930B02A09307
S11309B00C02B0930D02089580E090E0A0E0B0E452
S11309C08093120290931302A0931402B093150221
S11309D010920E0210920F02109210021092110245
S11309E010920A0210920B0210920C0210920D0245
S11309F00895E1E8F0E080818260808380818B7FCC
S1130A00808380818E7F808380E49CE9909387003B
S1130A10809386000895E1E8F0E08081806180831E
S1130A20808188608083E0E8F0E080818260808358
S1130A3080818E7F808380818068808380818F7BAA
S1130A408083D7DF259A88EB9BE09093890080937D
S1130A5088000895CF92DF92EF92FF926B017C01A0
S1130A6020E030E041E654E4C0D1882354F020E093
S1130A7030E443E055E4C701B60106D3181654F038
S1130A8012C00F2EC12CD12CF1E6EF2EF4E4FF2E70
S1130A90F02D09C00F2EC12CF0E4DF2EF3E0EF2E71
S1130AA0F5E4FF2EF02D20E030E44CE956E4C701D4
S1130AB0B6019FD120E034E244E75BE4E9D220E0D0
S1130AC030E040E05EE3E4D220E030E048E452E489
S1130AD090D1F7D17093890060938800FF90EF90D4
S1130AE0DF90CF9008952CEB36E946E950E4D0D25C
S1130AF020E030E041E654E414C1089584B18768ED
S1130B0084B985B1816885B981E58CBD0895CF9399
S1130B10DF93CDB7DEB72A970FB6F894DEBF0FBECA
S1130B20CDBF662389F0FE013196A82FB92FCF01DE
S1130B30860F911D21912EBD0DB407FEFDCF2EB55C
S1130B402D93E817F907B1F72A960FB6F894DEBF8C
S1130B500FBECDBFDF91CF910895262F30E012163E
S1130B60130674F4E82FF92F80E090E041914EBD14
S1130B700DB407FEFDCF4EB5019682179307B4F36B
S1130B8008958CE08093B8008FEF8093BB0084E0DD
S1130B908093BC000895ECEBF0E0208120FDFDCFB4
S1130BA06093AE02FC0120812093AF0220FD0CC0B3
S1130BB0623050F0DC011196E0EBF2E081E09D91AF
S1130BC091938F5F8613FBCF1092AD0288EF8093D1
S1130BD0160285EA8093BC0008951F920F920FB607
S1130BE00F9211240BB60F922F933F938F939F93E1
S1130BF0AF93BF93EF93FF938091B90090E0FC0112
S1130C003897E135F10508F055C0EE58FF4FA3C2FF
S1130C101092AC02E091AC028091AE02E81770F43D
S1130C2081E08E0F8093AC02F0E0E155FD4F8081AE
S1130C308093BB0085E88093BC0043C08091AD02E3
S1130C4081608093AD0284E98093BC003AC0E09156
S1130C50AC0281E08E0F8093AC028091BB00F0E087
S1130C60E155FD4F80832091AC0230E08091AE02CB
S1130C7090E001972817390724F485EC8093BC0091
S1130C8020C085E88093BC001CC08091BB00E0912B
S1130C90AC02F0E0E155FD4F80838091AD028160AC
S1130CA08093AD0284E98093BC000BC085EA8093F5
S1130CB0BC0007C08091B9008093160284E0809341
S1130CC0BC00FF91EF91BF91AF919F918F913F91A4
S1130CD02F910F900BBE0F900FBE0F901F90189581
S1130CE0E0ECF0E0908195FFFDCF8093C60008957D
S1130CF0E0ECF0E080818823ECF38091C600089555
S1130D009093C5008093C40088E18093C1008EE075
S1130D108093C20068E776E080E796E022C20895F7
S1130D205058BB27AA270ED075C166D130F06BD1BD
S1130D3020F031F49F3F11F41EF45BC10EF4E095F2
S1130D40E7FB51C1E92F77D180F3BA176207730724
S1130D508407950718F071F49EF58FC10EF4E095A1
S1130D600B2EBA2FA02D0B01B90190010C01CA0161
S1130D70A0011124FF27591B99F0593F50F4503E0C
S1130D8068F11A16F040A22F232F342F4427585FFE
S1130D90F3CF469537952795A795F0405395C9F716
S1130DA07EF41F16BA0B620B730B840BBAF09150CE
S1130DB0A1F0FF0FBB1F661F771F881FC2F70EC06D
S1130DC0BA0F621F731F841F48F487957795679540
S1130DD0B795F7959E3F08F0B3CF9395880F08F029
S1130DE09927EE0F979587950895D9D008F481E057
S1130DF008950CD00FC107D140F0FED030F021F49B
S1130E005F3F19F0F0C0511139C1F3C014D198F308
S1130E109923C9F35523B1F3951B550BBB27AA2777
S1130E2062177307840738F09F5F5F4F220F331FE9
S1130E30441FAA1FA9F333D00E2E3AF0E0E830D0B5
S1130E4091505040E695001CCAF729D0FE2F27D0B8
S1130E50660F771F881FBB1F261737074807AB0786
S1130E60B0E809F0BB0B802DBF01FF2793585F4FFB
S1130E702AF09E3F510568F0B6C000C15F3FECF315
S1130E80983EDCF3869577956795B795F7959F5FC0
S1130E90C9F7880F911D9695879597F90895E1E014
S1130EA0660F771F881FBB1F621773078407BA0773
S1130EB020F0621B730B840BBA0BEE1F88F7E095CE
S1130EC0089504D06894B111D9C00895BCD088F0B5
S1130ED09F5790F0B92F9927B751A0F0D1F0660F22
S1130EE0771F881F991F1AF0BA95C9F712C0B1303D
S1130EF081F0C3D0B1E00895C0C0672F782F882750
S1130F00B85F39F0B93FCCF3869577956795B3957B
S1130F10D9F73EF490958095709561957F4F8F4FEA
S1130F209F4F0895E89409C097FB3EF490958095EF
S1130F30709561957F4F8F4F9F4F9923A9F0F92F9B
S1130F4096E9BB279395F695879577956795B79519
S1130F50F111F8CFFAF4BB0F11F460FF1BC06F5FFF
S1130F607F4F8F4F9F4F16C0882311F096E911C011
S1130F70772321F09EE8872F762F05C0662371F032
S1130F8096E8862F70E060E02AF09A95660F771F46
S1130F90881FDAF7880F9695879597F90895990F22
S1130FA00008550FAA0BE0E8FEEF16161706E8072F
S1130FB0F907C0F012161306E407F50798F0621B50
S1130FC0730B840B950B39F40A2661F0232B242B25
S1130FD0252B21F408950A2609F4A140A6958FEF44
S1130FE0811D811D089597F99F6780E870E060E096
S1130FF008959FEF80EC089500240A9416161706AE
S113100018060906089500240A94121613061406F5
S113101005060895092E0394000C11F4882352F058
S1131020BB0F40F4BF2B11F460FF04C06F5F7F4F10
S11310308F4F9F4F089557FD9058440F551F59F0F7
S11310405F3F71F04795880F97FB991F61F09F3FB1
S113105079F087950895121613061406551FF2CFDA
S11310604695F1DF08C0161617061806991FF1CF2A
S113107086957105610508940895E894BB27662751
S11310807727CB0197F908958ADF08F48FEF089545
S11310900BD0C0CFB1DF28F0B6DF18F0952309F0EC
S11310A0A2CFA7CF1124EACFC6DFA0F3959FD1F337
S11310B0950F50E0551F629FF001729FBB27F00D02
S11310C0B11D639FAA27F00DB11DAA1F649F662757
S11310D0B00DA11D661F829F2227B00DA11D621FA6
S11310E0739FB00DA11D621F839FA00D611D221F60
S11310F0749F3327A00D611D231F849F600D211D44
S1131100822F762F6A2F11249F5750408AF0E1F0E6
S113111088234AF0EE0FFF1FBB1F661F771F881F2F
S113112091505040A9F79E3F510570F05CCFA6CF77
S11311305F3FECF3983EDCF3869577956795B7951A
S1131140F795E7959F5FC1F7FE2B880F911D969544
S1131150879597F90895EE0FFF1F0590F491E02D00
S113116019940F931F93CF93DF93EC018B01009796
S113117031F46115710519F480E090E037C06EE038
S113118070E081E090E063D2FC010097A9F380E86D
S113119083830115110571F01387028781E8838326
S11311A08091B3029091B402892B21F4F093B4029C
S11311B0E093B3022097C9F0D187C087838182600E
S11311C083838091B5029091B602892B71F4F093D8
S11311D0B602E093B5028091B7029091B802892BD0
S11311E021F4F093B802E093B702CF01DF91CF91DD
S11311F01F910F910895CF93DF93CDB7DEB7FE0112
S1131200369661917191AF018091B5029091B602C9
S113121030D0DF91CF9108950F931F93CF93DF9335
S1131220E091B502F091B602238121FF1BC0EC01CD
S113123000E010E089916091B5027091B602DB0183
S11312401896ED91FC911997882331F01995892B03
S113125089F30FEF1FEFEECF8AE01995892B11F474
S1131260C80102C08FEF9FEFDF91CF911F910F91C3
S113127008952F923F924F925F926F927F928F9236
S11312809F92AF92BF92CF92DF92EF92FF920F9311
S11312901F93CF93DF93CDB7DEB72C970FB6F89497
S11312A0DEBF0FBECDBF7C016B018A01FC0117823A
S11312B01682838181FFB0C1CE0101964C01F701F2
S11312C09381F60193FD859193FF81916F018823AA
S11312D009F49EC1853239F493FD859193FF819180
S11312E06F01853221F4B70190E00FD3E8CF512C80
S11312F0312C20E02032A0F48B3269F030F48032BB
S113130059F0833269F420612CC08D3239F0803376
S113131039F4216026C02260246023C0286021C0E3
S113132027FD27C030ED380F3A3078F426FF06C089
S1131330FAE05F9E300D1124532E13C08AE0389ECC
S1131340300D1124332E20620CC08E3221F426FD80
S11313505FC1206406C08C3611F4206802C0883650
S113136041F4F60193FD859193FF81916F01811101
S1131370C1CF982F9F7D9554933028F40C5F1F4F55
S1131380FFE3F9830DC0833631F0833771F0833581
S113139009F057C021C0F801808189830E5F1F4F77
S11313A044244394512C540114C03801F2E06F0ECC
S11313B0711CF801A080B18026FF03C0652D70E088
S11313C002C06FEF7FEFC5012C8794D22C018301FB
S11313D02C852F77222E16C03801F2E06F0E711C77
S11313E0F801A080B18026FF03C0652D70E002C023
S11313F06FEF7FEFC5012C876BD22C012C85206801
S1131400222E830123FC19C0832D90E0481659062F
S1131410A0F4B70180E290E078D23A94F5CFF501D8
S113142027FC859127FE81915F01B70190E06DD281
S113143031103A94F1E04F1A51084114510479F7EC
S1131440DEC0843611F0893631F5F80127FF07C074
S113145060817181828193810C5F1F4F08C060811C
S11314607181882777FD8095982F0E5F1F4F2F7607
S1131470B22E97FF09C090958095709561957F4F26
S11314808F4F9F4F2068B22E2AE030E0A4016FD224
S1131490A82EA81843C0853729F42F7EB22E2AE03F
S11314A030E025C0F22FF97FBF2E8F36C1F018F43B
S11314B0883579F0ADC0803719F0883721F0A8C09D
S11314C02F2F2061B22EB4FE0DC08B2D8460B82E58
S11314D009C024FF0AC09F2F9660B92E06C028E0D9
S11314E030E005C020E130E002C020E132E0F80144
S11314F0B7FE07C060817181828193810C5F1F4FA9
S113150006C06081718180E090E00E5F1F4FA401EE
S11315102ED2A82EA818FB2DFF77BF2EB6FE0BC027
S11315202B2D2E7FA51450F4B4FE0AC0B2FC08C0C3
S11315302B2D2E7E05C07A2C2B2D03C07A2C01C0B6
S1131540752C24FF0DC0FE01EA0DF11D808180334E
S113155011F4297E09C022FF06C07394739404C059
S1131560822F867809F0739423FD12C020FF06C0F1
S11315705A2C731418F4530C5718732C731460F406
S1131580B70180E290E02C87C0D173942C85F6CF0C
S1131590731410F4371801C0312C24FF11C0B701A3
S11315A080E390E02C87B1D12C8522FF16C021FF67
S11315B003C088E590E002C088E790E0B7010CC062
S11315C0822F867851F021FD02C080E201C08BE2B7
S11315D027FD8DE2B70190E098D1A51430F4B7014E
S11315E080E390E092D15A94F8CFAA94F401EA0DE2
S11315F0F11D8081B70190E088D1A110F6CF33208E
S113160009F45DCEB70180E290E07FD13A94F7CF40
S1131610F7018681978102C08FEF9FEF2C960FB65A
S1131620F894DEBF0FBECDBFDF91CF911F910F9114
S1131630FF90EF90DF90CF90BF90AF909F908F90EE
S11316407F906F905F904F903F902F9008950F93ED
S11316501F93CF93DF93869F8001879F100D969FE2
S1131660100D1124C8010DD0EC01009721F0A80140
S113167060E070E038D1CE01DF91CF911F910F91DE
S11316800895CF93DF938230910510F482E090E0C7
S1131690E091BB02F091BC0220E030E0A0E0B0E0B9
S11316A0309739F14081518148175907B8F04817EC
S11316B0590771F482819381109729F013969C93B2
S11316C08E9312972CC09093BC028093BB0227C0C8
S11316D02115310531F04217530718F0A901DB0138
S11316E001C0EF019A01BD01DF010280F381E02D09
S11316F0D7CF21153105F9F0281B390B24303105DA
S113170080F48A819B816115710521F0FB0193832B
S1131710828304C09093BC028093BB02FE01329684
S113172044C0FE01E20FF31F8193919322503109CB
S1131730398328833AC02091B9023091BA02232B0D
S113174041F420910202309103023093BA022093B3
S1131750B90220910002309101022115310541F4B2
S11317602DB73EB74091040250910502241B350B5E
S1131770E091B902F091BA02E217F307A0F42E1B2C
S11317803F0B2817390778F0AC014E5F5F4F2417E1
S1131790350748F04E0F5F1F5093BA024093B902C9
S11317A08193919302C0E0E0F0E0CF01DF91CF910B
S11317B00895CF93DF93009709F487C0FC01329713
S11317C013821282C091BB02D091BC02209781F493
S11317D020813181280F391F8091B9029091BA027A
S11317E08217930779F5F093BA02E093B9026DC0BA
S11317F0DE0120E030E0AE17BF0750F412964D91A1
S11318005C9113979D014115510509F1DA01F3CF5C
S1131810B383A28340815181840F951F8A179B074C
S113182071F48D919C911197840F951F0296918369
S1131830808312968D919C911397938382832115B3
S1131840310529F4F093BC02E093BB023EC0D901F8
S11318501396FC93EE9312974D915D91A40FB51FCF
S1131860EA17FB0779F480819181840F951F029612
S1131870D90111969C938E938281938113969C93A4
S11318808E931297E0E0F0E08A819B81009719F033
S1131890FE01EC01F9CFCE01029628813981820F35
S11318A0931F2091B9023091BA022817390769F4BD
S11318B0309729F41092BC021092BB0202C013822A
S11318C01282D093BA02C093B902DF91CF910895E6
S11318D0FC010590615070400110D8F780959095F7
S11318E08E0F9F1F0895DC0101C06D93415050403D
S11318F0E0F70895FC016150704001900110D8F7A1
S1131900809590958E0F9F1F08950F931F93CF93EB
S1131910DF93182F092FEB018B8181FD03C08FEF1B
S11319209FEF20C082FF10C04E815F812C813D81DA
S1131930421753077CF4E881F9819F012F5F3F4FE1
S113194039832883108306C0E885F985812F19958A
S1131950892B29F72E813F812F5F3F4F3F832E83B1
S1131960812F902FDF91CF911F910F910895FA014C
S1131970AA27283051F1203181F1E8946F936E7FCA
S11319806E5F7F4F8F4F9F4FAF4FB1E03ED0B4E0BB
S11319903CD0670F781F891F9A1FA11D680F791FFC
S11319A08A1F911DA11D6A0F711D811D911DA11D0D
S11319B020D009F468943F912AE0269F112430191D
S11319C0305D3193DEF6CF010895462F4770405DB8
S11319D04193B3E00FD0C9F7F6CF462F4F70405D67
S11319E04A3318F0495D31FD4052419302D0A9F7C2
S11319F0EACFB4E0A6959795879577956795BA95BC
S1131A00C9F700976105710508959B01AC010A2E81
S1131A1006945795479537952795BA95C9F7620F58
S1111A20731F841F951FA01D0895F894FFCF17
S1131A2E0000BD02200018011400CDCC4C3FCDCCDB
S1131A3E4C3E9A99993FF84D4350323531352069D1
S1131A4E73204E4F5420696E20636F7272656374F7
S1131A5E206D6F64652061667465722072657365AE
S1131A6E74212049747320636F6E666967206269FE
S1131A7E7473206172652025780A00696E206D6F7B
S1131A8E6465206E6F726D616C200A0D0043414EC9
S1131A9E494E5446206F7574202564200A0D007338
S1131AAE74617274200A0D200073686F74200A0D1D
S1131ABE007220202564200A200D200A0D007520B6
S10B1ACE202564200A0D00002C
S9030000FC
