:1000000071C000008EC000008CC000008AC00000DB
:1000100088C0000086C0000084C0000082C00000CC
:1000200080C000007EC000007CC000007AC00000DC
:1000300078C0000076C0000074C0000072C00000EC
:1000400070C000006EC000006CC000006AC00000FC
:1000500068C0000066C0000064C0000062C000000C
:1000600060C000005EC000005CC000005AC000001C
:1000700058C0000056C0000054C0000052C000002C
:1000800050C000004EC000004CC000004AC000003C
:1000900048C0000046C0000044C0000042C000004C
:1000A00040C000003EC000003CC000003AC000005C
:1000B00038C0000036C0000034C0000032C000006C
:1000C00030C000002EC000002CC000002AC000007C
:1000D00028C0000026C0000024C0000022C000008C
:1000E00020C0000011241FBECFEFD1E2DEBFCDBF84
:1000F00000E00CBF12E0A0E0B2E0EAE5FEE000E0C4
:100100000BBF02C007900D92AA3DB107D9F722E0BC
:10011000AAEDB2E001C01D92A43EB207E1F709D1F9
:100120009AC66ECFCF93DF93CDB7DEB72A970FB6BF
:10013000F894DEBF0FBECDBF67D141E060E680E638
:1001400085D18FEF9FE80197F1F700C0000041E0F3
:1001500061E08BE2A1D18FEF9FE80197F1F700C03A
:10016000000040E060EE8FE097D18FEF9FE80197AD
:10017000F1F700C000004AE0BE016F5F7F4F8EE0E4
:1001800046D18981807E99F01F928F9386E092E01C
:100190009F938F9346D287ED92E09F938F9341D2A6
:1001A0000F900F900F900F900F900F9007C08AE460
:1001B00092E09F938F9335D20F900F902A960FB6AF
:1001C000F894DEBF0FBECDBFDF91CF910895DF92CF
:1001D000EF92FF920F931F93CF93DF938C0141E037
:1001E000FC01628185E332D141E0F801608181E365
:1001F0002DD141E0F801608182E328D1F8018281AC
:100200008823E9F0D12C0F2EFCE5EF2EF2E0FF2E33
:10021000F02DE801CD0DD11D41E06B8186E316D1B3
:100220008B811F928F93FF92EF92FBD1D3940F900B
:100230000F900F900F90F8018281D81650F387ED40
:1002400092E09F938F93EDD181E816D10F900F909C
:10025000DF91CF911F910F91FF90EF90DF90089564
:10026000DF92EF92FF920F931F93CF93DF93CDB75F
:10027000DEB72A970FB6F894DEBF0FBECDBF8C0154
:1002800041E0BE016F5F7F4F8CE2C1D08981811157
:100290000BC01F921F9280E792E09F938F93C1D172
:1002A0000F900F900F900F90F8018281882341F1F9
:1002B000D12C0F2EF2E8EF2EF2E0FF2EF02D41E0D0
:1002C000BE016F5F7F4F86E6A2D02D2D30E0E1E0CA
:1002D000F0E0EC0FFD1FE20FF31F8081F801E20F49
:1002E000F31F83831F928F93FF92EF929AD1D3943F
:1002F0000F900F900F900F90F8018281D816F8F2AE
:1003000087ED92E09F938F938CD140E061E08CE287
:10031000C3D00F900F902A960FB6F894DEBF0FBE91
:10032000CDBFDF91CF911F910F91FF90EF90DF90A4
:100330000895CF93DF93CDB7DEB76A970FB6F894E1
:10034000DEBF0FBECDBF87E690E011D18BE992E012
:1003500079D1E8DE83E090E09A83898331E03B83C2
:1003600023E62C839F878E87388B1F922F9385EAF5
:1003700092E09F938F9355D1CE01019628DF83EDB4
:1003800090E30197F1F700C00000CE010E9668DF00
:1003900089891F928F938CEB92E09F938F9341D129
:1003A00087E68C831F928F9385EA92E09F938F93C9
:1003B00038D1CE0101960BDF83ED90E30197F1F781
:1003C00000C00000CE010E964BDF89891F928F93EB
:1003D0008CEB92E09F938F9324D10FB6F894DEBFFD
:1003E0000FBECDBFFFCFCF93DF931F92CDB7DEB748
:1003F0002F9880EC898361E0CE01019694D02F9AEA
:100400000F90DF91CF9108955FD0EDCF0895FF92C7
:100410000F931F93CF93DF931F921F92CDB7DEB739
:100420008B01F42E2F9893E099838A8362E0CE01AA
:10043000019679D06F2DC80150D02F9A0F900F9050
:10044000DF91CF911F910F91FF900895CF93DF938C
:1004500000D0CDB7DEB72F9892E099838A836B8363
:1004600062E0640FCE0101965ED02F9A0F900F903C
:100470000F90DF91CF910895CF93DF931F92CDB767
:10048000DEB72F98898361E0CE0101964CD02F9A78
:100490000F90DF91CF910895CF93DF9300D01F92FB
:1004A000CDB7DEB72F9895E099838A836B834C8311
:1004B00064E0CE01019637D02F9A0F900F900F90E5
:1004C0000F90DF91CF91089584B1876884B985B189
:1004D000816885B981E58CBD0895CF93DF93CDB751
:1004E000DEB72A970FB6F894DEBF0FBECDBF6623E6
:1004F00089F0FE013196A82FB92FCF01860F911DEB
:1005000021912EBD0DB407FEFDCF2EB52D93E8171A
:10051000F907B1F72A960FB6F894DEBF0FBECDBF2C
:10052000DF91CF910895262F30E01216130674F450
:10053000E82FF92F80E090E041914EBD0DB407FE09
:10054000FDCF4EB5019682179307B4F30895E0EC02
:10055000F0E0908195FFFDCF8093C6000895E0EC18
:10056000F0E080818823ECF38091C6000895909399
:10057000C5008093C40088E18093C1008EE0809321
:10058000C2006FEA72E087EA92E001C008950F931B
:100590001F93CF93DF93EC018B01009731F461152A
:1005A000710519F480E090E037C06EE070E081E002
:1005B00090E063D2FC010097A9F380E883830115E2
:1005C000110571F01387028781E883838091DA0235
:1005D0009091DB02892B21F4F093DB02E093DA02A5
:1005E0002097C9F0D187C0878381826083838091FF
:1005F000DC029091DD02892B71F4F093DD02E0932F
:10060000DC028091DE029091DF02892B21F4F093CD
:10061000DF02E093DE02CF01DF91CF911F910F91B6
:100620000895CF93DF93CDB7DEB7FE013696619183
:100630007191AF018091DC029091DD0230D0DF91A9
:10064000CF9108950F931F93CF93DF93E091DC0236
:10065000F091DD02238121FF1BC0EC0100E010E0DE
:1006600089916091DC027091DD02DB011896ED91B9
:10067000FC911997882331F01995892B89F30FEF95
:100680001FEFEECF8AE01995892B11F4C80102C043
:100690008FEF9FEFDF91CF911F910F9108952F92D0
:1006A0003F924F925F926F927F928F929F92AF9202
:1006B000BF92CF92DF92EF92FF920F931F93CF934F
:1006C000DF93CDB7DEB72C970FB6F894DEBF0FBE21
:1006D000CDBF7C016B018A01FC01178216828381E8
:1006E00081FFB0C1CE0101964C01F7019381F60163
:1006F00093FD859193FF81916F01882309F49EC139
:10070000853239F493FD859193FF81916F01853294
:1007100021F4B70190E00FD3E8CF512C312C20E029
:100720002032A0F48B3269F030F4803259F08332F9
:1007300069F420612CC08D3239F0803339F42160A6
:1007400026C02260246023C0286021C027FD27C066
:1007500030ED380F3A3078F426FF06C0FAE05F9E9D
:10076000300D1124532E13C08AE0389E300D112411
:10077000332E20620CC08E3221F426FD5FC120642E
:1007800006C08C3611F4206802C0883641F4F601A8
:1007900093FD859193FF81916F018111C1CF982FB6
:1007A0009F7D9554933028F40C5F1F4FFFE3F9832E
:1007B0000DC0833631F0833771F0833509F057C0AF
:1007C00021C0F801808189830E5F1F4F4424439428
:1007D000512C540114C03801F2E06F0E711CF80165
:1007E000A080B18026FF03C0652D70E002C06FEFCE
:1007F0007FEFC5012C8794D22C0183012C852F77A4
:10080000222E16C03801F2E06F0E711CF801A08094
:10081000B18026FF03C0652D70E002C06FEF7FEF4F
:10082000C5012C876BD22C012C852068222E8301D8
:1008300023FC19C0832D90E048165906A0F4B70197
:1008400080E290E078D23A94F5CFF50127FC8591CB
:1008500027FE81915F01B70190E06DD231103A948B
:10086000F1E04F1A51084114510479F7DEC0843683
:1008700011F0893631F5F80127FF07C060817181D9
:10088000828193810C5F1F4F08C06081718188272E
:1008900077FD8095982F0E5F1F4F2F76B22E97FF12
:1008A00009C090958095709561957F4F8F4F9F4FB0
:1008B0002068B22E2AE030E0A4016FD2A82EA8183A
:1008C00043C0853729F42F7EB22E2AE030E025C0C0
:1008D000F22FF97FBF2E8F36C1F018F4883579F0EA
:1008E000ADC0803719F0883721F0A8C02F2F2061C4
:1008F000B22EB4FE0DC08B2D8460B82E09C024FF2B
:100900000AC09F2F9660B92E06C028E030E005C0CF
:1009100020E130E002C020E132E0F801B7FE07C07C
:1009200060817181828193810C5F1F4F06C060815D
:10093000718180E090E00E5F1F4FA4012ED2A82E9F
:10094000A818FB2DFF77BF2EB6FE0BC02B2D2E7FD8
:10095000A51450F4B4FE0AC0B2FC08C02B2D2E7EA4
:1009600005C07A2C2B2D03C07A2C01C0752C24FFD6
:100970000DC0FE01EA0DF11D8081803311F4297E46
:1009800009C022FF06C07394739404C0822F867836
:1009900009F0739423FD12C020FF06C05A2C731473
:1009A00018F4530C5718732C731460F4B70180E2D9
:1009B00090E02C87C0D173942C85F6CF731410F47B
:1009C000371801C0312C24FF11C0B70180E390E03B
:1009D0002C87B1D12C8522FF16C021FF03C088E5EA
:1009E00090E002C088E790E0B7010CC0822F8678C3
:1009F00051F021FD02C080E201C08BE227FD8DE2B3
:100A0000B70190E098D1A51430F4B70180E390E0ED
:100A100092D15A94F8CFAA94F401EA0DF11D808185
:100A2000B70190E088D1A110F6CF332009F45DCE54
:100A3000B70180E290E07FD13A94F7CFF701868149
:100A4000978102C08FEF9FEF2C960FB6F894DEBF10
:100A50000FBECDBFDF91CF911F910F91FF90EF900F
:100A6000DF90CF90BF90AF909F908F907F906F90CE
:100A70005F904F903F902F9008950F931F93CF93C7
:100A8000DF93869F8001879F100D969F100D112484
:100A9000C8010DD0EC01009721F0A80160E070E0E2
:100AA00038D1CE01DF91CF911F910F910895CF934F
:100AB000DF938230910510F482E090E0E091E20251
:100AC000F091E30220E030E0A0E0B0E0309739F1AF
:100AD0004081518148175907B8F04817590771F4F8
:100AE00082819381109729F013969C938E9312978D
:100AF0002CC09093E3028093E20227C021153105B8
:100B000031F04217530718F0A901DB0101C0EF01D2
:100B10009A01BD01DF010280F381E02DD7CF2115BD
:100B20003105F9F0281B390B2430310580F48A8116
:100B30009B816115710521F0FB019383828304C0C1
:100B40009093E3028093E202FE01329644C0FE01DC
:100B5000E20FF31F81939193225031093983288347
:100B60003AC02091E0023091E102232B41F4209120
:100B70000202309103023093E1022093E0022091BF
:100B80000002309101022115310541F42DB73EB725
:100B90004091040250910502241B350BE091E002C4
:100BA000F091E102E217F307A0F42E1B3F0B281788
:100BB000390778F0AC014E5F5F4F2417350748F0D6
:100BC0004E0F5F1F5093E1024093E0028193919397
:100BD00002C0E0E0F0E0CF01DF91CF910895CF9324
:100BE000DF93009709F487C0FC01329713821282C9
:100BF000C091E202D091E302209781F420813181FB
:100C0000280F391F8091E0029091E102821793072B
:100C100079F5F093E102E093E0026DC0DE0120E09F
:100C200030E0AE17BF0750F412964D915C911397C8
:100C30009D014115510509F1DA01F3CFB383A28378
:100C400040815181840F951F8A179B0771F48D9104
:100C50009C911197840F951F029691838083129621
:100C60008D919C911397938382832115310529F4EB
:100C7000F093E302E093E2023EC0D9011396FC93A5
:100C8000EE9312974D915D91A40FB51FEA17FB07E4
:100C900079F480819181840F951F0296D901119674
:100CA0009C938E938281938113969C938E9312973B
:100CB000E0E0F0E08A819B81009719F0FE01EC01F1
:100CC000F9CFCE01029628813981820F931F20919E
:100CD000E0023091E1022817390769F4309729F4CE
:100CE0001092E3021092E20202C013821282D093A9
:100CF000E102C093E002DF91CF910895FC010590DD
:100D0000615070400110D8F7809590958E0F9F1F0D
:100D10000895DC0101C06D9341505040E0F7089503
:100D2000FC016150704001900110D8F780959095BA
:100D30008E0F9F1F08950F931F93CF93DF93182F4C
:100D4000092FEB018B8181FD03C08FEF9FEF20C046
:100D500082FF10C04E815F812C813D814217530775
:100D60007CF4E881F9819F012F5F3F4F398328830D
:100D7000108306C0E885F985812F1995892B29F7FD
:100D80002E813F812F5F3F4F3F832E83812F902FF6
:100D9000DF91CF911F910F910895FA01AA27283072
:100DA00051F1203181F1E8946F936E7F6E5F7F4F38
:100DB0008F4F9F4FAF4FB1E03ED0B4E03CD0670FB4
:100DC000781F891F9A1FA11D680F791F8A1F911D07
:100DD000A11D6A0F711D811D911DA11D20D009F457
:100DE00068943F912AE0269F11243019305D319399
:100DF000DEF6CF010895462F4770405D4193B3E082
:100E00000FD0C9F7F6CF462F4F70405D4A3318F028
:100E1000495D31FD4052419302D0A9F7EACFB4E0D9
:100E2000A6959795879577956795BA95C9F7009791
:100E30006105710508959B01AC010A2E0694579532
:100E4000479537952795BA95C9F7620F731F841F89
:0A0E5000951FA01D0895F894FFCF30
:100E5A000000E40220004D435032353135206973D9
:100E6A00204E4F5420696E20636F7272656374203E
:100E7A006D6F64652061667465722072657365744E
:100E8A00212049747320636F6E66696720626974F2
:100E9A0073206172652025780A00696E206D6F647F
:100EAA0065206E6F726D616C200A0D0063616E20A1
:100EBA006D6573736167652073656E6420256400D0
:100ECA0043414E494E5446206F7574202564200ACA
:100EDA000D0063616E206D657373736167652072BF
:100EEA00656365697665642025640073746172744C
:100EFA00200A0D2000496E20746865206D61696EB4
:100F0A002073656E64202563200A0D00496E2074E3
:100F1A006865206D61696E207265636569766564CE
:0A0F2A00202563200A0D200A0D00A7
:00000001FF
