:1000000071C000008FC000008DC000008BC00000D8
:1000100089C0000087C0000085C0000083C00000C8
:1000200081C000007FC000007DC000007BC00000D8
:1000300079C0000077C0000075C0000073C00000E8
:1000400071C000006FC000006DC000006BC00000F8
:1000500069C0000067C0000065C0000063C0000008
:1000600061C000005FC000005DC000005BC0000018
:1000700059C0000057C0000055C0000053C0000028
:1000800051C000004FC000004DC000004BC0000038
:1000900049C0000047C0000045C0000043C0000048
:1000A00041C000003FC000003DC000003BC0000058
:1000B00039C0000037C0000035C0000033C0000068
:1000C00031C000002FC000002DC000002BC0000078
:1000D00029C0000027C0000025C0000023C0000088
:1000E00021C0000011241FBECFEFD1E2DEBFCDBF83
:1000F00000E00CBF12E0A0E0B2E0E8EAF3E100E0CB
:100100000BBF02C007900D92A23AB107D9F722E0C7
:10011000A2EAB2E001C01D92AC3AB207E1F715D1F4
:100120000C94D2096DCFEAE7F0E08081876080838C
:100130008081806880830895ECE7F0E080818068AA
:100140008083EAE7F0E0808180648083808186FD9F
:10015000FDCF209178003091790081E090E0243645
:10016000310510F480E090E00895CF93DF93CDB790
:10017000DEB72A970FB6F894DEBF0FBECDBF5BD1B6
:1001800041E060E680E679D18FEF9FE80197F1F7D3
:1001900000C0000041E061E08BE285D18FEF9FE875
:1001A0000197F1F700C0000040E060EE8FE07BD1E6
:1001B0008FEF9FE80197F1F700C000004AE0BE0111
:1001C0006F5F7F4F8EE03AD18981807E99F01F92D8
:1001D0008F9386E092E09F938F93CAD48FE792E04B
:1001E0009F938F93C5D40F900F900F900F900F9007
:1001F0000F9007C08AE492E09F938F93B9D40F9039
:100200000F902A960FB6F894DEBF0FBECDBFDF91D8
:10021000CF910895FF920F931F93CF93DF93CDB7A4
:10022000DEB72A970FB6F894DEBF0FBECDBF8C01A4
:10023000F62E41E0BE016F5F7F4F8CE2FFD08981D7
:1002400081110BC01F921F9220E732E03F932F9342
:100250008FD40F900F900F900F9041E0BE016F5F11
:100260007F4F85E68F0DEAD08981F801828341E0D6
:10027000BE016F5F7F4F81E68F0DE0D0298130E0B6
:10028000F801318320834281BE016F5F7F4F86E694
:100290008F0DD4D0F8019281992361F09E012F5FD8
:1002A0003F4FD8011396F90181918D938E2F821BB8
:1002B0008917D0F340E061E08CE2F5D02A960FB6C2
:1002C000F894DEBF0FBECDBFDF91CF911F910F918C
:1002D000FF9008950F931F93CF93DF93CDB7DEB7B1
:1002E0002A970FB6F894DEBF0FBECDBF8C0141E058
:1002F000BE016F5F7F4F8CE2A1D0898180FF0BC070
:1003000060E070E0C80186DF40E061E08CE2CBD0C5
:1003100081E090E00FC081FF0BC061E070E0C80198
:1003200079DF40E062E08CE2BED081E090E002C084
:1003300080E090E02A960FB6F894DEBF0FBECDBFE6
:10034000DF91CF911F910F910895CF93DF93CDB798
:10035000DEB72D970FB6F894DEBF0FBECDBF87E690
:1003600090E091D182E892E014D4FFDE83E090E047
:100370009A83898381E08B83C0D0D5DEDDDE8C015A
:10038000DBDEE12CF12C0F2EFCE8CF2EF2E0DF2E8D
:10039000F02DA12CB12C88248394912CCE010196B0
:1003A00099DF892B71F06C8170E080E090E07DD264
:1003B0009B01AC0160E070E08FE793E474D105D15C
:1003C000BBD0BADE0115110559F4019739F783ED59
:1003D00090E30197F1F700C00000082D192DDECF42
:1003E00001301105D9F6892BC9F69FEFE91AF90AF0
:1003F000FF92EF92DF92CF92BBD383ED90E3019710
:10040000F1F700C000000F900F900F900F900A2D91
:100410001B2DC4CFCF93DF931F92CDB7DEB72F989C
:1004200080EC898361E0CE01019609D12F9A0F906B
:10043000DF91CF910895D4D0EDCF0895FF920F931F
:100440001F93CF93DF931F921F92CDB7DEB78B011F
:10045000F42E2F9893E099838A8362E0CE0101966F
:10046000EED06F2DC801C5D02F9A0F900F90DF915D
:10047000CF911F910F91FF900895CF93DF9300D0FC
:10048000CDB7DEB72F9892E099838A836B8362E0C1
:10049000640FCE010196D3D02F9A0F900F900F903A
:1004A000DF91CF910895CF93DF9300D01F92CDB706
:1004B000DEB72F9895E099838A836B834C8364E041
:1004C000CE010196BCD02F9A0F900F900F900F90F5
:1004D000DF91CF910895E1E8F0E080818260808330
:1004E00080818B7F808380818E7F808380E49CE904
:1004F00090938700809386000895E1E8F0E0808182
:1005000080618083808188608083E0E8F0E0808182
:100510008260808380818E7F8083808180688083F9
:1005200080818F7B8083D7DF259A88EB9BE0909337
:100530008900809388000895CF92DF92EF92FF9216
:100540006B017C0120E030E041E654E411D18823C6
:1005500054F020E030E443E055E4C701B60157D23F
:10056000181654F012C00F2EC12CD12CF1E6EF2E2C
:10057000F4E4FF2EF02D09C00F2EC12CF0E4DF2E85
:10058000F3E0EF2EF5E4FF2EF02D20E030E44CE90F
:1005900056E4C701B601F0D020E034E244E75BE462
:1005A0003AD220E030E040E05EE335D220E030E0B7
:1005B00048E452E4E1D048D1709389006093880008
:1005C000FF90EF90DF90CF9008952CEB36E946E94D
:1005D00050E421D220E030E041E654E465C00895C3
:1005E00084B1876884B985B1816885B981E58CBD9E
:1005F0000895CF93DF93CDB7DEB72A970FB6F8945F
:10060000DEBF0FBECDBF662389F0FE013196A82F55
:10061000B92FCF01860F911D21912EBD0DB407FE7C
:10062000FDCF2EB52D93E817F907B1F72A960FB62F
:10063000F894DEBF0FBECDBFDF91CF910895262F76
:1006400030E01216130674F4E82FF92F80E090E0E2
:1006500041914EBD0DB407FEFDCF4EB501968217F8
:100660009307B4F30895E0ECF0E0908195FFFDCF9F
:100670008093C6000895E0ECF0E080818823ECF3DD
:100680008091C60008959093C5008093C40088E1CE
:100690008093C1008EE08093C2006BE373E083E33C
:1006A00093E01CC208955058BB27AA270ED075C1ED
:1006B00066D130F06BD120F031F49F3F11F41EF47D
:1006C0005BC10EF4E095E7FB51C1E92F77D180F3D0
:1006D000BA17620773078407950718F071F49EF53F
:1006E0008FC10EF4E0950B2EBA2FA02D0B01B9018E
:1006F00090010C01CA01A0011124FF27591B99F098
:10070000593F50F4503E68F11A16F040A22F232FA3
:10071000342F4427585FF3CF469537952795A795F3
:10072000F0405395C9F77EF41F16BA0B620B730B9A
:10073000840BBAF09150A1F0FF0FBB1F661F771F0B
:10074000881FC2F70EC0BA0F621F731F841F48F4C0
:10075000879577956795B795F7959E3F08F0B3CF46
:100760009395880F08F09927EE0F97958795089530
:10077000D9D008F481E008950CD00FC107D140F022
:10078000FED030F021F45F3F19F0F0C0511139C1B3
:10079000F3C014D198F39923C9F35523B1F3951BF2
:1007A000550BBB27AA2762177307840738F09F5F92
:1007B0005F4F220F331F441FAA1FA9F333D00E2E01
:1007C0003AF0E0E830D091505040E695001CCAF76E
:1007D00029D0FE2F27D0660F771F881FBB1F261733
:1007E00037074807AB07B0E809F0BB0B802DBF0106
:1007F000FF2793585F4F2AF09E3F510568F0B6C01F
:1008000000C15F3FECF3983EDCF3869577956795E2
:10081000B795F7959F5FC9F7880F911D96958795B6
:1008200097F90895E1E0660F771F881FBB1F6217D5
:1008300073078407BA0720F0621B730B840BBA0B93
:10084000EE1F88F7E095089504D06894B111D9C0DF
:100850000895BCD088F09F5790F0B92F9927B751D1
:10086000A0F0D1F0660F771F881F991F1AF0BA9574
:10087000C9F712C0B13081F0C3D0B1E00895C0C053
:10088000672F782F8827B85F39F0B93FCCF386956A
:1008900077956795B395D9F73EF4909580957095C7
:1008A00061957F4F8F4F9F4F0895E89409C097FB44
:1008B0003EF490958095709561957F4F8F4F9F4F37
:1008C0009923A9F0F92F96E9BB279395F69587957B
:1008D00077956795B795F111F8CFFAF4BB0F11F43E
:1008E00060FF1BC06F5F7F4F8F4F9F4F16C08823E5
:1008F00011F096E911C0772321F09EE8872F762F1B
:1009000005C0662371F096E8862F70E060E02AF05B
:100910009A95660F771F881FDAF7880F9695879547
:1009200097F90895990F0008550FAA0BE0E8FEEF1C
:1009300016161706E807F907C0F012161306E407A3
:10094000F50798F0621B730B840B950B39F40A269C
:1009500061F0232B242B252B21F408950A2609F47A
:10096000A140A6958FEF811D811D089597F99F677E
:1009700080E870E060E008959FEF80EC0895002427
:100980000A941616170618060906089500240A94F4
:1009900012161306140605060895092E0394000C7A
:1009A00011F4882352F0BB0F40F4BF2B11F460FF09
:1009B00004C06F5F7F4F8F4F9F4F089557FD905832
:1009C000440F551F59F05F3F71F04795880F97FB13
:1009D000991F61F09F3F79F08795089512161306CD
:1009E0001406551FF2CF4695F1DF08C016161706FC
:1009F0001806991FF1CF8695710561050894089531
:100A0000E894BB2766277727CB0197F908958ADFFB
:100A100008F48FEF08950BD0C0CFB1DF28F0B6DF18
:100A200018F0952309F0A2CFA7CF1124EACFC6DF93
:100A3000A0F3959FD1F3950F50E0551F629FF001F1
:100A4000729FBB27F00DB11D639FAA27F00DB11D4A
:100A5000AA1F649F6627B00DA11D661F829F2227D3
:100A6000B00DA11D621F739FB00DA11D621F839F5A
:100A7000A00D611D221F749F3327A00D611D231F30
:100A8000849F600D211D822F762F6A2F11249F577E
:100A900050408AF0E1F088234AF0EE0FFF1FBB1FA1
:100AA000661F771F881F91505040A9F79E3F510540
:100AB00070F05CCFA6CF5F3FECF3983EDCF38695F9
:100AC00077956795B795F795E7959F5FC1F7FE2BEB
:100AD000880F911D9695879597F908950F931F9309
:100AE000CF93DF93EC018B01009731F46115710511
:100AF00019F480E090E037C06EE070E081E090E0B3
:100B000063D2FC010097A9F380E8838301151105E6
:100B100071F01387028781E883838091A20290910C
:100B2000A302892B21F4F093A302E093A202209761
:100B3000C9F0D187C0878381826083838091A402BA
:100B40009091A502892B71F4F093A502E093A40281
:100B50008091A6029091A702892B21F4F093A7021D
:100B6000E093A602CF01DF91CF911F910F910895DD
:100B7000CF93DF93CDB7DEB7FE01369661917191C9
:100B8000AF018091A4029091A50230D0DF91CF9166
:100B900008950F931F93CF93DF93E091A402F091F8
:100BA000A502238121FF1BC0EC0100E010E0899128
:100BB0006091A4027091A502DB011896ED91FC9161
:100BC0001997882331F01995892B89F30FEF1FEFBF
:100BD000EECF8AE01995892B11F4C80102C08FEF7E
:100BE0009FEFDF91CF911F910F9108952F923F9228
:100BF0004F925F926F927F928F929F92AF92BF922D
:100C0000CF92DF92EF92FF920F931F93CF93DF93D8
:100C1000CDB7DEB72C970FB6F894DEBF0FBECDBFB1
:100C20007C016B018A01FC0117821682838181FF9E
:100C3000B0C1CE0101964C01F7019381F60193FDFD
:100C4000859193FF81916F01882309F49EC18532BC
:100C500039F493FD859193FF81916F01853221F4E1
:100C6000B70190E00FD3E8CF512C312C20E0203297
:100C7000A0F48B3269F030F4803259F0833269F499
:100C800020612CC08D3239F0803339F4216026C0C8
:100C90002260246023C0286021C027FD27C030EDDA
:100CA000380F3A3078F426FF06C0FAE05F9E300D28
:100CB0001124532E13C08AE0389E300D1124332E98
:100CC00020620CC08E3221F426FD5FC1206406C074
:100CD0008C3611F4206802C0883641F4F60193FD89
:100CE000859193FF81916F018111C1CF982F9F7DD5
:100CF0009554933028F40C5F1F4FFFE3F9830DC028
:100D0000833631F0833771F0833509F057C021C045
:100D1000F801808189830E5F1F4F44244394512C36
:100D2000540114C03801F2E06F0E711CF801A0806C
:100D3000B18026FF03C0652D70E002C06FEF7FEF2A
:100D4000C5012C8794D22C0183012C852F77222E6C
:100D500016C03801F2E06F0E711CF801A080B1805E
:100D600026FF03C0652D70E002C06FEF7FEFC50165
:100D70002C876BD22C012C852068222E830123FC2A
:100D800019C0832D90E048165906A0F4B70180E2FF
:100D900090E078D23A94F5CFF50127FC859127FEB3
:100DA00081915F01B70190E06DD231103A94F1E08A
:100DB0004F1A51084114510479F7DEC0843611F0FE
:100DC000893631F5F80127FF07C060817181828182
:100DD00093810C5F1F4F08C060817181882777FD68
:100DE0008095982F0E5F1F4F2F76B22E97FF09C068
:100DF00090958095709561957F4F8F4F9F4F20689C
:100E0000B22E2AE030E0A4016FD2A82EA81843C069
:100E1000853729F42F7EB22E2AE030E025C0F22F4C
:100E2000F97FBF2E8F36C1F018F4883579F0ADC048
:100E3000803719F0883721F0A8C02F2F2061B22EFB
:100E4000B4FE0DC08B2D8460B82E09C024FF0AC0EB
:100E50009F2F9660B92E06C028E030E005C020E143
:100E600030E002C020E132E0F801B7FE07C0608147
:100E70007181828193810C5F1F4F06C060817181F7
:100E800080E090E00E5F1F4FA4012ED2A82EA8187C
:100E9000FB2DFF77BF2EB6FE0BC02B2D2E7FA5148A
:100EA00050F4B4FE0AC0B2FC08C02B2D2E7E05C043
:100EB0007A2C2B2D03C07A2C01C0752C24FF0DC079
:100EC000FE01EA0DF11D8081803311F4297E09C0F5
:100ED00022FF06C07394739404C0822F867809F0B1
:100EE000739423FD12C020FF06C05A2C731418F40B
:100EF000530C5718732C731460F4B70180E290E020
:100F00002C87C0D173942C85F6CF731410F4371846
:100F100001C0312C24FF11C0B70180E390E02C8781
:100F2000B1D12C8522FF16C021FF03C088E590E0D7
:100F300002C088E790E0B7010CC0822F867851F09C
:100F400021FD02C080E201C08BE227FD8DE2B701E6
:100F500090E098D1A51430F4B70180E390E092D1ED
:100F60005A94F8CFAA94F401EA0DF11D8081B701DB
:100F700090E088D1A110F6CF332009F45DCEB701FF
:100F800080E290E07FD13A94F7CFF7018681978194
:100F900002C08FEF9FEF2C960FB6F894DEBF0FBE06
:100FA000CDBFDF91CF911F910F91FF90EF90DF9018
:100FB000CF90BF90AF909F908F907F906F905F90F9
:100FC0004F903F902F9008950F931F93CF93DF93EF
:100FD000869F8001879F100D969F100D1124C801D8
:100FE0000DD0EC01009721F0A80160E070E038D14D
:100FF000CE01DF91CF911F910F910895CF93DF9391
:101000008230910510F482E090E0E091AA02F09124
:10101000AB0220E030E0A0E0B0E0309739F1408151
:10102000518148175907B8F04817590771F4828160
:101030009381109729F013969C938E9312972CC04E
:101040009093AB028093AA0227C02115310531F09D
:101050004217530718F0A901DB0101C0EF019A0103
:10106000BD01DF010280F381E02DD7CF21153105CD
:10107000F9F0281B390B2430310580F48A819B81DB
:101080006115710521F0FB019383828304C0909365
:10109000AB028093AA02FE01329644C0FE01E20F29
:1010A000F31F8193919322503109398328833AC0E9
:1010B0002091A8023091A902232B41F42091020231
:1010C000309103023093A9022093A80220910002DC
:1010D000309101022115310541F42DB73EB7409101
:1010E000040250910502241B350BE091A802F091F7
:1010F000A902E217F307A0F42E1B3F0B28173907AC
:1011000078F0AC014E5F5F4F2417350748F04E0F63
:101110005F1F5093A9024093A8028193919302C04C
:10112000E0E0F0E0CF01DF91CF910895CF93DF931E
:10113000009709F487C0FC01329713821282C09194
:10114000AA02D091AB02209781F420813181280F2F
:10115000391F8091A8029091A9028217930779F50F
:10116000F093A902E093A8026DC0DE0120E030E018
:10117000AE17BF0750F412964D915C9113979D01E5
:101180004115510509F1DA01F3CFB383A283408100
:101190005181840F951F8A179B0771F48D919C9143
:1011A0001197840F951F02969183808312968D91DB
:1011B0009C911397938382832115310529F4F09331
:1011C000AB02E093AA023EC0D9011396FC93EE93C2
:1011D00012974D915D91A40FB51FEA17FB0779F4A3
:1011E00080819181840F951F0296D90111969C935D
:1011F0008E938281938113969C938E931297E0E055
:10120000F0E08A819B81009719F0FE01EC01F9CF93
:10121000CE01029628813981820F931F2091A80266
:101220003091A9022817390769F4309729F41092F0
:10123000AB021092AA0202C013821282D093A902BA
:10124000C093A802DF91CF910895FC0105906150F1
:1012500070400110D8F7809590958E0F9F1F0895CC
:10126000DC0101C06D9341505040E0F70895FC014E
:101270006150704001900110D8F7809590958E0FC5
:101280009F1F08950F931F93CF93DF93182F092F5C
:10129000EB018B8181FD03C08FEF9FEF20C082FFA8
:1012A00010C04E815F812C813D81421753077CF431
:1012B000E881F9819F012F5F3F4F39832883108395
:1012C00006C0E885F985812F1995892B29F72E818C
:1012D0003F812F5F3F4F3F832E83812F902FDF91E0
:1012E000CF911F910F910895FA01AA27283051F14B
:1012F000203181F1E8946F936E7F6E5F7F4F8F4F47
:101300009F4FAF4FB1E03ED0B4E03CD0670F781FA5
:10131000891F9A1FA11D680F791F8A1F911DA11D8A
:101320006A0F711D811D911DA11D20D009F46894C3
:101330003F912AE0269F11243019305D3193DEF66B
:10134000CF010895462F4770405D4193B3E00FD021
:10135000C9F7F6CF462F4F70405D4A3318F0495D0C
:1013600031FD4052419302D0A9F7EACFB4E0A695EF
:101370009795879577956795BA95C9F70097610511
:10138000710508959B01AC010A2E06945795479567
:1013900037952795BA95C9F7620F731F841F951F5C
:0813A000A01D0895F894FFCF91
:1013A8000000AC0220004D435032353135206973BE
:1013B800204E4F5420696E20636F727265637420EB
:1013C8006D6F6465206166746572207265736574FB
:1013D800212049747320636F6E666967206269749F
:1013E80073206172652025780A00696E206D6F642C
:1013F80065206E6F726D616C200A0D0063616E204E
:101408006D6573736167652073656E64202564007C
:1014180043414E494E5446206F7574202564200A76
:101428000D007374617274200A0D2000596F7520C5
:101438006C6F73742025642074696D6573200A0DC0
:021448000000A2
:00000001FF
