:10000000C2C00000E0C00000DEC00000DCC0000094
:10001000DAC00000D8C00000D6C00000D4C0000084
:10002000D2C00000D0C00000CEC00000CCC0000094
:10003000CAC00000C8C00000C6C00000C4C00000A4
:10004000C2C00000C0C00000BEC00000BCC00000B4
:10005000BAC00000B8C00000B6C00000B4C00000C4
:10006000B2C00000B0C00000AEC00000ACC00000D4
:10007000AAC00000A8C00000A6C00000A4C00000E4
:10008000A2C00000A0C000009EC000009CC00000F4
:100090009AC0000098C0000096C0000080C4000014
:1000A00092C0000090C000008EC000008CC0000014
:1000B0008AC0000088C0000086C0000084C0000024
:1000C00082C0000080C000007EC000007CC0000034
:1000D0007AC0000078C0000076C0000074C0000044
:1000E00072C00000EA043C053C053C053C053C05AB
:1000F0003C053C05EA043C053C053C053C053C054B
:100100003C053C05EC043C053C053C053C053C0538
:100110003C053C053C053C053C053C053C053C05D7
:100120003C053C05EC043C053C053C053C053C0518
:100130003C053C053C053C053C053C053C053C05B7
:100140003C053C0538053C053C053C053C053C05AB
:100150003C053C0515053C053C053C053C053C05BE
:100160003C053C053C053C053C053C053C053C0587
:100170003C053C0509053C053C053C053C053C05AA
:100180003C053C05270511241FBECFEFD1E2DEBFA1
:10019000CDBF00E00CBF12E0A0E0B2E0E2EFF7E17B
:1001A00000E00BBF02C007900D92AE3BB107D9F73C
:1001B00022E0AEEBB2E001C01D92A33DB207E1F731
:1001C00015D10C94F70B1CCFEAE7F0E08081876033
:1001D00080838081806880830895ECE7F0E08081EF
:1001E00080688083EAE7F0E080818064808380819A
:1001F00086FDFDCF209178003091790081E090E07C
:10020000283C310510F480E090E00895CF93DF930F
:10021000CDB7DEB72A970FB6F894DEBF0FBECDBFBD
:1002200062D141E060E680E680D18FEF9FE80197E0
:10023000F1F700C0000041E061E08BE28CD18FEF6C
:100240009FE80197F1F700C0000040E060EE8FE00A
:1002500082D18FEF9FE80197F1F700C000004AE0DC
:10026000BE016F5F7F4F8EE041D18981807E99F022
:100270001F928F9387E092E09F938F939ED683EB9C
:1002800092E09F938F9399D60F900F900F900F90BD
:100290000F900F9007C08BE492E09F938F938DD6C1
:1002A0000F900F902A960FB6F894DEBF0FBECDBF09
:1002B000DF91CF910895FF920F931F93CF93DF9318
:1002C000CDB7DEB72A970FB6F894DEBF0FBECDBF0D
:1002D0008C01F62E41E0BE016F5F7F4F8CE206D1AC
:1002E000898181110BC01F921F9221E732E03F9359
:1002F0002F9363D60F900F900F900F9041E0BE01A7
:100300006F5F7F4F85E68F0DF1D08981F801828381
:1003100041E0BE016F5F7F4F81E68F0DE7D02981FD
:1003200030E0F801318320834281BE016F5F7F4F4F
:1003300086E68F0DDBD0F8019281992361F09E0152
:100340002F5F3F4FD8011396F90181918D938E2F26
:10035000821B8917D0F340E061E08CE2FCD02A9642
:100360000FB6F894DEBF0FBECDBFDF91CF911F91C6
:100370000F91FF9008950F931F93CF93DF93CDB705
:10038000DEB72A970FB6F894DEBF0FBECDBF8C0143
:1003900041E0BE016F5F7F4F8CE2A8D0898180FF72
:1003A0000BC060E070E0C80186DF40E061E08CE2F5
:1003B000D2D081E090E00FC081FF0BC061E070E01F
:1003C000C80179DF40E062E08CE2C5D081E090E0D6
:1003D00002C080E090E02A960FB6F894DEBF0FBE10
:1003E000CDBFDF91CF911F910F910895CF93DF93F0
:1003F000CDB7DEB72D970FB6F894DEBF0FBECDBFD9
:10040000539A8BB188708BB987E690E05BD383E811
:1004100092E0E4D5FBDE83E090E09A83898381E07B
:100420008B8383E68C83D9D1CFDED7DED6DE78947A
:10043000BDD02FEF87EA91E6215080409040E1F750
:1004400000C0000017D180E09ED00DE812E0CE0180
:10045000019691DF892B61F189819A818130910523
:1004600079F46C8170E080E090E03ED49B01AC01B7
:1004700060E070E08FE793E435D317D2CDD118C098
:100480008230910519F48C8102D112C0039781F456
:100490001F930F9392D55B9A2FEF81EE94E021503A
:1004A00080409040E1F700C000005B980F900F90F3
:1004B0002FEF80E792E0215080409040E1F700C0AC
:1004C0000000C5CFCF93DF931F92CDB7DEB72F9833
:1004D00080EC898361E0CE01019621D22F9A0F90A2
:1004E000DF91CF910895ECD1EDCF0895FF920F9356
:1004F0001F93CF93DF931F921F92CDB7DEB78B016F
:10050000F42E2F9893E099838A8362E0CE010196BE
:1005100006D26F2DC801DDD12F9A0F900F90DF9179
:10052000CF911F910F91FF900895CF93DF9300D04B
:10053000CDB7DEB72F9892E099838A836B8362E010
:10054000640FCE010196EBD12F9A0F900F900F9070
:10055000DF91CF910895CF93DF9300D01F92CDB755
:10056000DEB72F9895E099838A836B834C8364E090
:10057000CE010196D4D12F9A0F900F900F900F902B
:10058000DF91CF910895CF93DF9300D0CDB7DEB741
:1005900090E599831A828B8364E0CE010196DDD1C8
:1005A0000F900F900F90DF91CF910895CCD1E1E0A3
:1005B000F1E080818A678083E2E0F1E080818260FF
:1005C00080838081806180831092070180E5DBCF8A
:1005D0000895882369F0E2E0F1E080818260808301
:1005E00088E992E09F938F93E8D40F900F9008953D
:1005F000E2E0F1E080818D7F808381EA92E09F9349
:100600008F93DBD40F900F900895CF93DF9300D09A
:100610001F92CDB7DEB7E2E0F1E080818F7D80836D
:100620008081877F808387E893E10197F1F700C09D
:100630000000809106018C8380818860808387E838
:1006400093E10197F1F700C00000809106018B83D0
:100650008081806280832C818B8190E0922B9A83B1
:10066000898389819A810F900F900F900F90DF916D
:10067000CF910895E2E0F1E080818F7B808382E476
:100680008A95F1F700C08081806480830895CF92BD
:10069000DF92EF92FF920F931F93CF93DF93C82FB8
:1006A000B4DFC195D0E0BC0180E090E01DD320E034
:1006B00030E04CE853E416D224E83BE447E05DE345
:1006C000C9D3E1D2C61BD70B0091BE021091BF0265
:1006D0000C0F1D1F1093BF020093BE02BE0188279E
:1006E00077FD8095982F02D32AE939E949E95FE33C
:1006F000B1D36B017C01B801882777FD8095982FD5
:10070000F5D22DEC3CEC4CE45FE3A4D320E030E0E8
:1007100040EA51E450D29B01AC01C701B601E3D1DC
:100720006B017C018091C0029091C102BE01681BE7
:10073000790B80E090E0D8D22DEC3CEC4CE45EE309
:1007400089D320E030E040EA51E484D39B01AC013E
:10075000C701B601C8D197D26B017C018B01D09340
:10076000C102C093C002161617061CF480E031DFE8
:1007700006C081E02EDF002711270C191D09E801B2
:100780000536110514F0C4E6D0E08C2FFCDEDF93B3
:10079000CF9386EB92E09F938F930FD40F900F909F
:1007A0000F900F90DF91CF911F910F91FF90EF90DD
:1007B000DF90CF900895E1E8F0E08081826080834F
:1007C00080818B7F808380818E7F808380E49CE921
:1007D00090938700809386000895E1E8F0E080819F
:1007E00080618083808188608083E0E8F0E08081A0
:1007F0008260808380818E7F808380818068808317
:1008000080818F7B8083D7DF259A88EB9BE0909354
:100810008900809388000895CF92DF92EF92FF9233
:100820006B017C0120E030E041E654E4C0D1882334
:1008300054F020E030E443E055E4C701B60106D3AC
:10084000181654F012C00F2EC12CD12CF1E6EF2E49
:10085000F4E4FF2EF02D09C00F2EC12CF0E4DF2EA2
:10086000F3E0EF2EF5E4FF2EF02D20E030E44CE92C
:1008700056E4C701B6019FD120E034E244E75BE4CF
:10088000E9D220E030E040E05EE3E4D220E030E076
:1008900048E452E490D1F7D17093890060938800C6
:1008A000FF90EF90DF90CF9008952CEB36E946E96A
:1008B00050E4D0D220E030E041E654E414C1089581
:1008C00084B1876884B985B1816885B981E58CBDBB
:1008D0000895CF93DF93CDB7DEB72A970FB6F8947C
:1008E000DEBF0FBECDBF662389F0FE013196A82F73
:1008F000B92FCF01860F911D21912EBD0DB407FE9A
:10090000FDCF2EB52D93E817F907B1F72A960FB64C
:10091000F894DEBF0FBECDBFDF91CF910895262F93
:1009200030E01216130674F4E82FF92F80E090E0FF
:1009300041914EBD0DB407FEFDCF4EB50196821715
:100940009307B4F308958CE08093B8008FEF809301
:10095000BB0084E08093BC000895ECEBF0E02081C4
:1009600020FDFDCF6093C402FC0120812093C502CD
:1009700020FD0CC0623050F0DC011196E6ECF2E094
:1009800081E09D9191938F5F8613FBCF1092C302FC
:1009900088EF8093060285EA8093BC0008951F9239
:1009A0000F920FB60F9211240BB60F922F933F9315
:1009B0008F939F93AF93BF93EF93FF938091B90071
:1009C00090E0FC013897E135F10508F055C0EE588C
:1009D000FF4FA3C21092C202E091C2028091C402F2
:1009E000E81770F481E08E0F8093C202F0E0EB53C1
:1009F000FD4F80818093BB0085E88093BC0043C09D
:100A00008091C30281608093C30284E98093BC001B
:100A10003AC0E091C20281E08E0F8093C2028091C1
:100A2000BB00F0E0EB53FD4F80832091C20230E029
:100A30008091C40290E001972817390724F485ECCF
:100A40008093BC0020C085E88093BC001CC08091CE
:100A5000BB00E091C202F0E0EB53FD4F8083809138
:100A6000C30281608093C30284E98093BC000BC001
:100A700085EA8093BC0007C08091B900809306028C
:100A800084E08093BC00FF91EF91BF91AF919F9163
:100A90008F913F912F910F900BBE0F900FBE0F9033
:100AA0001F901895E0ECF0E0908195FFFDCF8093CA
:100AB000C6000895E0ECF0E080818823ECF380919B
:100AC000C60008959093C5008093C40088E1809388
:100AD000C1008EE08093C2006AE575E082E595E092
:100AE00022C208955058BB27AA270ED075C166D1DF
:100AF00030F06BD120F031F49F3F11F41EF45BC154
:100B00000EF4E095E7FB51C1E92F77D180F3BA17D6
:100B1000620773078407950718F071F49EF58FC17B
:100B20000EF4E0950B2EBA2FA02D0B01B901900108
:100B30000C01CA01A0011124FF27591B99F0593F4C
:100B400050F4503E68F11A16F040A22F232F342F94
:100B50004427585FF3CF469537952795A795F040E2
:100B60005395C9F77EF41F16BA0B620B730B840BF7
:100B7000BAF09150A1F0FF0FBB1F661F771F881FAF
:100B8000C2F70EC0BA0F621F731F841F48F4879507
:100B900077956795B795F7959E3F08F0B3CF9395F6
:100BA000880F08F09927EE0F979587950895D9D06B
:100BB00008F481E008950CD00FC107D140F0FED0B9
:100BC00030F021F45F3F19F0F0C0511139C1F3C08A
:100BD00014D198F39923C9F35523B1F3951B550B01
:100BE000BB27AA2762177307840738F09F5F5F4F00
:100BF000220F331F441FAA1FA9F333D00E2E3AF041
:100C0000E0E830D091505040E695001CCAF729D05A
:100C1000FE2F27D0660F771F881FBB1F26173707A9
:100C20004807AB07B0E809F0BB0B802DBF01FF27D9
:100C300093585F4F2AF09E3F510568F0B6C000C13F
:100C40005F3FECF3983EDCF3869577956795B79513
:100C5000F7959F5FC9F7880F911D9695879597F92E
:100C60000895E1E0660F771F881FBB1F62177307A7
:100C70008407BA0720F0621B730B840BBA0BEE1FBC
:100C800088F7E095089504D06894B111D9C008950B
:100C9000BCD088F09F5790F0B92F9927B751A0F09A
:100CA000D1F0660F771F881F991F1AF0BA95C9F700
:100CB00012C0B13081F0C3D0B1E00895C0C0672F39
:100CC000782F8827B85F39F0B93FCCF386957795B0
:100CD0006795B395D9F73EF4909580957095619599
:100CE0007F4F8F4F9F4F0895E89409C097FB3EF4C4
:100CF00090958095709561957F4F8F4F9F4F992369
:100D0000A9F0F92F96E9BB279395F69587957795E6
:100D10006795B795F111F8CFFAF4BB0F11F460FFA6
:100D20001BC06F5F7F4F8F4F9F4F16C0882311F0FE
:100D300096E911C0772321F09EE8872F762F05C012
:100D4000662371F096E8862F70E060E02AF09A95AD
:100D5000660F771F881FDAF7880F9695879597F9A2
:100D60000895990F0008550FAA0BE0E8FEEF16163C
:100D70001706E807F907C0F012161306E407F5078F
:100D800098F0621B730B840B950B39F40A2661F003
:100D9000232B242B252B21F408950A2609F4A140A6
:100DA000A6958FEF811D811D089597F99F6780E8B3
:100DB00070E060E008959FEF80EC089500240A94AD
:100DC0001616170618060906089500240A94121626
:100DD0001306140605060895092E0394000C11F459
:100DE000882352F0BB0F40F4BF2B11F460FF04C006
:100DF0006F5F7F4F8F4F9F4F089557FD9058440F5F
:100E0000551F59F05F3F71F04795880F97FB991F69
:100E100061F09F3F79F08795089512161306140626
:100E2000551FF2CF4695F1DF08C0161617061806B3
:100E3000991FF1CF86957105610508940895E8948E
:100E4000BB2766277727CB0197F908958ADF08F437
:100E50008FEF08950BD0C0CFB1DF28F0B6DF18F0C8
:100E6000952309F0A2CFA7CF1124EACFC6DFA0F3C4
:100E7000959FD1F3950F50E0551F629FF001729F2F
:100E8000BB27F00DB11D639FAA27F00DB11DAA1F4E
:100E9000649F6627B00DA11D661F829F2227B00D9B
:100EA000A11D621F739FB00DA11D621F839FA00D26
:100EB000611D221F749F3327A00D611D231F849F76
:100EC000600D211D822F762F6A2F11249F575040CD
:100ED0008AF0E1F088234AF0EE0FFF1FBB1F661F68
:100EE000771F881F91505040A9F79E3F510570F021
:100EF0005CCFA6CF5F3FECF3983EDCF38695779509
:100F00006795B795F795E7959F5FC1F7FE2B880F1B
:100F1000911D9695879597F90895EE0FFF1F0590FF
:100F2000F491E02D19940F931F93CF93DF93EC016D
:100F30008B01009731F46115710519F480E090E0A0
:100F400037C06EE070E081E090E063D2FC01009772
:100F5000A9F380E883830115110571F013870287D7
:100F600081E883838091C9029091CA02892B21F480
:100F7000F093CA02E093C9022097C9F0D187C087D5
:100F80008381826083838091CB029091CC02892BF4
:100F900071F4F093CC02E093CB028091CD0290915A
:100FA000CE02892B21F4F093CE02E093CD02CF0143
:100FB000DF91CF911F910F910895CF93DF93CDB71C
:100FC000DEB7FE01369661917191AF018091CB023F
:100FD0009091CC0230D0DF91CF9108950F931F9361
:100FE000CF93DF93E091CB02F091CC02238121FFDC
:100FF0001BC0EC0100E010E089916091CB02709180
:10100000CC02DB011896ED91FC911997882331F001
:101010001995892B89F30FEF1FEFEECF8AE0199511
:10102000892B11F4C80102C08FEF9FEFDF91CF91A0
:101030001F910F9108952F923F924F925F926F925E
:101040007F928F929F92AF92BF92CF92DF92EF9258
:10105000FF920F931F93CF93DF93CDB7DEB72C97FB
:101060000FB6F894DEBF0FBECDBF7C016B018A01C5
:10107000FC0117821682838181FFB0C1CE010196E7
:101080004C01F7019381F60193FD859193FF8191C6
:101090006F01882309F49EC1853239F493FD85914F
:1010A00093FF81916F01853221F4B70190E00FD356
:1010B000E8CF512C312C20E02032A0F48B3269F0A3
:1010C00030F4803259F0833269F420612CC08D32C3
:1010D00039F0803339F4216026C02260246023C0B7
:1010E000286021C027FD27C030ED380F3A3078F452
:1010F00026FF06C0FAE05F9E300D1124532E13C068
:101100008AE0389E300D1124332E20620CC08E32BE
:1011100021F426FD5FC1206406C08C3611F42068DE
:1011200002C0883641F4F60193FD859193FF8191C9
:101130006F018111C1CF982F9F7D9554933028F472
:101140000C5F1F4FFFE3F9830DC0833631F0833707
:1011500071F0833509F057C021C0F801808189837F
:101160000E5F1F4F44244394512C540114C0380186
:10117000F2E06F0E711CF801A080B18026FF03C061
:10118000652D70E002C06FEF7FEFC5012C8794D210
:101190002C0183012C852F77222E16C03801F2E016
:1011A0006F0E711CF801A080B18026FF03C0652D71
:1011B00070E002C06FEF7FEFC5012C876BD22C016E
:1011C0002C852068222E830123FC19C0832D90E0FA
:1011D00048165906A0F4B70180E290E078D23A941C
:1011E000F5CFF50127FC859127FE81915F01B701BD
:1011F00090E06DD231103A94F1E04F1A5108411449
:10120000510479F7DEC0843611F0893631F5F801E2
:1012100027FF07C060817181828193810C5F1F4F1E
:1012200008C060817181882777FD8095982F0E5FB7
:101230001F4F2F76B22E97FF09C09095809570951D
:1012400061957F4F8F4F9F4F2068B22E2AE030E08C
:10125000A4016FD2A82EA81843C0853729F42F7E89
:10126000B22E2AE030E025C0F22FF97FBF2E8F3654
:10127000C1F018F4883579F0ADC0803719F088379F
:1012800021F0A8C02F2F2061B22EB4FE0DC08B2DEF
:101290008460B82E09C024FF0AC09F2F9660B92E23
:1012A00006C028E030E005C020E130E002C020E1C7
:1012B00032E0F801B7FE07C06081718182819381BD
:1012C0000C5F1F4F06C06081718180E090E00E5F6F
:1012D0001F4FA4012ED2A82EA818FB2DFF77BF2EDA
:1012E000B6FE0BC02B2D2E7FA51450F4B4FE0AC001
:1012F000B2FC08C02B2D2E7E05C07A2C2B2D03C0EE
:101300007A2C01C0752C24FF0DC0FE01EA0DF11DE1
:101310008081803311F4297E09C022FF06C07394B6
:10132000739404C0822F867809F0739423FD12C051
:1013300020FF06C05A2C731418F4530C5718732C42
:10134000731460F4B70180E290E02C87C0D17394ED
:101350002C85F6CF731410F4371801C0312C24FFFC
:1013600011C0B70180E390E02C87B1D12C8522FF1A
:1013700016C021FF03C088E590E002C088E790E036
:10138000B7010CC0822F867851F021FD02C080E2A7
:1013900001C08BE227FD8DE2B70190E098D1A51442
:1013A00030F4B70180E390E092D15A94F8CFAA9438
:1013B000F401EA0DF11D8081B70190E088D1A11000
:1013C000F6CF332009F45DCEB70180E290E07FD103
:1013D0003A94F7CFF7018681978102C08FEF9FEF94
:1013E0002C960FB6F894DEBF0FBECDBFDF91CF9124
:1013F0001F910F91FF90EF90DF90CF90BF90AF9033
:101400009F908F907F906F905F904F903F902F9024
:1014100008950F931F93CF93DF93869F8001879F3B
:10142000100D969F100D1124C8010DD0EC010097EE
:1014300021F0A80160E070E038D1CE01DF91CF91BA
:101440001F910F910895CF93DF938230910510F48F
:1014500082E090E0E091D102F091D20220E030E011
:10146000A0E0B0E0309739F1408151814817590729
:10147000B8F04817590771F482819381109729F0C9
:1014800013969C938E9312972CC09093D2028093C4
:10149000D10227C02115310531F04217530718F04A
:1014A000A901DB0101C0EF019A01BD01DF0102804A
:1014B000F381E02DD7CF21153105F9F0281B390B29
:1014C0002430310580F48A819B816115710521F0FA
:1014D000FB019383828304C09093D2028093D10254
:1014E000FE01329644C0FE01E20FF31F81939193F7
:1014F00022503109398328833AC02091CF0230919C
:10150000D002232B41F42091020230910302309348
:10151000D0022093CF0220910002309101022115C8
:10152000310541F42DB73EB74091040250910502B8
:10153000241B350BE091CF02F091D002E217F307A4
:10154000A0F42E1B3F0B2817390778F0AC014E5F33
:101550005F4F2417350748F04E0F5F1F5093D0029E
:101560004093CF028193919302C0E0E0F0E0CF017D
:10157000DF91CF910895CF93DF93009709F487C04F
:10158000FC01329713821282C091D102D091D20213
:10159000209781F420813181280F391F8091CF025B
:1015A0009091D0028217930779F5F093D002E093DF
:1015B000CF026DC0DE0120E030E0AE17BF0750F46F
:1015C00012964D915C9113979D014115510509F1BA
:1015D000DA01F3CFB383A28340815181840F951F39
:1015E0008A179B0771F48D919C911197840F951F19
:1015F00002969183808312968D919C911397938389
:1016000082832115310529F4F093D202E093D102AF
:101610003EC0D9011396FC93EE9312974D915D91C4
:10162000A40FB51FEA17FB0779F480819181840F1D
:10163000951F0296D90111969C938E938281938176
:1016400013969C938E931297E0E0F0E08A819B8141
:10165000009719F0FE01EC01F9CFCE010296288126
:101660003981820F931F2091CF023091D002281729
:10167000390769F4309729F41092D2021092D102FE
:1016800002C013821282D093D002C093CF02DF91A6
:10169000CF910895FC010590615070400110D8F77A
:1016A000809590958E0F9F1F0895DC0101C06D936A
:1016B00041505040E0F70895FC01615070400190A6
:1016C0000110D8F7809590958E0F9F1F08950F9366
:1016D0001F93CF93DF93182F092FEB018B8181FD8F
:1016E00003C08FEF9FEF20C082FF10C04E815F814B
:1016F0002C813D81421753077CF4E881F9819F01D9
:101700002F5F3F4F39832883108306C0E885F98512
:10171000812F1995892B29F72E813F812F5F3F4F0C
:101720003F832E83812F902FDF91CF911F910F91B7
:101730000895FA01AA27283051F1203181F1E89467
:101740006F936E7F6E5F7F4F8F4F9F4FAF4FB1E0B4
:101750003ED0B4E03CD0670F781F891F9A1FA11DAF
:10176000680F791F8A1F911DA11D6A0F711D811DB0
:10177000911DA11D20D009F468943F912AE0269F75
:1017800011243019305D3193DEF6CF010895462FD4
:101790004770405D4193B3E00FD0C9F7F6CF462FB5
:1017A0004F70405D4A3318F0495D31FD405241931E
:1017B00002D0A9F7EACFB4E0A695979587957795DB
:1017C0006795BA95C9F700976105710508959B0162
:1017D000AC010A2E06945795479537952795BA95EB
:1017E000C9F7620F731F841F951FA01D0895F894F9
:0217F000FFCF29
:1017F2000000D3022000F84D4350323531352069C4
:1018020073204E4F5420696E20636F727265637449
:10181200206D6F6465206166746572207265736500
:1018220074212049747320636F6E66696720626950
:101832007473206172652025780A00696E206D6FCD
:101842006465206E6F726D616C200A0D0063616EBB
:10185200206D6573736167652073656E642025640E
:101862000043414E494E5446206F75742025642032
:101872000A0D007374617274200A0D20000A0D2093
:1018820073686F74200A0D007269676874200A0D0C
:10189200006C656674200A0D007220202564200AFF
:0E18A200200D200A0D00752020256420000076
:00000001FF
