S018000070696E675F706F6E675F6E6F64655F322E73726563B5
S113000071C000008EC000008CC000008AC00000D7
S113001088C0000086C0000084C0000082C00000C8
S113002080C000007EC000007CC000007AC00000D8
S113003078C0000076C0000074C0000072C00000E8
S113004070C000006EC000006CC000006AC00000F8
S113005068C0000066C0000064C0000062C0000008
S113006060C000005EC000005CC000005AC0000018
S113007058C0000056C0000054C0000052C0000028
S113008050C000004EC000004CC000004AC0000038
S113009048C0000046C0000044C0000042C0000048
S11300A040C000003EC000003CC000003AC0000058
S11300B038C0000036C0000034C0000032C0000068
S11300C030C000002EC000002CC000002AC0000078
S11300D028C0000026C0000024C0000022C0000088
S11300E020C0000011241FBECFEFD1E2DEBFCDBF80
S11300F000E00CBF13E0A0E0B2E0E4EEFDE000E0BD
S11301000BBF02C007900D92A038B107D9F723E0C6
S1130110A0E8B3E001C01D92AA38B207E1F7F2D01B
S11301205FC66ECFCF93DF93CDB7DEB72A970FB6F6
S1130130F894DEBF0FBECDBF3CD141E060E680E65F
S11301405AD18FEF9FE80197F1F700C0000041E01A
S113015061E08BE266D18FEF9FE80197F1F700C071
S1130160000040E060EE8FE05CD18FEF9FE80197E4
S1130170F1F700C000004AE0BE016F5F7F4F8EE0E0
S11301801BD18981807E99F01F928F938EEC92E02F
S11301909F938F930BD28DE793E09F938F9306D217
S11301A00F900F900F900F900F900F9007C082E167
S11301B093E09F938F93FAD10F900F902A960FB6E6
S11301C0F894DEBF0FBECDBFDF91CF910895FF92AB
S11301D00F931F93CF93DF93CDB7DEB72A970FB654
S11301E0F894DEBF0FBECDBF8C01F62E41E0BE01F8
S11301F06F5F7F4F8CE2E0D0898181110BC01F9229
S11302001F9228E333E03F932F93D0D10F900F90A8
S11302100F900F9041E0BE016F5F7F4F85E68F0D19
S1130220CBD08981F801828341E0BE016F5F7F4FAB
S113023081E68F0DC1D0298130E0F801318320831C
S11302404281BE016F5F7F4F86E68F0DB5D0F80106
S11302509281992361F09E012F5F3F4FD80113963D
S1130260F90181918D938E2F821B8917D0F340E081
S113027061E08CE2D6D02A960FB6F894DEBF0FBEAA
S1130280CDBFDF91CF911F910F91FF9008950F93F0
S11302901F93CF93DF93CDB7DEB72A970FB6F894A9
S11302A0DEBF0FBECDBF8C0141E0BE016F5F7F4F4B
S11302B08CE282D0898180FF0BC060E070E0C801CD
S11302C086DF40E061E08CE2ACD081E090E00FC0DA
S11302D081FF0BC061E070E0C80179DF40E062E0BB
S11302E08CE29FD081E090E002C080E090E02A960A
S11302F00FB6F894DEBF0FBECDBFDF91CF911F9133
S11303000F910895CF93DF93CDB7DEB7C55DD109C3
S11303100FB6F894DEBF0FBECDBF87E690E0ECD0F9
S11303208AE493E054D1FEDE83E090E09A838983EB
S113033081E08B8388ECE6E0F2E0DE011E9601901A
S11303400D928A95E1F70F2EF8E2FF2EF02D04E5C9
S113035013E0CE0101969BDF892B99F08C812EE06E
S113036030E02C0F3D1FF89E200D311D1124C901D2
S11303709F932F931F930F9319D10F900F900F906A
S11303800F9083ED90E30197F1F700C00000E1CFF7
S1130390CF93DF931F92CDB7DEB72F9880EC89837C
S11303A061E0CE01019684D02F9A0F90DF91CF9116
S11303B008954FD0EDCF0895FF920F931F93CF93DD
S11303C0DF931F921F92CDB7DEB78B01F42E2F98C7
S11303D093E099838A8362E0CE01019669D06F2D00
S11303E0C80140D02F9A0F900F90DF91CF911F91A9
S11303F00F91FF900895CF93DF9300D0CDB7DEB770
S11304002F9892E099838A836B8362E0640FCE0114
S113041001964ED02F9A0F900F900F90DF91CF91AD
S11304200895CF93DF9300D01F92CDB7DEB72F98F6
S113043095E099838A836B834C8364E0CE010196B3
S113044037D02F9A0F900F900F900F90DF91CF918C
S1130450089584B1876884B985B1816885B981E5D7
S11304608CBD0895CF93DF93CDB7DEB72A970FB62F
S1130470F894DEBF0FBECDBF662389F0FE0131962E
S1130480A82FB92FCF01860F911D21912EBD0DB438
S113049007FEFDCF2EB52D93E817F907B1F72A967D
S11304A00FB6F894DEBF0FBECDBFDF91CF91089594
S11304B0262F30E01216130674F4E82FF92F80E08B
S11304C090E041914EBD0DB407FEFDCF4EB50196AF
S11304D082179307B4F30895E0ECF0E0908195FF60
S11304E0FDCF8093C6000895E0ECF0E0808188237E
S11304F0ECF38091C60008959093C5008093C400E6
S113050088E18093C1008EE08093C20064E772E0CA
S11305108CE692E001C008950F931F93CF93DF936D
S1130520EC018B01009731F46115710519F480E039
S113053090E037C06EE070E081E090E063D2FC01AF
S11305400097A9F380E883830115110571F01387DF
S1130550028781E883838091800390918103892BB2
S113056021F4F0938103E09380032097C9F0D187AD
S1130570C087838182608383809182039091830307
S1130580892B71F4F0938303E093820380918403B5
S113059090918503892B21F4F0938503E0938403E0
S11305A0CF01DF91CF911F910F910895CF93DF93E6
S11305B0CDB7DEB7FE01369661917191AF0180919E
S11305C082039091830330D0DF91CF9108950F93EC
S11305D01F93CF93DF93E0918203F09183032381F0
S11305E021FF1BC0EC0100E010E0899160918203BF
S11305F070918303DB011896ED91FC911997882380
S113060031F01995892B89F30FEF1FEFEECF8AE0B4
S11306101995892B11F4C80102C08FEF9FEFDF9168
S1130620CF911F910F9108952F923F924F925F9215
S11306306F927F928F929F92AF92BF92CF92DF92EE
S1130640EF92FF920F931F93CF93DF93CDB7DEB753
S11306502C970FB6F894DEBF0FBECDBF7C016B01A3
S11306608A01FC0117821682838181FFB0C1CE0109
S113067001964C01F7019381F60193FD859193FF57
S113068081916F01882309F49EC1853239F493FD69
S1130690859193FF81916F01853221F4B70190E038
S11306A00FD3E8CF512C312C20E02032A0F48B3230
S11306B069F030F4803259F0833269F420612CC03F
S11306C08D3239F0803339F4216026C022602460F1
S11306D023C0286021C027FD27C030ED380F3A30F1
S11306E078F426FF06C0FAE05F9E300D1124532EE5
S11306F013C08AE0389E300D1124332E20620CC0C2
S11307008E3221F426FD5FC1206406C08C3611F4BC
S1130710206802C0883641F4F60193FD859193FF69
S113072081916F018111C1CF982F9F7D9554933092
S113073028F40C5F1F4FFFE3F9830DC0833631F0BB
S1130740833771F0833509F057C021C0F8018081E7
S113075089830E5F1F4F44244394512C540114C0C9
S11307603801F2E06F0E711CF801A080B18026FF01
S113077003C0652D70E002C06FEF7FEFC5012C87C9
S113078094D22C0183012C852F77222E16C0380198
S1130790F2E06F0E711CF801A080B18026FF03C047
S11307A0652D70E002C06FEF7FEFC5012C876BD21F
S11307B02C012C852068222E830123FC19C0832D53
S11307C090E048165906A0F4B70180E290E078D290
S11307D03A94F5CFF50127FC859127FE81915F01BD
S11307E0B70190E06DD231103A94F1E04F1A5108FC
S11307F04114510479F7DEC0843611F0893631F59D
S1130800F80127FF07C060817181828193810C5FA9
S11308101F4F08C060817181882777FD8095982FCC
S11308200E5F1F4F2F76B22E97FF09C090958095CB
S1130830709561957F4F8F4F9F4F2068B22E2AE0AD
S113084030E0A4016FD2A82EA81843C0853729F43C
S11308502F7EB22E2AE030E025C0F22FF97FBF2E82
S11308608F36C1F018F4883579F0ADC0803719F0AF
S1130870883721F0A8C02F2F2061B22EB4FE0DC0FE
S11308808B2D8460B82E09C024FF0AC09F2F966068
S1130890B92E06C028E030E005C020E130E002C0F7
S11308A020E132E0F801B7FE07C0608171818281E6
S11308B093810C5F1F4F06C06081718180E090E0DE
S11308C00E5F1F4FA4012ED2A82EA818FB2DFF7770
S11308D0BF2EB6FE0BC02B2D2E7FA51450F4B4FEF4
S11308E00AC0B2FC08C02B2D2E7E05C07A2C2B2DFD
S11308F003C07A2C01C0752C24FF0DC0FE01EA0D43
S1130900F11D8081803311F4297E09C022FF06C0C5
S11309107394739404C0822F867809F0739423FD32
S113092012C020FF06C05A2C731418F4530C571825
S1130930732C731460F4B70180E290E02C87C0D16B
S113094073942C85F6CF731410F4371801C0312C2E
S113095024FF11C0B70180E390E02C87B1D12C852E
S113096022FF16C021FF03C088E590E002C088E79B
S113097090E0B7010CC0822F867851F021FD02C0AF
S113098080E201C08BE227FD8DE2B70190E098D1AF
S1130990A51430F4B70180E390E092D15A94F8CFD3
S11309A0AA94F401EA0DF11D8081B70190E088D189
S11309B0A110F6CF332009F45DCEB70180E290E0B8
S11309C07FD13A94F7CFF7018681978102C08FEFE8
S11309D09FEF2C960FB6F894DEBF0FBECDBFDF910C
S11309E0CF911F910F91FF90EF90DF90CF90BF9028
S11309F0AF909F908F907F906F905F904F903F90BB
S1130A002F9008950F931F93CF93DF93869F8001B8
S1130A10879F100D969F100D1124C8010DD0EC0175
S1130A20009721F0A80160E070E038D1CE01DF9199
S1130A30CF911F910F910895CF93DF938230910549
S1130A4010F482E090E0E0918803F091890320E0C3
S1130A5030E0A0E0B0E0309739F14081518148178F
S1130A605907B8F04817590771F482819381109798
S1130A7029F013969C938E9312972CC0909389031C
S1130A808093880327C02115310531F0421753079D
S1130A9018F0A901DB0101C0EF019A01BD01DF01DA
S1130AA00280F381E02DD7CF21153105F9F0281B01
S1130AB0390B2430310580F48A819B8161157105DD
S1130AC021F0FB019383828304C090938903809374
S1130AD08803FE01329644C0FE01E20FF31F8193A6
S1130AE0919322503109398328833AC02091860397
S1130AF030918703232B41F42091020230910302A9
S1130B0030938703209386032091000230910102E1
S1130B102115310541F42DB73EB74091040250919F
S1130B200502241B350BE0918603F0918703E2173D
S1130B30F307A0F42E1B3F0B2817390778F0AC01FC
S1130B404E5F5F4F2417350748F04E0F5F1F5093D9
S1130B508703409386038193919302C0E0E0F0E021
S1130B60CF01DF91CF910895CF93DF93009709F4DC
S1130B7087C0FC01329713821282C0918803D091FE
S1130B808903209781F420813181280F391F8091B6
S1130B908603909187038217930779F5F09387036F
S1130BA0E09386036DC0DE0120E030E0AE17BF079E
S1130BB050F412964D915C9113979D014115510586
S1130BC009F1DA01F3CFB383A28340815181840F09
S1130BD0951F8A179B0771F48D919C911197840F2F
S1130BE0951F02969183808312968D919C91139701
S1130BF0938382832115310529F4F0938903E093CB
S1130C0088033EC0D9011396FC93EE9312974D913D
S1130C105D91A40FB51FEA17FB0779F480819181D8
S1130C20840F951F0296D90111969C938E9382810D
S1130C30938113969C938E931297E0E0F0E08A815F
S1130C409B81009719F0FE01EC01F9CFCE010296C9
S1130C5028813981820F931F209186033091870365
S1130C602817390769F4309729F4109289031092F0
S1130C70880302C013821282D0938703C093860331
S1130C80DF91CF910895FC010590615070400110EF
S1130C90D8F7809590958E0F9F1F0895DC0101C0B1
S1130CA06D9341505040E0F70895FC01615070404D
S1130CB001900110D8F7809590958E0F9F1F08958D
S1130CC00F931F93CF93DF93182F092FEB018B8181
S1130CD081FD03C08FEF9FEF20C082FF10C04E81C3
S1130CE05F812C813D81421753077CF4E881F981AF
S1130CF09F012F5F3F4F39832883108306C0E88507
S1130D00F985812F1995892B29F72E813F812F5F32
S1130D103F4F3F832E83812F902FDF91CF911F91DF
S1130D200F910895FA01AA27283051F1203181F159
S1130D30E8946F936E7F6E5F7F4F8F4F9F4FAF4FDF
S1130D40B1E03ED0B4E03CD0670F781F891F9A1FF2
S1130D50A11D680F791F8A1F911DA11D6A0F711DA6
S1130D60811D911DA11D20D009F468943F912AE0B2
S1130D70269F11243019305D3193DEF6CF0108959A
S1130D80462F4770405D4193B3E00FD0C9F7F6CFCB
S1130D90462F4F70405D4A3318F0495D31FD405293
S1130DA0419302D0A9F7EACFB4E0A6959795879529
S1130DB077956795BA95C9F7009761057105089508
S1130DC09B01AC010A2E06945795479537952795B4
S1130DD0BA95C9F7620F731F841F951FA01D08954C
S1070DE0F894FFCFB1
S1130DE400008A0320004C656674000000000000C3
S1130DF400000000000000000000000000000000EB
S1130E04000000000000000000000000000052691F
S1130E146768740000000000000000000000000087
S1130E2400000000000000000000000000000000BA
S1130E3400000000000055700000000000000000E5
S1130E44000000000000000000000000000000009A
S1130E540000000000000000000000000000446FD7
S1130E64776E000000000000000000000000000095
S1130E74000000000000000000000000000000006A
S1130E840000000000004E65757472616C0000007F
S1130E94000000000000000000000000000000004A
S1130EA400000000000000000000000000004D43AA
S1130EB45032353135206973204E4F5420696E20E9
S1130EC4636F7272656374206D6F64652061667408
S1130ED46572207265736574212049747320636F8D
S1130EE46E6669672062697473206172652025786F
S1130EF40A00696E206D6F6465206E6F726D616C9B
S1130F04200A0D0063616E206D657373616765204B
S1130F1473656E642025640043414E494E54462053
S1130F246F7574202564200A0D0073746172742033
S1130F340A0D200041746D656761323536302072C4
S1130F44656365697665642061206E6577206D65E7
S1130F547373616765202573200A200D200A0D0030
S9030000FC
