:10000000C2C00000E0C00000DEC00000DCC0000094
:10001000DAC00000D8C00000D6C00000D4C0000084
:10002000D2C00000D0C00000CEC00000CCC0000094
:10003000CAC00000C8C00000C6C00000C4C00000A4
:10004000C2C00000C0C00000BEC00000BCC00000B4
:10005000BAC00000B8C00000B6C00000B4C00000C4
:10006000B2C00000B0C00000AEC00000ACC00000D4
:10007000AAC00000A8C00000A6C00000A4C00000E4
:10008000A2C00000A0C000009EC000009CC00000F4
:100090009AC0000098C0000096C00000B5C30000E0
:1000A00092C0000090C000008EC000008CC0000014
:1000B0008AC0000088C0000086C0000084C0000024
:1000C00082C0000080C000007EC000007CC0000034
:1000D0007AC0000078C0000076C0000074C0000044
:1000E00072C000001F047104710471047104710472
:1000F000710471041F0471047104710471047104AA
:100100007104710421047104710471047104710497
:100110007104710471047104710471047104710437
:100120007104710421047104710471047104710477
:100130007104710471047104710471047104710417
:10014000710471046D04710471047104710471040B
:10015000710471044A04710471047104710471041E
:1001600071047104710471047104710471047104E7
:10017000710471043E04710471047104710471040A
:10018000710471045C0411241FBECFEFD1E2DEBF05
:10019000CDBF00E00CBF12E0A0E0B2E0E4E4F2E189
:1001A00000E00BBF02C007900D92AA39B107D9F742
:1001B00022E0AAE9B2E001C01D92AF3AB207E1F72E
:1001C00015D10C9420091CCFEAE7F0E0808187600C
:1001D00080838081806880830895ECE7F0E08081EF
:1001E00080688083EAE7F0E080818064808380819A
:1001F00086FDFDCF209178003091790081E090E07C
:10020000283C310510F480E090E00895CF93DF930F
:10021000CDB7DEB72A970FB6F894DEBF0FBECDBFBD
:1002200028D141E060E680E646D18FEF9FE8019754
:10023000F1F700C0000041E061E08BE252D18FEFA6
:100240009FE80197F1F700C0000040E060EE8FE00A
:1002500048D18FEF9FE80197F1F700C000004AE016
:10026000BE016F5F7F4F8EE007D18981807E99F05C
:100270001F928F9387E092E09F938F93C7D387E974
:1002800092E09F938F93C2D30F900F900F900F9097
:100290000F900F9007C08BE492E09F938F93B6D39B
:1002A0000F900F902A960FB6F894DEBF0FBECDBF09
:1002B000DF91CF910895FF920F931F93CF93DF9318
:1002C000CDB7DEB72A970FB6F894DEBF0FBECDBF0D
:1002D0008C01F62E41E0BE016F5F7F4F8CE2CCD0E7
:1002E000898181110BC01F921F9221E732E03F9359
:1002F0002F938CD30F900F900F900F9041E0BE0181
:100300006F5F7F4F85E68F0DB7D08981F8018283BB
:1003100041E0BE016F5F7F4F81E68F0DADD0298137
:1003200030E0F801318320834281BE016F5F7F4F4F
:1003300086E68F0DA1D0F8019281992361F09E018C
:100340002F5F3F4FD8011396F90181918D938E2F26
:10035000821B8917D0F340E061E08CE2C2D02A967C
:100360000FB6F894DEBF0FBECDBFDF91CF911F91C6
:100370000F91FF9008950F931F93CF93DF93CDB705
:10038000DEB72A970FB6F894DEBF0FBECDBF8C0143
:1003900041E0BE016F5F7F4F8CE26ED0898180FFAC
:1003A0000BC060E070E0C80186DF40E061E08CE2F5
:1003B00098D081E090E00FC081FF0BC061E070E059
:1003C000C80179DF40E062E08CE28BD081E090E010
:1003D00002C080E090E02A960FB6F894DEBF0FBE10
:1003E000CDBFDF91CF911F910F910895CF93DF93F0
:1003F000CDB7DEB72D970FB6F894DEBF0FBECDBFD9
:1004000087E690E094D283E892E011D3FFDE83E0A8
:1004100090E09A83898381E08B8383E68C8366D125
:10042000D3DEDBDEDADE789487D02FEF87EA91E641
:10043000215080409040E1F700C00000D3D0CE01B1
:10044000019699DF892B11F08C81D9D096D0F7CF06
:10045000CF93DF931F92CDB7DEB72F9880EC8983BF
:1004600061E0CE01019690D12F9A0F90DF91CF914C
:1004700008955BD1EDCF0895FF920F931F93CF9313
:10048000DF931F921F92CDB7DEB78B01F42E2F980A
:1004900093E099838A8362E0CE01019675D16F2D36
:1004A000C8014CD12F9A0F900F90DF91CF911F91DF
:1004B0000F91FF900895CF93DF9300D0CDB7DEB7B3
:1004C0002F9892E099838A836B8362E0640FCE0158
:1004D00001965AD12F9A0F900F900F90DF91CF91E4
:1004E0000895CF93DF9300D01F92CDB7DEB72F983A
:1004F00095E099838A836B834C8364E0CE010196F7
:1005000043D12F9A0F900F900F900F90DF91CF91C2
:100510000895CF93DF9300D0CDB7DEB790E59983F0
:100520001A828B8364E0CE0101964CD10F900F901C
:100530000F90DF91CF9108953BD1E1E0F1E0808110
:100540008A678083E2E0F1E080818260808380813D
:10055000806180831092070180E5DBCF08958823B6
:1005600031F0E2E0F1E08081826080830895E2E092
:10057000F1E080818D7F80830895CF93DF9300D059
:100580001F92CDB7DEB7E2E0F1E080818F7D8083FE
:100590008081877F808387E893E10197F1F700C02E
:1005A0000000809106018C8380818860808387E8C9
:1005B00093E10197F1F700C00000809106018B8361
:1005C0008081806280832C818B8190E0922B9A8342
:1005D000898389819A810F900F900F900F90DF91FE
:1005E000CF910895E2E0F1E080818F7B808382E407
:1005F0008A95F1F700C080818064808308950F930D
:100600001F93CF93DF93C82FB8DFC195D0E08851F7
:1006100091404FEF489F9001499F300D112436952E
:1006200027953695279536952795A5EFB1E295D173
:10063000880F892F881F990B9195C81BD90BDF93C1
:10064000CF938DE892E09F938F93E0D120919A020F
:1006500030919B022C0F3D1F30939B0220939A02F6
:100660003F77A1E1B2E479D19695879596958795E4
:10067000969587959E01220F331F8C01020F131F41
:10068000D0939D02C0939C020F900F900F900F90FB
:100690001C161D061CF480E062DF05C081E05FDFF0
:1006A000119501951109C8010536110514F084E66C
:1006B00090E08530910514F480E090E02ADFDF912E
:1006C000CF911F910F910895E1E8F0E08081826061
:1006D000808380818B7F808380818E7F808380E494
:1006E0009CE990938700809386000895E1E8F0E00C
:1006F000808180618083808188608083E0E8F0E091
:1007000080818260808380818E7F80838081806809
:10071000808380818F7B8083D7DF259A88EB9BE065
:100720009093890080938800089584B1876884B984
:1007300085B1816885B981E58CBD0895CF93DF933C
:10074000CDB7DEB72A970FB6F894DEBF0FBECDBF88
:10075000662389F0FE013196A82FB92FCF01860FAD
:10076000911D21912EBD0DB407FEFDCF2EB52D9309
:10077000E817F907B1F72A960FB6F894DEBF0FBE57
:10078000CDBFDF91CF910895262F30E012161306CA
:1007900074F4E82FF92F80E090E041914EBD0DB444
:1007A00007FEFDCF4EB5019682179307B4F3089567
:1007B0008CE08093B8008FEF8093BB0084E080933F
:1007C000BC000895ECEBF0E0208120FDFDCF6093AC
:1007D000A002FC0120812093A10220FD0CC0623008
:1007E00050F0DC011196E2EAF2E081E09D919193F4
:1007F0008F5F8613FBCF10929F0288EF80930602D3
:1008000085EA8093BC0008951F920F920FB60F9255
:1008100011240BB60F922F933F938F939F93AF9317
:10082000BF93EF93FF938091B90090E0FC0138975C
:10083000E135F10508F055C0EE58FF4F88C0109221
:100840009E02E0919E028091A002E81770F481E080
:100850008E0F80939E02F0E0EF55FD4F80818093D4
:10086000BB0085E88093BC0043C080919F028160FB
:1008700080939F0284E98093BC003AC0E0919E027D
:1008800081E08E0F80939E028091BB00F0E0EF55D7
:10089000FD4F808320919E0230E08091A00290E085
:1008A00001972817390724F485EC8093BC0020C0F9
:1008B00085E88093BC001CC08091BB00E0919E0243
:1008C000F0E0EF55FD4F808380919F02816080931F
:1008D0009F0284E98093BC000BC085EA8093BC0032
:1008E00007C08091B9008093060284E08093BC0029
:1008F000FF91EF91BF91AF919F918F913F912F9178
:100900000F900BBE0F900FBE0F901F901895E0EC4C
:10091000F0E0908195FFFDCF8093C6000895E0EC54
:10092000F0E080818823ECF38091C60008959093D5
:10093000C5008093C40088E18093C1008EE080935D
:10094000C2006FE874E087E894E016C00895EE0FE7
:10095000FF1F0590F491E02D1994A29FB001B39F61
:10096000C001A39F700D811D1124911DB29F700DB8
:10097000811D1124911D08950F931F93CF93DF9331
:10098000EC018B01009731F46115710519F480E0D9
:1009900090E037C06EE070E081E090E063D2FC014F
:1009A0000097A9F380E883830115110571F013877F
:1009B000028781E883838091A5029091A602892B0A
:1009C00021F4F093A602E093A5022097C9F0D18705
:1009D000C0878381826083838091A7029091A8025F
:1009E000892B71F4F093A802E093A7028091A902E9
:1009F0009091AA02892B21F4F093AA02E093A90214
:100A0000CF01DF91CF911F910F910895CF93DF9385
:100A1000CDB7DEB7FE01369661917191AF0180913D
:100A2000A7029091A80230D0DF91CF9108950F9343
:100A30001F93CF93DF93E091A702F091A802238147
:100A400021FF1BC0EC0100E010E089916091A7023A
:100A50007091A802DB011896ED91FC9119978823FB
:100A600031F01995892B89F30FEF1FEFEECF8AE054
:100A70001995892B11F4C80102C08FEF9FEFDF9108
:100A8000CF911F910F9108952F923F924F925F92B5
:100A90006F927F928F929F92AF92BF92CF92DF928E
:100AA000EF92FF920F931F93CF93DF93CDB7DEB7F3
:100AB0002C970FB6F894DEBF0FBECDBF7C016B0143
:100AC0008A01FC0117821682838181FFB0C1CE01A9
:100AD00001964C01F7019381F60193FD859193FFF7
:100AE00081916F01882309F49EC1853239F493FD09
:100AF000859193FF81916F01853221F4B70190E0D8
:100B00000FD3E8CF512C312C20E02032A0F48B32CF
:100B100069F030F4803259F0833269F420612CC0DE
:100B20008D3239F0803339F4216026C02260246090
:100B300023C0286021C027FD27C030ED380F3A3090
:100B400078F426FF06C0FAE05F9E300D1124532E84
:100B500013C08AE0389E300D1124332E20620CC061
:100B60008E3221F426FD5FC1206406C08C3611F45C
:100B7000206802C0883641F4F60193FD859193FF09
:100B800081916F018111C1CF982F9F7D9554933032
:100B900028F40C5F1F4FFFE3F9830DC0833631F05B
:100BA000833771F0833509F057C021C0F801808187
:100BB00089830E5F1F4F44244394512C540114C069
:100BC0003801F2E06F0E711CF801A080B18026FFA1
:100BD00003C0652D70E002C06FEF7FEFC5012C8769
:100BE00094D22C0183012C852F77222E16C0380138
:100BF000F2E06F0E711CF801A080B18026FF03C0E7
:100C0000652D70E002C06FEF7FEFC5012C876BD2BE
:100C10002C012C852068222E830123FC19C0832DF2
:100C200090E048165906A0F4B70180E290E078D22F
:100C30003A94F5CFF50127FC859127FE81915F015C
:100C4000B70190E06DD231103A94F1E04F1A51089B
:100C50004114510479F7DEC0843611F0893631F53C
:100C6000F80127FF07C060817181828193810C5F49
:100C70001F4F08C060817181882777FD8095982F6C
:100C80000E5F1F4F2F76B22E97FF09C0909580956B
:100C9000709561957F4F8F4F9F4F2068B22E2AE04D
:100CA00030E0A4016FD2A82EA81843C0853729F4DC
:100CB0002F7EB22E2AE030E025C0F22FF97FBF2E22
:100CC0008F36C1F018F4883579F0ADC0803719F04F
:100CD000883721F0A8C02F2F2061B22EB4FE0DC09E
:100CE0008B2D8460B82E09C024FF0AC09F2F966008
:100CF000B92E06C028E030E005C020E130E002C097
:100D000020E132E0F801B7FE07C060817181828185
:100D100093810C5F1F4F06C06081718180E090E07D
:100D20000E5F1F4FA4012ED2A82EA818FB2DFF770F
:100D3000BF2EB6FE0BC02B2D2E7FA51450F4B4FE93
:100D40000AC0B2FC08C02B2D2E7E05C07A2C2B2D9C
:100D500003C07A2C01C0752C24FF0DC0FE01EA0DE2
:100D6000F11D8081803311F4297E09C022FF06C065
:100D70007394739404C0822F867809F0739423FDD2
:100D800012C020FF06C05A2C731418F4530C5718C5
:100D9000732C731460F4B70180E290E02C87C0D10B
:100DA00073942C85F6CF731410F4371801C0312CCE
:100DB00024FF11C0B70180E390E02C87B1D12C85CE
:100DC00022FF16C021FF03C088E590E002C088E73B
:100DD00090E0B7010CC0822F867851F021FD02C04F
:100DE00080E201C08BE227FD8DE2B70190E098D14F
:100DF000A51430F4B70180E390E092D15A94F8CF73
:100E0000AA94F401EA0DF11D8081B70190E088D128
:100E1000A110F6CF332009F45DCEB70180E290E057
:100E20007FD13A94F7CFF7018681978102C08FEF87
:100E30009FEF2C960FB6F894DEBF0FBECDBFDF91AB
:100E4000CF911F910F91FF90EF90DF90CF90BF90C7
:100E5000AF909F908F907F906F905F904F903F905A
:100E60002F9008950F931F93CF93DF93869F800158
:100E7000879F100D969F100D1124C8010DD0EC0115
:100E8000009721F0A80160E070E038D1CE01DF9139
:100E9000CF911F910F910895CF93DF9382309105E9
:100EA00010F482E090E0E091AD02F091AE0220E01B
:100EB00030E0A0E0B0E0309739F14081518148172F
:100EC0005907B8F04817590771F482819381109738
:100ED00029F013969C938E9312972CC09093AE0298
:100EE0008093AD0227C02115310531F04217530719
:100EF00018F0A901DB0101C0EF019A01BD01DF017A
:100F00000280F381E02DD7CF21153105F9F0281BA0
:100F1000390B2430310580F48A819B81611571057C
:100F200021F0FB019383828304C09093AE028093EF
:100F3000AD02FE01329644C0FE01E20FF31F819321
:100F4000919322503109398328833AC02091AB0212
:100F50003091AC02232B41F4209102023091030224
:100F60003093AC022093AB02209100023091010239
:100F70002115310541F42DB73EB74091040250913F
:100F80000502241B350BE091AB02F091AC02E21795
:100F9000F307A0F42E1B3F0B2817390778F0AC019C
:100FA0004E5F5F4F2417350748F04E0F5F1F509379
:100FB000AC024093AB028193919302C0E0E0F0E079
:100FC000CF01DF91CF910895CF93DF93009709F47C
:100FD00087C0FC01329713821282C091AD02D0917A
:100FE000AE02209781F420813181280F391F809132
:100FF000AB029091AC028217930779F5F093AC02A3
:10100000E093AB026DC0DE0120E030E0AE17BF0719
:1010100050F412964D915C9113979D014115510525
:1010200009F1DA01F3CFB383A28340815181840FA8
:10103000951F8A179B0771F48D919C911197840FCE
:10104000951F02969183808312968D919C911397A0
:10105000938382832115310529F4F093AE02E09346
:10106000AD023EC0D9011396FC93EE9312974D91B9
:101070005D91A40FB51FEA17FB0779F48081918178
:10108000840F951F0296D90111969C938E938281AD
:10109000938113969C938E931297E0E0F0E08A81FF
:1010A0009B81009719F0FE01EC01F9CFCE01029669
:1010B00028813981820F931F2091AB023091AC02BD
:1010C0002817390769F4309729F41092AE0210926C
:1010D000AD0202C013821282D093AC02C093AB0265
:1010E000DF91CF910895FC0105906150704001108F
:1010F000D8F7809590958E0F9F1F0895DC0101C051
:101100006D9341505040E0F70895FC0161507040EC
:1011100001900110D8F7809590958E0F9F1F08952C
:101120000F931F93CF93DF93182F092FEB018B8120
:1011300081FD03C08FEF9FEF20C082FF10C04E8162
:101140005F812C813D81421753077CF4E881F9814E
:101150009F012F5F3F4F39832883108306C0E885A6
:10116000F985812F1995892B29F72E813F812F5FD2
:101170003F4F3F832E83812F902FDF91CF911F917F
:101180000F910895FA01AA27283051F1203181F1F9
:10119000E8946F936E7F6E5F7F4F8F4F9F4FAF4F7F
:1011A000B1E03ED0B4E03CD0670F781F891F9A1F92
:1011B000A11D680F791F8A1F911DA11D6A0F711D46
:1011C000811D911DA11D20D009F468943F912AE052
:1011D000269F11243019305D3193DEF6CF0108953A
:1011E000462F4770405D4193B3E00FD0C9F7F6CF6B
:1011F000462F4F70405D4A3318F0495D31FD405233
:10120000419302D0A9F7EACFB4E0A69597958795C8
:1012100077956795BA95C9F70097610571050895A7
:101220009B01AC010A2E0694579547953795279553
:10123000BA95C9F7620F731F841F951FA01D0895EB
:04124000F894FFCF50
:101244000000AF022000F84D43503235313520699B
:1012540073204E4F5420696E20636F7272656374FD
:10126400206D6F64652061667465722072657365B4
:1012740074212049747320636F6E66696720626904
:101284007473206172652025780A00696E206D6F81
:101294006465206E6F726D616C200A0D0063616E6F
:1012A400206D6573736167652073656E64202564C2
:1012B4000043414E494E5446206F757420256420E6
:1012C4000A0D007374617274200A0D2000652020D9
:0A12D4002564200A200D200A0D00F9
:00000001FF
