S015000050696E6720506F6E675F365F322E73726563A7
S113000037C0000051C000004FC000004DC00000C8
S11300104BC0000049C0000047C0000045C00000BC
S113002043C0000041C000003FC000003DC00000CC
S11300303BC0000039C0000037C0000035C00000DC
S113004033C0000031C000002FC000002DC00000EC
S11300502BC0000029C0000027C0000025C00000FC
S113006023C0000021C000001FC000001DC000000C
S113007011241FBECFEFD4E0DEBFCDBF11E0A0E05E
S1130080B1E0E2E3F1E102C005900D92A837B107B7
S1130090D9F722E0A8E7B1E001C01D92AA38B2075F
S11300A0E1F74FD20C949708ABCF60E078E138C207
S11300B0089584E090E0F9CF0895CF93DF93CDB70E
S11300C0DEB72A970FB6F894DEBF0FBECDBF5BD064
S11300D041E060E680E678D08FEF9FE80197F1F782
S11300E000C0000041E061E08BE285D08FEF9FE823
S11300F00197F1F700C0000040E060EE8FE07BD094
S11301008FEF9FE80197F1F700C000004AE0BE01BD
S11301106F5F7F4F8EE03AD08981807E99F01F9285
S11301208F9386E091E09F938F9308D48BE691E0C0
S11301309F938F9303D40F900F900F900F900F9075
S11301400F9007C08AE491E09F938F93F7D30F90A9
S11301500F902A960FB6F894DEBF0FBECDBFDF9185
S1130160CF910895CF93DF931F92CDB7DEB7C49894
S113017080EC898361E0CE010196A4D1C49A0F90EA
S1130180DF91CF91089573D1EDCF0895FF920F932E
S11301901F93CF93DF9300D0CDB7DEB78B01F42E3E
S11301A0C49893E099838A8362E0CE0101968AD150
S11301B06F2DC80162D1C49A0F900F90DF91CF9137
S11301C01F910F91FF900895CF93DF9300D01F925A
S11301D0CDB7DEB7C49892E099838A836B8362E0DB
S11301E0640FCE0101966ED1C49A0F900F900F90B8
S11301F0DF91CF910895CF93DF9300D000D0CDB796
S1130200DEB7C49895E099838A836B834C8364E05A
S1130210CE01019657D1C49A0F900F900F900F9072
S1130220DF91CF91089591E29093001088231CF000
S11302308093001003C08FE78093001066231CF0A6
S11302406093001008958FE780930010089592E260
S113025090930010883028F4E0E0F0E180838083FC
S11302600895E0E0F0E187E080838083089588309A
S113027060F4EDDF6FE780E0D6DF80E890E0E0E057
S1130280F2E1108201970097E1F70895CF93C0E05F
S11302908C2FEDDFCF5FC830D9F7CF910895E0E020
S11302A0F0E18EEA808381EA80838AED808382E1B3
S11302B0808388EC808388EA80838FE3808385ED64
S11302C0808380E8808381E8808380E5808389ED72
S11302D0808381E2808380E2808382E080838BED6F
S11302E0808380E380838DEA8083108284EA808324
S11302F086EA80838FEA8083C9DF10927F0210929E
S11303007E020895CF92DF92EF92FF926B017C01FF
S11303108EB584608EBD8EB58D7F8EBD8EB58E7F7D
S11303208EBD609178017091790180E090E0A3D155
S1130330A701960156D220E030E040E05FE306D109
S11303406ED175BD64BDFF90EF90DF90CF9008959E
S11303500F931F93EEB5E061EEBDEEB5E860EEBD20
S1130360EFB5E260EFBDEFB5EE7FEFBDEFB5E0684E
S1130370EFBDEFB5EF7BEFBD032F142F252F3327F0
S11303801093790100937801BDDFBD9A1F910F91FD
S11303900895CF92DF92EF92FF926B017C012AEFD6
S11303A03DEE4BE65AE337D1882354F027E230EA96
S11303B049E05BE3C701B60110D2181664F015C01A
S11303C00F2EFAEFCF2EFDEEDF2EFBE6EF2EFAE333
S11303D0FF2EF02D0AC00F2EF7E2CF2EF0EADF2E0B
S11303E0F9E0EF2EFBE3FF2EF02D60917801709180
S11303F0790180E090E03FD1A7019601F2D120E09D
S113040030E040E05FE3A2D09F938F937F936F939C
S11304108EE691E09F938F9391D2609178017091D1
S1130420790180E090E027D1A7019601DAD120E09C
S113043030E040E05FE38AD0F2D07BBD6ABD0F902C
S11304400F900F900F900F900F90FF90EF90DF9010
S1130450CF9008959B01AC016AE077ED83EA9CE3B9
S113046077DF66EA7BE984EC9AE393CF089580EB27
S113047087BBC49A81E58DB90895CF93DF93CDB737
S1130480DEB72A970FB6F894DEBF0FBECDBF662342
S113049081F0FE013196A82FB92FCF01860F911D4F
S11304A021912FB9779BFECF2FB12D93E817F90730
S11304B0B9F72A960FB6F894DEBF0FBECDBFDF9111
S11304C0CF910895262F30E0121613066CF4E82F0E
S11304D0F92F80E090E041914FB9779BFECF4FB167
S11304E0019682179307BCF308955D9BFECF8CB9E8
S11304F008955F99FECF8CB1089590BD89B988E9BC
S11305008AB98EE880BD69E772E085E792E0CCC1E4
S1130510089585B7806885BF80B7806280BF0895DD
S1130520FB01F05F808308958FE190E0E6DFF1DF67
S1130530B6DEBFDDC2DD60E070E08BE490E08ACF20
S11305400895F2DF87B3887F87BBFFCF5058BB275E
S1130550AA270ED008C1F9D030F0FED020F031F433
S11305609F3F11F41EF4EEC00EF4E095E7FBE4C0E7
S1130570E92F0AD180F3BA17620773078407950736
S113058018F071F49EF522C10EF4E0950B2EBA2FEB
S1130590A02D0B01B90190010C01CA01A001112485
S11305A0FF27591B99F0593F50F4503E68F11A1631
S11305B0F040A22F232F342F4427585FF3CF4695C2
S11305C037952795A795F0405395C9F77EF41F16E4
S11305D0BA0B620B730B840BBAF09150A1F0FF0FAE
S11305E0BB1F661F771F881FC2F70EC0BA0F621F9A
S11305F0731F841F48F4879577956795B795F7958A
S11306009E3F08F0B3CF9395880F08F09927EE0F1B
S11306109795879508956CD008F481E00895BCD02F
S113062088F09F5790F0B92F9927B751A0F0D1F0D7
S1130630660F771F881F991F1AF0BA95C9F712C061
S1130640B13081F0C3D0B1E00895C0C0672F782FD6
S11306508827B85F39F0B93FCCF3869577956795CD
S1130660B395D9F73EF490958095709561957F4F39
S11306708F4F9F4F0895E89409C097FB3EF49095DF
S11306808095709561957F4F8F4F9F4F9923A9F067
S1130690F92F96E9BB279395F695879577956795F6
S11306A0B795F111F8CFFAF4BB0F11F460FF1BC03A
S11306B06F5F7F4F8F4F9F4F16C0882311F096E9CD
S11306C011C0772321F09EE8872F762F05C066237B
S11306D071F096E8862F70E060E02AF09A95660F34
S11306E0771F881FDAF7880F9695879597F90895ED
S11306F0990F0008550FAA0BE0E8FEEF161617062F
S1130700E807F907C0F012161306E407F50798F096
S1130710621B730B840B950B39F40A2661F0232BAF
S1130720242B252B21F408950A2609F4A140A6952B
S11307308FEF811D811D089597F99F6780E870E010
S113074060E008959FEF80EC089500240A94161643
S1130750170618060906089500240A9412161306AB
S1130760140605060895092E0394000C11F4882339
S113077052F0BB0F40F4BF2B11F460FF04C06F5F55
S11307807F4F8F4F9F4F089557FD9058440F551F2B
S113079059F05F3F71F04795880F97FB991F61F0FF
S11307A09F3F79F087950895121613061406551F76
S11307B0F2CF4695F1DF08C0161617061806991FE2
S11307C0F1CF86957105610508940895E894BB27D7
S11307D066277727CB0197F908958ADF08F48FEF0E
S11307E008950BD0C0CFB1DF28F0B6DF18F0952301
S11307F009F0A2CFA7CF1124EACFC6DFA0F3959FBB
S1130800D1F3950F50E0551F629FF001729FBB27F3
S1130810F00DB11D639FAA27F00DB11DAA1F649F9F
S11308206627B00DA11D661F829F2227B00DA11D52
S1130830621F739FB00DA11D621F839FA00D611DD8
S1130840221F749F3327A00D611D231F849F600DF9
S1130850211D822F762F6A2F11249F5750408AF032
S1130860E1F088234AF0EE0FFF1FBB1F661F771FBE
S1130870881F91505040A9F79E3F510570F05CCFFE
S1130880A6CF5F3FECF3983EDCF3869577956795AA
S1130890B795F795E7959F5FC1F7FE2B880F911DDC
S11308A09695879597F908950F931F93CF93DF93A8
S11308B0EC018B01009731F46115710519F480E0A6
S11308C090E037C06EE070E081E090E00BD2FC0174
S11308D00097A9F380E883830115110571F013874C
S11308E0028781E883838091800290918102892B21
S11308F021F4F0938102E09380022097C9F0D1871C
S1130900C087838182608383809182029091830275
S1130910892B71F4F0938302E09382028091840224
S113092090918502892B21F4F0938502E09384024F
S1130930CF01DF91CF911F910F910895A0E0B0E016
S1130940E3EAF4E0CDC3FE01359661917191AF0104
S1130950809182029091830202D0E2E0DDC3ACE098
S1130960B0E0E4EBF4E0ACC37C016B018A01FC0170
S113097017821682838181FFB0C1CE0101964C019A
S1130980F7019381F60193FD859193FF81916F01A6
S1130990882309F49EC1853239F493FD859193FF30
S11309A081916F01853221F4B70190E0F9D2E8CF4B
S11309B0512C312C20E02032A0F48B3269F030F439
S11309C0803259F0833269F420612CC08D3239F0C1
S11309D0803339F4216026C02260246023C028605B
S11309E021C027FD27C030ED380F3A3078F426FFB8
S11309F006C0FAE05F9E300D1124532E13C08AE026
S1130A00389E300D1124332E20620CC08E3221F416
S1130A1026FD5FC1206406C08C3611F4206802C034
S1130A20883641F4F60193FD859193FF81916F011E
S1130A308111C1CF982F9F7D9554933028F40C5F7A
S1130A401F4FFFE3F9830DC0833631F0833771F014
S1130A50833509F057C021C0F801808189830E5F76
S1130A601F4F44244394512C540114C03801F2E024
S1130A706F0E711CF801A080B18026FF03C0652DA4
S1130A8070E002C06FEF7FEFC5012C877ED22C018E
S1130A9083012C852F77222E16C03801F2E06F0EC9
S1130AA0711CF801A080B18026FF03C0652D70E0A1
S1130AB002C06FEF7FEFC5012C8755D22C012C8526
S1130AC02068222E830123FC19C0832D90E0481650
S1130AD05906A0F4B70180E290E062D23A94F5CFCF
S1130AE0F50127FC859127FE81915F01B70190E014
S1130AF057D231103A94F1E04F1A5108411451047D
S1130B0079F7DEC0843611F0893631F5F80127FF14
S1130B1007C060817181828193810C5F1F4F08C07F
S1130B2060817181882777FD8095982F0E5F1F4F14
S1130B302F76B22E97FF09C0909580957095619598
S1130B407F4F8F4F9F4F2068B22E2AE030E0A401E0
S1130B5059D2A82EA81843C0853729F42F7EB22E67
S1130B602AE030E025C0F22FF97FBF2E8F36C1F086
S1130B7018F4883579F0ADC0803719F0883721F042
S1130B80A8C02F2F2061B22EB4FE0DC08B2D84601F
S1130B90B82E09C024FF0AC09F2F9660B92E06C044
S1130BA028E030E005C020E130E002C020E132E07E
S1130BB0F801B7FE07C060817181828193810C5F67
S1130BC01F4F06C06081718180E090E00E5F1F4F6F
S1130BD0A40118D2A82EA818FB2DFF77BF2EB6FEAD
S1130BE00BC02B2D2E7FA51450F4B4FE0AC0B2FC0A
S1130BF008C02B2D2E7E05C07A2C2B2D03C07A2CF9
S1130C0001C0752C24FF0DC0FE01EA0DF11D808189
S1130C10803311F4297E09C022FF06C073947394B3
S1130C2004C0822F867809F0739423FD12C020FF3C
S1130C3006C05A2C731418F4530C5718732C7314DD
S1130C4060F4B70180E290E02C87AAD173942C85DC
S1130C50F6CF731410F4371801C0312C24FF11C0DF
S1130C60B70180E390E02C879BD12C8522FF16C02E
S1130C7021FF03C088E590E002C088E790E0B70157
S1130C800CC0822F867851F021FD02C080E201C0A1
S1130C908BE227FD8DE2B70190E082D1A51430F4F8
S1130CA0B70180E390E07CD15A94F8CFAA94F40180
S1130CB0EA0DF11D8081B70190E072D1A110F6CF49
S1130CC0332009F45DCEB70180E290E069D13A9413
S1130CD0F7CFF7018681978102C08FEF9FEF2C96A3
S1130CE0E2E10AC20F931F93CF93DF93869F8001A3
S1130CF0879F100D969F100D1124C8010DD0EC0193
S1130D00009721F0A80160E070E038D1CE01DF91B6
S1130D10CF911F910F910895CF93DF938230910566
S1130D2010F482E090E0E0918802F091890220E0E2
S1130D3030E0A0E0B0E0309739F1408151814817AC
S1130D405907B8F04817590771F4828193811097B5
S1130D5029F013969C938E9312972CC0909389023A
S1130D608093880227C02115310531F042175307BB
S1130D7018F0A901DB0101C0EF019A01BD01DF01F7
S1130D800280F381E02DD7CF21153105F9F0281B1E
S1130D90390B2430310580F48A819B8161157105FA
S1130DA021F0FB019383828304C090938902809392
S1130DB08802FE01329644C0FE01E20FF31F8193C4
S1130DC0919322503109398328833AC020918602B5
S1130DD030918702232B41F42091020130910301C9
S1130DE03093870220938602209100013091010103
S1130DF02115310541F42DB73EB7409104015091BE
S1130E000501241B350BE0918602F0918702E2175D
S1130E10F307A0F42E1B3F0B2817390778F0AC0119
S1130E204E5F5F4F2417350748F04E0F5F1F5093F6
S1130E308702409386028193919302C0E0E0F0E040
S1130E40CF01DF91CF910895CF93DF93009709F4F9
S1130E5087C0FC01329713821282C0918802D0911C
S1130E608902209781F420813181280F391F8091D4
S1130E708602909187028217930779F5F09387028F
S1130E80E09386026DC0DE0120E030E0AE17BF07BC
S1130E9050F412964D915C9113979D0141155105A3
S1130EA009F1DA01F3CFB383A28340815181840F26
S1130EB0951F8A179B0771F48D919C911197840F4C
S1130EC0951F02969183808312968D919C9113971E
S1130ED0938382832115310529F4F0938902E093E9
S1130EE088023EC0D9011396FC93EE9312974D915C
S1130EF05D91A40FB51FEA17FB0779F480819181F6
S1130F00840F951F0296D90111969C938E9382812A
S1130F10938113969C938E931297E0E0F0E08A817C
S1130F209B81009719F0FE01EC01F9CFCE010296E6
S1130F3028813981820F931F209186023091870284
S1130F402817390769F4309729F41092890210920E
S1130F50880202C013821282D0938702C093860251
S1130F60DF91CF910895FC0105906150704001100C
S1130F70D8F7809590958E0F9F1F0895DC0101C0CE
S1130F806D9341505040E0F70895FC01615070406A
S1130F9001900110D8F7809590958E0F9F1F0895AA
S1130FA00F931F93CF93DF93182F092FEB018B819E
S1130FB081FD03C08FEF9FEF20C082FF10C04E81E0
S1130FC05F812C813D81421753077CF4E881F981CC
S1130FD09F012F5F3F4F39832883108306C0E88524
S1130FE0F985812F0995892B29F72E813F812F5F60
S1130FF03F4F3F832E83812F902FDF91CF911F91FD
S11310000F910895FA01AA27283051F1203181F176
S1131010E8946F936E7F6E5F7F4F8F4F9F4FAF4FFC
S1131020B1E03ED0B4E03CD0670F781F891F9A1F0F
S1131030A11D680F791F8A1F911DA11D6A0F711DC3
S1131040811D911DA11D20D009F468943F912AE0CF
S1131050269F11243019305D3193DEF6CF010895B7
S1131060462F4770405D4193B3E00FD0C9F7F6CFE8
S1131070462F4F70405D4A3318F0495D31FD4052B0
S1131080419302D0A9F7EACFB4E0A6959795879546
S113109077956795BA95C9F7009761057105089525
S11310A09B01AC010A2E06945795479537952795D1
S11310B0BA95C9F7620F731F841F951FA01D089569
S11310C02F923F924F925F926F927F928F929F9254
S11310D0AF92BF92CF92DF92EF92FF920F931F9342
S11310E0CF93DF93CDB7DEB7CA1BDB0B0FB6F894F3
S11310F0DEBF0FBECDBF09942A88398848885F8433
S11311006E847D848C849B84AA84B984C884DF80A3
S1131110EE80FD800C811B81AA81B981CE0FD11D87
S11311200FB6F894DEBF0FBECDBFED010895F8945D
S1051130FFCFEB
S113113200008A0220004D43503235313520697354
S1131142204E4F5420696E20636F7272656374205F
S11311526D6F64652061667465722072657365746F
S1131162212049747320636F6E6669672062697413
S113117273206172652025780A00696E206D6F64A0
S113118265206E6F726D616C200A0D0043414E49F9
S11311924E5446206F7574202564200A0D00467251
S10B11A265713A202564000088
S9030000FC
