S015000050696E6720506F6E675F365F322E73726563A7
S11300005FC300007AC3000078C3000076C3000019
S113001074C3000072C3000070C300006EC300000C
S11300206CC300006AC3000068C3000066C300001C
S113003064C3000062C3000060C300005EC300002C
S11300405CC300005AC3000058C3000056C300003C
S113005054C3000052C3000050C300004EC300004C
S11300604CC300004AC3000048C3000046C300005C
S113007000000000005C00000C000C007C287C28C0
S113008058DC68002410480028542840000C000064
S1130090007884008478000054385400107C1000E8
S11300A080400000101010000040000060100C00A0
S11300B038543800487C40004864580044542C00AC
S11300C01C107C005C5424003854240064140C007C
S11300D068542C0048543800004800008048000050
S11300E0102844002828280044281000045408003C
S11300F038445C00781478007C5428003844280084
S11301007C4438007C5444007C140400384474005B
S11301107C107C00447C440020403C007C106C003B
S11301207C4040007C187C0078103C003844380047
S11301307C1408003844B8007C1468004854240037
S1130140047C04007C407C003C603C007C307C00EF
S11301506C106C000C700C0064544C00007C440067
S11301600C106000447C00000804080080808000BB
S113017000040800304878007C48300030484800CB
S113018030487C00306850001078140090A8780043
S11301907C08700050744000808074007C106800FB
S11301A0447C4000781078007808700030483000B3
S11301B0F82810003048F80078100800505828003B
S11301C0083C4800384078003840380078207800EF
S11301D04830480098A07800486858001078840097
S11301E0007C00008478100008040804000000006B
S11301F00000005F00000007000700147F147F1454
S1130200242A7F2A12231308646236495522500097
S113021005030000001C2241000041221C00082AA2
S11302201C2A0808083E0808005030000008080886
S11302300808006060000020100804023E5149458F
S11302403E00427F400042615149462141454B31C5
S11302501814127F1027454545393C4A4949300155
S1130260710905033649494936064949291E0036AC
S113027036000000563600000008142241141414FD
S1130280141441221408000201510906324979412B
S11302903E7E1111117E7F494949363E414141223A
S11302A07F4141221C7F494949417F090901013E9F
S11302B0414151327F0808087F00417F41002040BE
S11302C0413F017F081422417F404040407F0204A7
S11302D0027F7F0408107F3E4141413E7F090909A6
S11302E0063E4151215E7F09192946464949493153
S11302F001017F01013F4040403F1F2040201F7FFC
S11303002018207F631408146303047804036151E4
S113031049454300007F4141020408102041417FC8
S11303200000040201020440404040400001020475
S11303300020545454787F4844443838444444207A
S1130340384444487F3854545418087E090102083C
S11303501454543C7F0804047800447D4000204039
S1130360443D00007F10284400417F40007C041875
S113037004787C0804047838444444387C14141405
S113038008081414187C7C080404084854545420A5
S1130390043F4440203C4040207C1C2040201C3C26
S11303A04030403C44281028440C5050503C446495
S11303B0544C44000836410000007F0000004136E0
S11303C00800020103020100000000000000000018
S11303D0065F5F060000000007070007070000141F
S11303E07F7F147F7F1400242E6B6B3A120000462B
S11303F06630180C666200307A4F5D377A48000424
S113040007030000000000001C3E634100000000E0
S113041041633E1C000000082A3E1C1C3E2A0808BA
S1130420083E3E0808000000A0E06000000000084C
S11304300808080808000000006060000000006070
S113044030180C060301003E7F594D7F3E000042E8
S1130450427F7F40400000627359496F660000226A
S11304606349497F360000181C16137F7F1000274C
S11304706745457D3900003C7E4B497930000003D7
S11304806371190F070000367F49497F3600000663
S11304904F49693F1E000000006C6C000000000022
S11304A0A0EC6C00000000081C366341000000143E
S11304B014141414140000004163361C08000002D4
S11304C00351590F0600003E7F415D5D1F1E007CF5
S11304D07E13137E7C0000417F7F49497F36001CD8
S11304E03E634141632200417F7F41637F1C0041A1
S11304F07F7F495D416300417F7F491D0103001CEB
S11305003E6341517372007F7F08087F7F000000C3
S1130510417F7F41000000307040417F3F01004136
S11305207F7F081C776300417F7F41406070007FBC
S11305307F060C067F7F007F7F060C187F7F001CE0
S11305403E6341633E1C00417F7F49090F06001E44
S11305503F21717F5E0000417F7F19396F4600267D
S1130560674D597B32000003417F7F410300007FC8
S11305707F40407F7F00001F3F60603F1F00007F7F
S11305807F3018307F7F0063771C081C7763000777
S11305904F78784F0700006773594D476371000027
S11305A07F7F41410000000103060C183060000009
S11305B041417F7F000000080C0603060C08008000
S11305C08080808080808000000307040000002079
S11305D07454543C784000413F7F44447C38003894
S11305E07C44446C280000307848493F7F40003800
S11305F07C54545C180000487E7F49030200009834
S1130600BCA4A4F87C0400417F7F08047C7800002B
S1130610447D7D4000000040C484FD7D0000004115
S11306207F7F10386C440000417F7F400000007CD5
S11306307C0C180C7C78007C7C04047C78000038EA
S11306407C44447C38000084FCF8A4243C18001842
S11306503C24A4F8FC8400447C78441C1800004822
S11306605C54547424000000043E7F442400003C85
S11306707C40403C7C40001C3C60603C1C00003CD6
S11306807C6030607C3C00446C3810386C44009CC6
S1130690BCA0A0FC7C00004C64745C4C64000008AA
S11306A0083E7741410000000000777700000041D8
S11306B041773E0808000002030103020301000021
S11306C011241FBECFEFD4E0DEBFCDBF12E0A0E007
S11306D0B1E0ECE0F5E202C005900D92A83DB1074F
S11306E0D9F722E0A8EDB2E001C01D92A43FB20701
S11306F0E1F70E94810D0C94841282CC9FEF980F35
S1130700943058F48D5F8093001485E38A95F1F753
S113071000008091001490E0089580E090E0089536
S113072084E08093001485E38A95F1F70000E0E00B
S1130730F4E1408150E04C58510985E0808385E321
S11307408A95F1F700002091001430E02C5831090B
S1130750BA01552324F466277727641B750BC90156
S1130760332324F488279927821B930B681779076E
S113077044F433238CF0121613068CF084E090E0DA
S113078019C08617970774F455237CF014161506C0
S11307907CF084E090E00EC083E090E00BC082E047
S11307A090E008C084E090E005C080E090E002C0E2
S11307B081E090E0435E5F4F4B33510538F4235E94
S11307C03F4F2B33310510F484E090E0089580E02E
S11307D098E10E94700D90E0089560E078E10C9437
S11307E06C0D089584E090E0F8CF0895CF93DF93E3
S11307F0EEDFEC0195DFC817D90719F4D5E0C0E0A6
S113080002C0D82FC92FE9DF8D2F9C2FDF91CF9104
S11308100895CF93DF93CDB7DEB72A970FB6F89438
S1130820DEBF0FBECDBFF3D341E060E680E610D457
S11308308FEF9FE80197F1F700C0000041E061E00D
S11308408BE22DD48FEF9FE80197F1F700C00000F1
S113085040E060EE8FE023D48FEF9FE80197F1F73B
S113086000C000004AE0BE016F5F7F4F8EE0D2D32C
S11308708981807EA9F01F928F9382E191E09F93FA
S11308808F930E946C0E87E791E09F938F930E9451
S11308906C0E0F900F900F900F900F900F9008C058
S11308A086E591E09F938F930E946C0E0F900F90BA
S11308B02A960FB6F894DEBF0FBECDBFDF91CF915D
S11308C008951F93CF93DF93EC0141E06A8185E3A0
S11308D0BFD341E0688181E3BBD341E0688182E317
S11308E0B7D38A81882361F010E0FE01E10FF11D86
S11308F041E0638186E3ACD31F5F8A811817A8F3B4
S113090081E8BDD3DF91CF911F910895FF920F939A
S11309101F93CF93DF93CDB7DEB72A970FB6F89422
S1130920DEBF0FBECDBF8C01F62E41E0BE016F5F6E
S11309307F4F8CE26FD3898181110CC01F921F926B
S113094028E631E03F932F930E946C0E0F900F9096
S11309500F900F9041E0BE016F5F7F4F85E68F0DD2
S113096059D38981F801828341E0BE016F5F7F4FD3
S113097081E68F0D4FD3298130E0F8013183208344
S11309804281BE016F5F7F4F86E68F0D43D3F8012E
S11309909281992361F09E012F5F3F4FD8011396F6
S11309A0F90181918D938E2F821B8917D0F340E03A
S11309B061E08CE274D32A960FB6F894DEBF0FBEC2
S11309C0CDBFDF91CF911F910F91FF9008950F93A9
S11309D01F93CF93DF93CDB7DEB72A970FB6F89462
S11309E0DEBF0FBECDBF8C0141E0BE016F5F7F4F04
S11309F08CE210D3898180FF0BC060E070E0C801F5
S1130A0085DF40E061E08CE24AD381E090E00FC0F2
S1130A1081FF0BC061E070E0C80178DF40E062E074
S1130A208CE23DD381E090E002C080E090E02A9621
S1130A300FB6F894DEBF0FBECDBFDF91CF911F91EB
S1130A400F9108950F931F93CF93DF93CDB7DEB724
S1130A502D970FB6F894DEBF0FBECDBF86B3C6DEAA
S1130A609C012250310922303105F8F46091E202F0
S1130A707091E302C6D48091E2029091E302813046
S1130A80910539F08230910531F0892B29F433D462
S1130A9003C036D501C0FED42FE788E391E021508E
S1130AA080409040E1F700C0000086B382FB00273D
S1130AB000F910E080910E0190910F01009789F4E4
S1130AC00130110509F0AAC081E090E090930F0174
S1130AD080930E0183ED90E30197F1F700C00000CD
S1130AE09DC0019709F09AC0012B09F097C010929C
S1130AF00F0110920E0183ED90E30197F1F700C00E
S1130B0000008091E2029091E302892B09F03CC03D
S1130B10EDD3892B39F481E090E09093DB0280934C
S1130B20DA027CC08091E2029091E302892B61F5A4
S1130B30DDD3019741F481E090E09093E302809348
S1130B40E202DED46BC08091E2029091E302892B31
S1130B50D9F4CCD3029741F482E090E09093E3027D
S1130B608093E20297D45AC08091E2029091E3020A
S1130B70892B51F4BBD3039739F481E090E090932F
S1130B80D9028093D8024AC08091E2029091E30294
S1130B908230910519F495D57DD440C0019709F0B0
S1130BA03DC0A4D324E030E03A83298321E02B83A1
S1130BB01C828130910571F082309105B9F0892B46
S1130BC001F580E090E08DD51C821092E102109234
S1130BD0E00217C081E090E084D581E08C8381E05D
S1130BE090E09093E1028093E0020BC082E090E0F9
S1130BF078D582E08C8382E090E09093E102809348
S1130C00E002CE0101965DDE9FE322E48FE0915085
S1130C1020408040E1F700C0000072D4B19B8DC039
S1130C208091E2029091E302892B09F03CC05ED3EB
S1130C30892B39F481E090E09093DB028093DA020F
S1130C407CC08091E2029091E302892B61F54ED33E
S1130C50019741F481E090E09093E3028093E202F3
S1130C604FD46BC08091E2029091E302892BD9F4B6
S1130C703DD3029741F482E090E09093E3028093A5
S1130C80E20208D45AC08091E2029091E302892BD7
S1130C9051F42CD3039739F481E090E09093D90276
S1130CA08093D8024AC08091E2029091E30282309C
S1130CB0910519F406D5EED340C0019709F03DC063
S1130CC015D324E030E03A83298321E02B831C826E
S1130CD08130910571F082309105B9F0892B01F5CD
S1130CE080E090E0FED41C821092E1021092E002B7
S1130CF017C081E090E0F5D481E08C8381E090E03E
S1130D009093E1028093E0020BC082E090E0E9D48A
S1130D1082E08C8382E090E09093E1028093E00291
S1130D20CE010196CEDD9FE322E48FE09150204076
S1130D308040E1F700C00000E3D3B09B0CC0809179
S1130D40E2029091E3020197029728F41092E302E1
S1130D501092E202D0D22D960FB6F894DEBF0FBEE9
S1130D60CDBFDF91CF911F910F9108950F931F93E2
S1130D70CF93DF93CDB7DEB7A7970FB6F894DEBF56
S1130D800FBECDBF81E090E09A83898321E02B835D
S1130D9082E090E09F878E87288B83E090E09C8F91
S1130DA08B8F2D8F81E0AADC8C83CE01019689DDA7
S1130DB084E0A4DC898BCE010E9683DD86B382FBAE
S1130DC0002700F910E080910E0190910F01009727
S1130DD081F40130110501F581E090E090930F0159
S1130DE080930E0183ED90E30197F1F700C00000BA
S1130DF013C0019789F4012B79F481E08E8FCE0121
S1130E004B965FDD10920F0110920E0183ED90E37B
S1130E100197F1F700C000008091E0029091E10297
S1130E20A2D327D4892B11F0B09B16C081E090E0A7
S1130E309093DD028093DC024DD49FEB27E289E09E
S1130E40915020408040E1F700C0000054D220D4EB
S1130E501092DF021092DE02A7960FB6F894DEBF5E
S1130E600FBECDBFDF91CF911F910F9108951092C6
S1130E70DF021092DE0208958091DE029091DF027B
S1130E8008959093DF028093DE0208958091DC023E
S1130E909091DD0208951092DD021092DC02089513
S1130EA08091DA029091DB0208951092DB02109295
S1130EB0DA0208950F931F93CF93DF93CDB7DEB774
S1130EC0A7970FB6F894DEBF0FBECDBF82E090E0C7
S1130ED09A83898321E02B8384E090E09F878E8727
S1130EE0288B85E090E09C8F8B8F2D8F84E006DC2F
S1130EF08C83CE010196E5DC82E000DC182F092FFB
S1130F008E8FB19B21C020910601309107012430BE
S1130F10310539F422E030E03093070120930601D3
S1130F2006C02F5F3F4F3093070120930601809145
S1130F3006018F5F898BCE010E96C3DC83ED90E3AF
S1130F400197F1F700C000002091060130910701DC
S1130F502330310559F02430310569F02230310550
S1130F6071F410930C0100930D0109C010930A0150
S1130F7000930B0104C01093080100930901CE01F2
S1130F804B969FDC209108013091090140910A01A0
S1130F9050910B0160910C0170910D01809106013B
S1130FA090910701ECD3B09B0CC081E090E090934A
S1130FB0DD028093DC029FD16BD31092DF0210928A
S1130FC0DE02A7960FB6F894DEBF0FBECDBFDF9149
S1130FD0CF911F910F9108958091D8029091D902D9
S1130FE008951092D9021092D8020895CF93DF93F6
S1130FF01F92CDB7DEB7C49880EC898361E0CE013F
S113100001963CD5C49A0F90DF91CF9108950BD5EA
S1131010EDCF0895FF920F931F93CF93DF9300D0EA
S1131020CDB7DEB78B01F42EC49893E099838A83FD
S113103062E0CE01019622D56F2DC801FAD4C49A7C
S11310400F900F90DF91CF911F910F91FF90089512
S1131050CF93DF9300D01F92CDB7DEB7C49892E050
S113106099838A836B8362E0640FCE01019606D56F
S1131070C49A0F900F900F90DF91CF910895CF9362
S1131080DF931F92CDB7DEB7C498898361E0CE01A8
S11310900196F4D4C49A0F90DF91CF910895CF9321
S11310A0DF9300D000D0CDB7DEB7C49895E0998324
S11310B08A836B834C8364E0CE010196DFD4C49AA7
S11310C00F900F900F900F90DF91CF91089591E2C0
S11310D09093001088231CF08093001003C08FE7C6
S11310E08093001066231CF06093001008958FE72E
S11310F080930010089592E290930010883028F4B1
S1131100E0E0F0E1808380830895E0E0F0E187E0AF
S1131110808380830895883060F4EDDF6FE780E09A
S1131120D6DF80E890E0E0E0F2E1108201970097DA
S1131130E1F70895CF93C0E08C2FEDDFCF5FC83087
S1131140D9F7CF910895623041F494E08902A00167
S113115011244051504024E025C0613089F4482FC7
S1131160552747FD509540525109CA01880F991FD0
S1131170880F991F480F591F44515E4F25E012C034
S113118098E08902A001112449535D4F28E00AC068
S1131190FA01E80FF91FE491EC9301968217930783
S11311A0BCF3089530E080E090E0A0E0B2E1F0CF3D
S11311B0623041F494E08902A0011124405150406E
S11311C024E026C0613089F4482F552747FD509507
S11311D040525109CA01880F991F880F991F480F5F
S11311E0591F44515E4F25E013C098E08902A001C5
S11311F0112449535D4F28E00BC0FA01E80FF91F91
S1131200E491E095EC93019682179307B4F3089563
S113121030E080E090E0A0E0B2E1EFCF8A3051F41A
S11312208091E5028F5F8093E50265DF60E880E0EE
S11312304EDF03C06091E40286DF80E008958A30C7
S113124051F48091E5028F5F8093E50254DF60E8FA
S113125080E03DDF03C06091E402AADF80E00895EE
S1131260EF92FF920F931F93CF93DF93FC010190B2
S11312700020E9F731977F01E81AF90A1E141F04C8
S11312805CF48C01C0E0D0E0F80181918F01C6DFED
S11312902196EC16FD06C1F7DF91CF911F910F91B6
S11312A0FF90EF900895EF92FF920F931F93CF93C7
S11312B0DF93FC0101900020E9F731977F01E81AE0
S11312C0F90A1E141F045CF48C01C0E0D0E0F8019C
S11312D081918F01B4DF2196EC16FD06C1F7DF91F1
S11312E0CF911F910F91FF90EF90089582E098E1C4
S11312F0F7D390E00895CF93DF931CDFF7DFEC0181
S113130081E0F9DE209759F48AE791E0CCDF82E0AE
S1131310F2DE86E891E0A4DF83E0EDDE21C08AE717
S113132091E09EDF82E0E7DEC130D10559F486E822
S113133091E0B9DF83E0DFDE81E991E091DF84E0D1
S1131340DADE19C086E891E08BDF83E0D4DEC230B8
S1131350D10531F481E991E0A6DF84E0CCDE0BC055
S113136081E991E07DDF84E0C6DE239721F48EE9F4
S113137091E099DF03C08CEA91E072DFDF91CF91B5
S11313800895E0E0F0E18EEA808381EA80838AEDCB
S1131390808382E1808388EC808388EA80838FE382
S11313A0808385ED808380E8808381E8808380E585
S11313B0808389ED808381E2808380E2808382E080
S11313C080838BED808380E380838DEA8083108229
S11313D084EA808386EA80838FEA8083ABDE10927E
S11313E0E9021092E80284E098E17AD390E09093C5
S11313F0E7028093E6027FCF089562E078E16CC350
S11314000895EF92FF920F931F93CF93DF938C0174
S11314106115710541F06230710559F06894EE244C
S1131420E1F8F12C09C00F2EF3E0EF2EF12CF02D92
S113143003C0EE24E394F12C59DFEC0102301105D2
S113144021F4009779F0219711C00330110571F44C
S11314508E159F0549F00196B7016F5F7F4FCBD37F
S1131460EC0104C0E70102C0C0E0D0E0CE01C5DF5A
S1131470DF93CF938AEB91E09F938F932DD40F90BA
S11314800F900F900F90DF91CF911F910F91FF90CC
S1131490EF9008950F931F93CF93DF9300D000D064
S11314A0CDB7DEB747DE81E026DE84EC91E0D8DEFE
S11314B082E021DE8091E7028F938091E6028F9390
S11314C082ED91E09F938F938E010F5F1F4F1F93C7
S11314D00F9313D4C801C4DE83E00DDE85ED91E0E3
S11314E0E2DE0F900F900F900F900F900F900F90DF
S11314F00F900F900F90DF91CF911F910F9108954E
S1131500CF93DF9317DEF2DEEC0181E0F4DD209768
S113151059F48BED91E0C7DE82E0EDDD82EE91E0DF
S11315209FDE83E0E8DD19C08BED91E099DE82E077
S1131530E2DDC130D10531F482EE91E0B4DE83E026
S1131540DADD0BC082EE91E08BDE83E0D4DD2297FE
S113155021F48BEE91E0A7DE03C08BEE91E080DEF8
S1131560DF91CF910895CF92DF92EF92FF920F9384
S11315701F93CF93DF93CDB7DEB729970FB6F894B7
S1131580DEBF0FBECDBF6C01D5DD81E0B4DD82EFDF
S113159091E066DE82E0AFDD80E092E061DE809182
S11315A011018F93809110018F9302ED11E01F932D
S11315B00F93CE0101967C01FF928F939ED3C701B6
S11315C04FDE8EE392E04CDE83E095DD82E192E033
S11315D047DE52DC9F938F931F930F937E0192E01B
S11315E0E90EF11CFF92EF9288D3C70139DE8EE336
S11315F092E036DE84E07FDD8DE092E031DE8091A2
S1131600E7028F938091E6028F931F930F938E01CD
S11316100A5F1F4F1F930F9370D3C80121DE8EE31F
S113162092E01EDE85E067DD0FB6F894DEBF0FBEE4
S1131630CDBFC114D10421F48AE192E011DE0AC0C5
S1131640CA94CD2821F481E292E00ADE03C08AE242
S113165092E006DE29960FB6F894DEBF0FBECDBF2A
S1131660DF91CF911F910F91FF90EF90DF90CF907A
S113167008958091100190911101089580911001B5
S11316809091110101979093110180931001089595
S113169083E090E090931101809310010895ECDBB6
S11316A02091E6023091E7022817390724F4909339
S11316B0E7028093E60264E078E18091E6020CC2DE
S11316C008951092E7021092E60264E078E180E067
S11316D003C208952FDD81E00EDD81E392E0C0CDE9
S11316E00895CF93DF93EC0125DDC130D105D9F006
S11316F0C230D10569F1CD2B09F03EC081E0FBDC9D
S113170080E492E0ADDD82E0F6DC80E592E0A8DDE5
S113171083E0F1DC8AE592E0A3DD84E0ECDC84E69E
S113172092E09EDD29C081E0E6DC8DE692E098DD62
S113173082E0E1DC8FE792E093DD83E0DCDC8AE5A4
S113174092E08EDD84E0D7DC84E692E089DD14C08B
S113175081E0D1DC89E892E083DD82E0CCDC89E9B8
S113176092E07EDD83E0C7DC83EA92E079DD84E009
S1131770C2DC8DEA92E074DDDF91CF9108956F921F
S11317807F928F929F92AF92BF92CF92DF92EF920D
S1131790FF920F931F93CF93DF9300D000D0CDB768
S11317A0DEB74C018B015A016901C4DC81E0A3DC82
S11317B086EB92E078DD82E09EDC82E0881691047C
S11317C009F058C083EC92E06EDD0F2EF4E68F2E04
S11317D0912CF02DC801B4010ED2782E692E7F937E
S11317E06F930F2EF2EDEF2EF1E0FF2EF02DFF920E
S11317F0EF928E010F5F1F4F1F930F937ED2C8018C
S11318002FDD89EC92E02CDD6F927F92FF92EF92B4
S11318101F930F9372D2C80123DD8EE392E020DD83
S113182083E069DC8BEC92E01BDDC501B401E3D1FC
S1131830B82EA92E7F936F93FF92EF921F930F936D
S11318405CD2C8010DDD89EC92E00ADDAF92BF9253
S1131850FF92EF921F930F9350D2C80101DD8EE3E4
S113186092E0FEDC84E047DC0FB6F894DEBF0FBEE6
S1131870CDBF97C083EC92E0F3DCC80164E670E06E
S1131880BAD1782E692E7F936F930F2EF2EDEF2E3F
S1131890F1E0FF2EF02DFF92EF928E010F5F1F4FAC
S11318A01F930F932AD2C801DBDC89EC92E0D8DCC9
S11318B06F927F92FF92EF921F930F931ED2C801F3
S11318C0CFDC8EE392E0CCDC83E015DC0FB6F89439
S11318D0DEBF0FBECDBF93E08916910449F58BECB2
S11318E092E0E1DCC50164E670E085D1B82EA92E52
S11318F07F936F93FF92EF921F930F93FED1C801D2
S1131900AFDC89EC92E0ACDCAF92BF92FF92EF9235
S11319101F930F93F2D1C801A3DC8EE392E0A0DC05
S113192084E0E9DB0FB6F894DEBF0FBECDBF39C04B
S11319308BEC92E095DCC50164E670E05CD1B82ED6
S1131940A92E7F936F930F2EF2EDEF2EF1E0FF2E71
S1131950F02DFF92EF928E010F5F1F4F1F930F9395
S1131960CCD1C8017DDC89EC92E07ADCAF92BF92E5
S1131970FF92EF921F930F93C0D1C80171DC8EE3E5
S113198092E06EDC84E0B7DB0FB6F894DEBF0FBEE6
S1131990CDBF94E08916910421F481ED92E083DCBB
S11319A003C081ED92E05CDCC60164E670E023D103
S11319B0D82EC92E7F936F930F2EF2EDEF2EF1E008
S11319C0FF2EF02DFF92EF928E010F5F1F4F1F939A
S11319D00F9393D1C80144DC89EC92E041DCCF92AF
S11319E0DF92FF92EF921F930F9387D1C80138DCE7
S11319F08EE392E035DC0FB6F894DEBF0FBECDBFA8
S1131A000F900F900F900F90DF91CF911F910F9136
S1131A10FF90EF90DF90CF90BF90AF909F908F900A
S1131A207F906F90089580EB87BBC49A81E58DB950
S1131A300895CF93DF93CDB7DEB72A970FB6F89406
S1131A40DEBF0FBECDBF662381F0FE013196A82F05
S1131A50B92FCF01860F911D21912FB9779BFECF0E
S1131A602FB12D93E817F907B9F72A960FB6F89412
S1131A70DEBF0FBECDBFDF91CF910895262F30E09A
S1131A80121613066CF4E82FF92F80E090E04191D0
S1131A904FB9779BFECF4FB1019682179307BCF3E2
S1131AA008955D9BFECF8CB908955F99FECF8CB1EC
S1131AB0089590BD89B988E98AB98EE880BD65E545
S1131AC07DE081E59DE0BEC0089585B7806885BF4F
S1131AD080B7806280BF0895FB01F05F8083089522
S1131AE0905FFC01808108958FE190E0E2DFEDDFFB
S1131AF048DC0E94F2030E94090487B3887F87BBF5
S1131B000895CF93DF93CDB7DEB72D970FB6F89432
S1131B10DEBF0FBECDBFE8DF83E090E09A83898308
S1131B2081E08B838CE78C8300E010E0EE24E39467
S1131B30F12CC12CD12C6894882481F8912CAA24EE
S1131B40A394B12C01301105C9F00230110509F438
S1131B5038C00115110509F03CC00E942205A0D926
S1131B60892B21F0A2D90A2D1B2D3BC035DA892BF4
S1131B7009F437C036DA082D192D33C0EF2809F0DF
S1131B8076D9F4D883D9892B19F085D90C2D1D2D3C
S1131B90CE0101960E94E704892BF1F089819A8194
S1131BA08130910531F48C8190E06BD9EC2CFD2CC3
S1131BB018C00297A1F462DD72DD59D9EC2CFD2C1A
S1131BC010C078D963D9892B61F065D90C2D1D2DEE
S1131BD008C00E94220505C0EC2CFD2C02C0EC2C90
S1131BE0FD2C2FEF8FE791E0215080409040E1F7EA
S1131BF000C000C0A7CF97FB072E16F4009406D0B0
S1131C0077FD08D00BD007FC05D03EF49095819564
S1131C109F4F0895709561957F4F0895AA1BBB1B34
S1131C2051E107C0AA1FBB1FA617B70710F0A61BD8
S1131C30B70B881F991F5A95A9F780959095BC01F9
S1131C40CD0108950F931F93CF93DF93EC018B0184
S1131C50009731F46115710519F480E090E037C004
S1131C606EE070E081E090E02AD2FC010097A9F3D5
S1131C7080E883830115110571F01387028781E8D9
S1131C8083838091EA029091EB02892B21F4F093F3
S1131C90EB02E093EA022097C9F0D187C0878381E1
S1131CA0826083838091EC029091ED02892B71F420
S1131CB0F093ED02E093EC028091EE029091EF023A
S1131CC0892B21F4F093EF02E093EE02CF01DF9130
S1131CD0CF911F910F910895A0E0B0E0E1E7FEE0FD
S1131CE0ECC3FE01359661917191AF018091EC02D4
S1131CF09091ED0221D0E2E0FCC3AEE0B0E0E2E876
S1131D00FEE0D9C30D891E8986E08C831A8309837A
S1131D108FEF9FE79E838D83AE01475E5F4F6F8990
S1131D20788DCE01019608D0EF81F885E00FF11F80
S1131D3010822E96E4E0DBC3ACE0B0E0E1EAFEE022
S1131D40ACC37C016B018A01FC011782168283817A
S1131D5081FFB0C1CE0101964C01F7019381F601D8
S1131D6093FD859193FF81916F01882309F49EC1AE
S1131D70853239F493FD859193FF81916F0185320A
S1131D8021F4B70190E0F9D2E8CF512C312C20E0B6
S1131D902032A0F48B3269F030F4803259F083326F
S1131DA069F420612CC08D3239F0803339F421601C
S1131DB026C02260246023C0286021C027FD27C0DC
S1131DC030ED380F3A3078F426FF06C0FAE05F9E13
S1131DD0300D1124532E13C08AE0389E300D112487
S1131DE0332E20620CC08E3221F426FD5FC12064A4
S1131DF006C08C3611F4206802C0883641F4F6011E
S1131E0093FD859193FF81916F018111C1CF982F2B
S1131E109F7D9554933028F40C5F1F4FFFE3F983A3
S1131E200DC0833631F0833771F0833509F057C024
S1131E3021C0F801808189830E5F1F4F442443949D
S1131E40512C540114C03801F2E06F0E711CF801DA
S1131E50A080B18026FF03C0652D70E002C06FEF43
S1131E607FEFC5012C877ED22C0183012C852F772F
S1131E70222E16C03801F2E06F0E711CF801A0800A
S1131E80B18026FF03C0652D70E002C06FEF7FEFC5
S1131E90C5012C8755D22C012C852068222E830164
S1131EA023FC19C0832D90E048165906A0F4B7010D
S1131EB080E290E062D23A94F5CFF50127FC859157
S1131EC027FE81915F01B70190E057D231103A9417
S1131ED0F1E04F1A51084114510479F7DEC08436F9
S1131EE011F0893631F5F80127FF07C0608171814F
S1131EF0828193810C5F1F4F08C0608171818827A4
S1131F0077FD8095982F0E5F1F4F2F76B22E97FF87
S1131F1009C090958095709561957F4F8F4F9F4F25
S1131F202068B22E2AE030E0A40159D2A82EA818C5
S1131F3043C0853729F42F7EB22E2AE030E025C035
S1131F40F22FF97FBF2E8F36C1F018F4883579F05F
S1131F50ADC0803719F0883721F0A8C02F2F206139
S1131F60B22EB4FE0DC08B2D8460B82E09C024FFA0
S1131F700AC09F2F9660B92E06C028E030E005C045
S1131F8020E130E002C020E132E0F801B7FE07C0F2
S1131F9060817181828193810C5F1F4F06C06081D3
S1131FA0718180E090E00E5F1F4FA40118D2A82E2B
S1131FB0A818FB2DFF77BF2EB6FE0BC02B2D2E7F4E
S1131FC0A51450F4B4FE0AC0B2FC08C02B2D2E7E1A
S1131FD005C07A2C2B2D03C07A2C01C0752C24FF4C
S1131FE00DC0FE01EA0DF11D8081803311F4297EBC
S1131FF009C022FF06C07394739404C0822F8678AC
S113200009F0739423FD12C020FF06C05A2C7314E8
S113201018F4530C5718732C731460F4B70180E24E
S113202090E02C87AAD173942C85F6CF731410F406
S1132030371801C0312C24FF11C0B70180E390E0B0
S11320402C879BD12C8522FF16C021FF03C088E575
S113205090E002C088E790E0B7010CC0822F867838
S113206051F021FD02C080E201C08BE227FD8DE228
S1132070B70190E082D1A51430F4B70180E390E079
S11320807CD15A94F8CFAA94F401EA0DF11D808111
S1132090B70190E072D1A110F6CF332009F45DCEE0
S11320A0B70180E290E069D13A94F7CFF7018681D5
S11320B0978102C08FEF9FEF2C96E2E10AC20F9343
S11320C01F93CF93DF93869F8001879F100D969F68
S11320D0100D1124C8010DD0EC01009721F0A801C6
S11320E060E070E038D1CE01DF91CF911F910F9164
S11320F00895CF93DF938230910510F482E090E04D
S1132100E091F202F091F30220E030E0A0E0B0E0D0
S1132110309739F14081518148175907B8F0481771
S1132120590771F482819381109729F013969C9337
S11321308E9312972CC09093F3028093F20227C0DF
S11321402115310531F04217530718F0A901DB01BD
S113215001C0EF019A01BD01DF010280F381E02D8E
S1132160D7CF21153105F9F0281B390B243031055F
S113217080F48A819B816115710521F0FB019383B1
S1132180828304C09093F3028093F202FE0132969C
S113219044C0FE01E20FF31F819391932250310951
S11321A0398328833AC02091F0023091F102232B25
S11321B041F420910201309103013093F102209304
S11321C0F00220910001309101012115310541F403
S11321D02DB73EB74091040150910501241B350BE6
S11321E0E091F002F091F102E217F307A0F42E1B44
S11321F03F0B2817390778F0AC014E5F5F4F241767
S1132200350748F04E0F5F1F5093F1024093F002E0
S11322108193919302C0E0E0F0E0CF01DF91CF9190
S11322200895CF93DF93009709F487C0FC01329798
S113223013821282C091F202D091F302209781F4AA
S113224020813181280F391F8091F0029091F10291
S11322508217930779F5F093F102E093F0026DC0D1
S1132260DE0120E030E0AE17BF0750F412964D9126
S11322705C9113979D014115510509F1DA01F3CFE2
S1132280B383A28340815181840F951F8A179B07D2
S113229071F48D919C911197840F951F02969183EF
S11322A0808312968D919C91139793838283211539
S11322B0310529F4F093F302E093F2023EC0D90110
S11322C01396FC93EE9312974D915D91A40FB51F55
S11322D0EA17FB0779F480819181840F951F029698
S11322E0D90111969C938E938281938113969C932A
S11322F08E931297E0E0F0E08A819B81009719F0B9
S1132300FE01EC01F9CFCE01029628813981820FBA
S1132310931F2091F0023091F1022817390769F4D4
S1132320309729F41092F3021092F20202C0138241
S11323301282D093F102C093F002DF91CF910895FD
S1132340FC010590615070400110D8F7809590957C
S11323508E0F9F1F0895DC0101C06D9341505040C2
S1132360E0F70895FC016150704001900110D8F726
S1132370809590958E0F9F1F08950F931F93CF9371
S1132380DF93182F092FEB018B8181FD03C08FEFA1
S11323909FEF20C082FF10C04E815F812C813D8160
S11323A0421753077CF4E881F9819F012F5F3F4F67
S11323B039832883108306C0E885F985812F099520
S11323C0892B29F72E813F812F5F3F4F3F832E8337
S11323D0812F902FDF91CF911F910F910895FA01D2
S11323E0AA27283051F1203181F1E8946F936E7F50
S11323F06E5F7F4F8F4F9F4FAF4FB1E03ED0B4E041
S11324003CD0670F781F891F9A1FA11D680F791F81
S11324108A1F911DA11D6A0F711D811D911DA11D92
S113242020D009F468943F912AE0269F11243019A2
S1132430305D3193DEF6CF010895462F4770405D3D
S11324404193B3E00FD0C9F7F6CF462F4F70405DEC
S11324504A3318F0495D31FD4052419302D0A9F747
S1132460EACFB4E0A6959795879577956795BA9541
S1132470C9F700976105710508959B01AC010A2E07
S113248006945795479537952795BA95C9F7620FDE
S1132490731F841F951FA01D08952F923F924F9282
S11324A05F926F927F928F929F92AF92BF92CF92E0
S11324B0DF92EF92FF920F931F93CF93DF93CDB7E9
S11324C0DEB7CA1BDB0B0FB6F894DEBF0FBECDBF61
S11324D009942A88398848885F846E847D848C8432
S11324E09B84AA84B984C884DF80EE80FD800C813B
S11324F01B81AA81B981CE0FD11D0FB6F894DEBF1E
S10F25000FBECDBFED010895F894FFCF8D
S113250C0000F402200002001400500078000100C6
S113251C03004D435032353135206973204E4F54EE
S113252C20696E20636F7272656374206D6F6465CD
S113253C2061667465722072657365742120497418
S113254C7320636F6E6669672062697473206172AD
S113255C652025780A00696E206D6F6465206E6FA6
S113256C726D616C200A0D0043414E494E54462055
S113257C6F7574202564200A0D00506C6179204716
S113258C616D65200A00536574204761696E200AE9
S113259C00486967682053636F7265200A005049CC
S11325AC4420436F6E74726F6C200A00506964206F
S11325BC436F6E74726F6C200A00706F733A20252F
S11325CC640A0D00486967682073636F7265203A6A
S11325DC0A002564005265736574004561737920A3
S11325EC0A004D656469756D200A004861726420A7
S11325FC0A0047414D4520414354495645200A00A1
S113260C6C69766573206C6566743A20006869673A
S113261C682073636F72653A200065617379200AD0
S113262C006D656469756D200A0068617264200A26
S113263C0047414D45204F5645522E2E2E200A0060
S113264C454153592073656C6563746564200A00B5
S113265C4B70203D20312E320A004B69203D203036
S113266C2E380A004B64203D20302E32004D454458
S113267C49554D2073656C6563746564200A004B81
S113268C70203D20302E360A004841524420736598
S113269C6C6563746564200A004B70203D20322EF7
S11326AC300A004B69203D20302E300A004B642048
S11326BC3D20302E300050494420434F4E54524F4D
S11326CC4C0A004B70203D20002E004B69203D200D
S10B26DC004B64203D200000C6
S9030000FC
