:100000005FC3000078C3000076C3000074C3000023
:1000100072C3000070C300006EC300006CC3000018
:100020006AC3000068C3000066C3000064C3000028
:1000300062C3000060C300005EC300005CC3000038
:100040005AC3000058C3000056C3000054C3000048
:1000500052C3000050C300004EC300004CC3000058
:100060004AC3000048C3000046C3000044C3000068
:1000700000000000005C00000C000C007C287C28C4
:1000800058DC68002410480028542840000C000068
:10009000007884008478000054385400107C1000EC
:1000A00080400000101010000040000060100C00A4
:1000B00038543800487C40004864580044542C00B0
:1000C0001C107C005C5424003854240064140C0080
:1000D00068542C0048543800004800008048000054
:1000E0001028440028282800442810000454080040
:1000F00038445C00781478007C5428003844280088
:100100007C4438007C5444007C140400384474005F
:100110007C107C00447C440020403C007C106C003F
:100120007C4040007C187C0078103C00384438004B
:100130007C1408003844B8007C146800485424003B
:10014000047C04007C407C003C603C007C307C00F3
:100150006C106C000C700C0064544C00007C44006B
:100160000C106000447C00000804080080808000BF
:1001700000040800304878007C48300030484800CF
:1001800030487C00306850001078140090A8780047
:100190007C08700050744000808074007C106800FF
:1001A000447C4000781078007808700030483000B7
:1001B000F82810003048F80078100800505828003F
:1001C000083C4800384078003840380078207800F3
:1001D0004830480098A0780048685800107884009B
:1001E000007C00008478100008040804000000006F
:1001F0000000005F00000007000700147F147F1458
:10020000242A7F2A1223130864623649552250009B
:1002100005030000001C2241000041221C00082AA6
:100220001C2A0808083E080800503000000808088A
:100230000808006060000020100804023E51494593
:100240003E00427F400042615149462141454B31C9
:100250001814127F1027454545393C4A4949300159
:10026000710905033649494936064949291E0036B0
:100270003600000056360000000814224114141401
:10028000141441221408000201510906324979412F
:100290003E7E1111117E7F494949363E414141223E
:1002A0007F4141221C7F494949417F090901013EA3
:1002B000414151327F0808087F00417F41002040C2
:1002C000413F017F081422417F404040407F0204AB
:1002D000027F7F0408107F3E4141413E7F090909AA
:1002E000063E4151215E7F09192946464949493157
:1002F00001017F01013F4040403F1F2040201F7F00
:100300002018207F631408146303047804036151E8
:1003100049454300007F4141020408102041417FCC
:100320000000040201020440404040400001020479
:100330000020545454787F4844443838444444207E
:10034000384444487F3854545418087E0901020840
:100350001454543C7F0804047800447D400020403D
:10036000443D00007F10284400417F40007C041879
:1003700004787C0804047838444444387C14141409
:1003800008081414187C7C080404084854545420A9
:10039000043F4440203C4040207C1C2040201C3C2A
:1003A0004030403C44281028440C5050503C446499
:1003B000544C44000836410000007F0000004136E4
:1003C000080002010302010000000000000000001C
:1003D000065F5F0600000000070700070700001423
:1003E0007F7F147F7F1400242E6B6B3A120000462F
:1003F0006630180C666200307A4F5D377A48000428
:1004000007030000000000001C3E634100000000E4
:1004100041633E1C000000082A3E1C1C3E2A0808BE
:10042000083E3E0808000000A0E060000000000850
:100430000808080808000000006060000000006074
:1004400030180C060301003E7F594D7F3E000042EC
:10045000427F7F40400000627359496F660000226E
:100460006349497F360000181C16137F7F10002750
:100470006745457D3900003C7E4B497930000003DB
:100480006371190F070000367F49497F3600000667
:100490004F49693F1E000000006C6C000000000026
:1004A000A0EC6C00000000081C3663410000001442
:1004B00014141414140000004163361C08000002D8
:1004C0000351590F0600003E7F415D5D1F1E007CF9
:1004D0007E13137E7C0000417F7F49497F36001CDC
:1004E0003E634141632200417F7F41637F1C0041A5
:1004F0007F7F495D416300417F7F491D0103001CEF
:100500003E6341517372007F7F08087F7F000000C7
:10051000417F7F41000000307040417F3F0100413A
:100520007F7F081C776300417F7F41406070007FC0
:100530007F060C067F7F007F7F060C187F7F001CE4
:100540003E6341633E1C00417F7F49090F06001E48
:100550003F21717F5E0000417F7F19396F46002681
:10056000674D597B32000003417F7F410300007FCC
:100570007F40407F7F00001F3F60603F1F00007F83
:100580007F3018307F7F0063771C081C776300077B
:100590004F78784F0700006773594D47637100002B
:1005A0007F7F41410000000103060C18306000000D
:1005B00041417F7F000000080C0603060C08008004
:1005C000808080808080800000030704000000207D
:1005D0007454543C784000413F7F44447C38003898
:1005E0007C44446C280000307848493F7F40003804
:1005F0007C54545C180000487E7F49030200009838
:10060000BCA4A4F87C0400417F7F08047C7800002F
:10061000447D7D4000000040C484FD7D0000004119
:100620007F7F10386C440000417F7F400000007CD9
:100630007C0C180C7C78007C7C04047C78000038EE
:100640007C44447C38000084FCF8A4243C18001846
:100650003C24A4F8FC8400447C78441C1800004826
:100660005C54547424000000043E7F442400003C89
:100670007C40403C7C40001C3C60603C1C00003CDA
:100680007C6030607C3C00446C3810386C44009CCA
:10069000BCA0A0FC7C00004C64745C4C64000008AE
:1006A000083E7741410000000000777700000041DC
:1006B00041773E0808000002030103020301000025
:1006C00011241FBECFEFD4E0DEBFCDBF11E0A0E00C
:1006D000B1E0E2EBF4E102C005900D92A437B1075E
:1006E000D9F721E0A4E7B1E001C01D92AE39B2070D
:1006F000E1F756D2DCC684CC84E090E09093790197
:10070000809378010895E0E0F4E184E0808385E35C
:100710008A95F1F70000208130E02C58310985E0FE
:10072000808385E38A95F1F70000408150E04C58C2
:100730005109B901332324F466277727621B730B11
:10074000CA01552324F488279927841B950B681721
:10075000790744F455238CF0141615068CF482E0C6
:1007600090E019C08617970774F433237CF01216B3
:1007700013067CF481E090E00EC083E090E00BC0B3
:1007800084E090E008C084E090E005C080E090E064
:1007900002C084E090E02D5E3F4F2732310538F4EF
:1007A0004D5E5F4F4732510510F484E090E00895AC
:1007B000AADF909379018093780180E090E008951A
:1007C00091E29093001088231CF08093001003C0E6
:1007D0008FE78093001066231CF06093001008954B
:1007E0008FE780930010089592E290930010883074
:1007F00028F4E0E0F0E1808380830895E0E0F0E118
:1008000087E0808380830895883058F4EDDF6FE7B8
:1008100080E0D6DF80E890E0E0E0F2E1108201972E
:10082000E9F70895CF93C0E08C2FEEDFCF5FC8309B
:10083000D9F7CF910895623041F424E08202C001DB
:1008400011248051904044E024C0613079F4082E96
:10085000000C990B80979C01220F331F220F331F2E
:10086000820F931F84519E4F45E013C028E08202FF
:10087000C001112489539D4F48E00BC0FC01E20FD9
:10088000F31FE491EC932F5F3F4F24173507B4F328
:10089000089550E020E030E0A0E0B2E1EFCF623018
:1008A00041F424E08202C00111248051904044E0D0
:1008B00025C0613079F4082E000C990B80979C01BB
:1008C000220F331F220F331F820F931F84519E4F1D
:1008D00045E014C028E08202C001112489539D4FD5
:1008E00048E00CC0FC01E20FF31FE491E095EC93AB
:1008F0002F5F3F4F24173507ACF3089550E020E0F9
:1009000030E0A0E0B2E1EECF8A3051F48091750181
:100910008F5F8093750168DF60E880E051DF03C07E
:100920006091740188DF80E008958A3051F48091ED
:1009300075018F5F8093750157DF60E880E040DFCD
:1009400003C060917401ABDF80E00895CF92DF9225
:10095000EF92FF920F931F93CF93DF93EC01FC0173
:1009600001900020E9F73197CF018C1B9D0B6C01A2
:100970009F938F938EE491E09F938F9391D10F90EB
:100980000F900F900F901C141D04D4F48E01C0E042
:10099000D0E00F2EFCE5EF2EF1E0FF2EF02DDF93DF
:1009A000CF93FF92EF927CD1F80181918F01ACDF60
:1009B00021960F900F900F900F90CC16DD0679F7CF
:1009C000DF91CF911F910F91FF90EF90DF90CF902B
:1009D0000895CF92DF92EF92FF920F931F93CF93E0
:1009E000DF93EC01FC0101900020E9F73197CF0182
:1009F0008C1B9D0B6C019F938F938EE491E09F93D2
:100A00008F934ED10F900F900F900F901C141D04D8
:100A1000D4F48E01C0E0D0E00F2EFCE5EF2EF1E023
:100A2000FF2EF02DDF93CF93FF92EF9239D1F80193
:100A300081918F017ADF21960F900F900F900F9088
:100A4000CC16DD0679F7DF91CF911F910F91FF90C2
:100A5000EF90DF90CF900895809192019091930153
:100A6000892B31F080917601909177016FDF05C07D
:100A70008091760190917701ACDF80919201909105
:100A80009301019739F480917601909177010A964C
:100A9000A0DF06C080917601909177010A9656DF1B
:100AA0008091920190919301039721F48CE691E05B
:100AB00090CF08958CE691E049CF0895E0E0F0E111
:100AC0008EEA808381EA80838AED808382E180835D
:100AD00088EC808388EA80838FE3808385ED808340
:100AE00080E8808381E8808380E5808389ED80834E
:100AF00081E2808380E2808382E080838BED80834B
:100B000080E380838DEA8083108284EA808386EA92
:100B100080838FEA808386DE86E091E09093770180
:100B200080937601109293011092920195CF0895CF
:100B30008230910561F4809192019091930163E07C
:100B400070E03DD0909393018093920108950397B4
:100B500059F4809192019091930163E070E02FD05D
:100B6000909393018093920108955D9BFECF8CB981
:100B700008955F99FECF8CB1089590BD89B988E939
:100B80008AB98EE880BD69EB75E085EB95E03EC0E3
:100B9000089585B7806885BF80B7806280BF08955B
:100BA0008FE190E0EADFF5DFB89888DFA5DD00DEB1
:100BB000892BE9F780E090E0BBDF4EDFF8CF97FBB1
:100BC000072E16F4009406D077FD08D00BD007FC52
:100BD00005D03EF4909581959F4F0895709561954D
:100BE0007F4F0895AA1BBB1B51E107C0AA1FBB1F63
:100BF000A617B70710F0A61BB70B881F991F5A95A9
:100C0000A9F780959095BC01CD0108950F931F938E
:100C1000CF93DF93009731F46115710519F480E0EB
:100C200090E039C08B01EC016EE070E081E090E073
:100C30000DD2FC01892B99F380E8838301151105FE
:100C400071F01387028781E88383809194019091EA
:100C50009501892B21F4F0939501E093940120975D
:100C6000C9F0D187C0878381826083838091960198
:100C700090919701892B71F4F0939701E09396017D
:100C80008091980190919901892B21F4F093990119
:100C9000E0939801CF01DF91CF911F910F910895BB
:100CA000A0E0B0E0E5E5F6E0DBC3AE014B5F5F4FEF
:100CB000FA0161917191AF01809196019091970134
:100CC00002D0E2E0E9C3ACE0B0E0E8E6F6E0B8C3A9
:100CD0007C016B018A01FC0117821682838181FFEE
:100CE000B0C1CE0101964C01F7019381F60193FD4D
:100CF000859193FF81916F01882309F49EC185320C
:100D000039F493FD859193FF81916F01853221F430
:100D1000B70190E0FFD2E8CF512C312C20E02032F7
:100D2000A0F48B3269F030F4803259F0833269F4E8
:100D300020612CC08D3239F0803339F4216026C017
:100D40002260246023C0286021C027FD27C030ED29
:100D5000380F3A3078F426FF06C0FAE05F9E300D77
:100D60001124532E13C08AE0389E300D1124332EE7
:100D700020620CC08E3221F426FD5FC1206406C0C3
:100D80008C3611F4206802C0883641F4F60193FDD8
:100D9000859193FF81916F018111C1CF982F9F7D24
:100DA0009554933028F40C5F1F4FFFE3F9830DC077
:100DB000833631F0833771F0833509F057C021C095
:100DC000F801808189830E5F1F4F44244394512C86
:100DD000540114C03801F2E06F0E711CF801A080BC
:100DE000B18026FF03C0652D70E002C06FEF7FEF7A
:100DF000C5012C8784D22C0183012C852F77222ECC
:100E000016C03801F2E06F0E711CF801A080B180AD
:100E100026FF03C0652D70E002C06FEF7FEFC501B4
:100E20002C875BD22C012C852068222E830123FC89
:100E300019C0832D90E048165906A0F4B70180E24E
:100E400090E068D23A94F5CFF50127FC859127FE12
:100E500081915F01B70190E05DD231103A94F1E0E9
:100E60004F1A51084114510479F7DEC0843611F04D
:100E7000893631F5F80127FF07C0608171818281D1
:100E800093810C5F1F4F08C060817181072E000C99
:100E9000880B990B0E5F1F4F2F76722E97FF09C09C
:100EA00090958095709561957F4F8F4F9F4F2068EB
:100EB000722E2AE030E0A40165D2A82EA81843C003
:100EC000853729F42F7EB22E2AE030E025C0F22F9C
:100ED000F97FBF2E8F36C1F018F4883579F0ADC098
:100EE000803719F0883721F0A8C02F2F2061B22E4B
:100EF000B4FE0DC08B2D8460B82E09C024FF0AC03B
:100F00009F2F9660B92E06C028E030E005C020E192
:100F100030E002C020E132E0F801B7FE07C0608196
:100F20007181828193810C5F1F4F06C06081718146
:100F300080E090E00E5F1F4FA40124D2A82EA818D5
:100F4000FB2DFF777F2E76FE0BC0372D3E7FA5143D
:100F500050F474FE0AC072FC08C0372D3E7E05C0F6
:100F6000BA2C372D03C0BA2C01C0B52C34FF0DC0EC
:100F7000FE01EA0DF11D8081803311F4397E09C034
:100F800032FF06C0B394B39404C0832F867809F06F
:100F9000B39433FD12C030FF06C05A2CB31418F4BA
:100FA000530C5B18B32CB31460F4B70180E290E0EB
:100FB0003C87B0D1B3943C85F6CFB31410F43B1802
:100FC00001C0312C34FF11C0B70180E390E03C87B1
:100FD000A1D13C8532FF16C031FD03C088E790E007
:100FE00002C088E590E0B7010CC0832F867851F0ED
:100FF00031FF02C08BE201C080E237FD8DE2B70114
:1010000090E088D1A51430F4B70180E390E082D15C
:101010005A94F8CFAA94F401EA0DF11D8081B7012A
:1010200090E078D1A110F6CF332009F45DCEB7015E
:1010300080E290E06FD13A94F7CFF70186819781F3
:1010400002C08FEF9FEF2C96E2E116C20F931F9321
:10105000CF93DF93869F8001879F100D969F100D81
:101060001124C8010DD0EC01009721F0A80160E027
:1010700070E03ED1CE01DF91CF911F910F91089585
:10108000CF93DF938230910510F482E090E0E091FD
:101090009C01F0919D0120E030E0C0E0D0E030976D
:1010A00011F14081518148175907C0F0481759077D
:1010B00061F482819381209719F09B838A832BC0EE
:1010C00090939D0180939C0126C02115310519F054
:1010D0004217530718F49A01BE01DF01EF010280A5
:1010E000F381E02DDCCF2115310509F1281B390BE7
:1010F0002430310590F412968D919C9113976115CF
:10110000710521F0FB019383828304C090939D01BC
:1011100080939C01FD01329644C0FD01E20FF31F54
:1011200081939193225031092D933C933AC02091A1
:101130009A0130919B01232B41F4209102013091BF
:10114000030130939B0120939A012091000130917B
:1011500001012115310541F42DB73EB7409104013D
:1011600050910501241B350BE0919A01F0919B01F0
:10117000E217F307A0F42E1B3F0B2817390778F06E
:10118000AC014E5F5F4F2417350748F04E0F5F1FCD
:1011900050939B0140939A018193919302C0E0E0A8
:1011A000F0E0CF01DF91CF9108950F931F93CF937C
:1011B000DF93009709F48CC0FC01329713821282EE
:1011C00000919C0110919D010115110581F4208170
:1011D0003181820F931F20919A0130919B01281732
:1011E000390779F5F0939B01E0939A0171C0D8011A
:1011F00040E050E0AE17BF0750F412962D913C919D
:101200001397AD012115310509F1D901F3CF9D01E6
:10121000DA013383228360817181860F971F8217E1
:10122000930769F4EC0128813981260F371F2E5F5F
:101230003F4F318320838A819B8193838283452B17
:1012400029F4F0939D01E0939C0142C01396FC9316
:10125000EE931297ED01499159919E01240F351F8C
:10126000E217F30771F480819181840F951F029634
:1012700011969C938E938281938113969C938E9367
:101280001297E0E0F0E0D80112968D919C911397AF
:10129000009719F0F8018C01F6CF8D919C9198017F
:1012A0002E5F3F4F820F931F20919A0130919B0137
:1012B0002817390769F4309729F410929D0110928C
:1012C0009C0102C01382128210939B0100939A0129
:1012D000DF91CF911F910F910895FC01059061500E
:1012E00070400110D8F7809590958E0F9F1F08953C
:1012F000DC0101C06D9341505040E0F70895FC01BE
:101300006150704001900110D8F7809590958E0F34
:101310009F1F08950F931F93CF93DF93FB012381AA
:1013200021FD03C08FEF9FEF28C022FF16C046812A
:101330005781248135814217530744F4A081B1813C
:101340009D012F5F3F4F318320838C93268137810E
:101350002F5F3F4F3783268310C0EB01092F182FD3
:101360000084F185E02D0995892BE1F68E819F811E
:1013700001969F838E83812F902FDF91CF911F91B4
:101380000F910895FA01AA27283051F1203181F1F7
:10139000E8946F936E7F6E5F7F4F8F4F9F4FAF4F7D
:1013A000B1E03ED0B4E03CD0670F781F891F9A1F90
:1013B000A11D680F791F8A1F911DA11D6A0F711D44
:1013C000811D911DA11D20D009F468943F912AE050
:1013D000269F11243019305D3193DEF6CF01089538
:1013E000462F4770405D4193B3E00FD0C9F7F6CF69
:1013F000462F4F70405D4A3318F0495D31FD405231
:10140000419302D0A9F7EACFB4E0A69597958795C6
:1014100077956795BA95C9F70097610571050895A5
:101420009B01AC010A2E0694579547953795279551
:10143000BA95C9F7620F731F841F951FA01D0895E9
:101440002F923F924F925F926F927F928F929F92D4
:10145000AF92BF92CF92DF92EF92FF920F931F93C2
:10146000CF93DF93CDB7DEB7CA1BDB0B0FB6F89473
:10147000DEBF0FBECDBF09942A88398848885F84B3
:101480006E847D848C849B84AA84B984C884DF8024
:10149000EE80FD800C811B81AA81B981CE0FD11D08
:1014A0000FB6F894DEBF0FBECDBFED010895F894DE
:0214B000FFCF6C
:1014B20000009E012000537072696E6700000000F8
:1014C20053756D6D65720000000036011E014265A4
:1014D200616368000000000053756E206275726ED1
:1014E2007400000000004269726473000000000092
:1014F20053756E20726179730000000000007369F9
:101502007A65203D20202564200D0A006C657474E4
:101512006572203D20202564200D0A0052657475F5
:04152200726E0000E5
:00000001FF
