S015000050696E6720506F6E675F365F322E73726563A7
S11300005FC3000079C3000077C3000075C300001C
S113001073C3000071C300006FC300006DC3000010
S11300206BC3000069C3000067C3000065C3000020
S113003063C3000061C300005FC300005DC3000030
S11300405BC3000059C3000057C3000055C3000040
S113005053C3000051C300004FC300004DC3000050
S11300604BC3000049C3000047C3000045C3000060
S113007000000000005C00000C000C007C287C28C0
S113008058DC68002410480028542840000C000064
S1130090007884008478000054385400107C1000E8
S11300A080400000101010000040000060100C00A0
S11300B038543800487C40004864580044542C00AC
S11300C01C107C005C5424003854240064140C007C
S11300D068542C0048543800004800008048000050
S11300E0102844002828280044281000045408003C
S11300F038445C00781478007C5428003844280084
S11301007C4438007C5444007C140400384474005B
S11301107C107C00447C440020403C007C106C003B
S11301207C4040007C187C0078103C003844380047
S11301307C1408003844B8007C1468004854240037
S1130140047C04007C407C003C603C007C307C00EF
S11301506C106C000C700C0064544C00007C440067
S11301600C106000447C00000804080080808000BB
S113017000040800304878007C48300030484800CB
S113018030487C00306850001078140090A8780043
S11301907C08700050744000808074007C106800FB
S11301A0447C4000781078007808700030483000B3
S11301B0F82810003048F80078100800505828003B
S11301C0083C4800384078003840380078207800EF
S11301D04830480098A07800486858001078840097
S11301E0007C00008478100008040804000000006B
S11301F00000005F00000007000700147F147F1454
S1130200242A7F2A12231308646236495522500097
S113021005030000001C2241000041221C00082AA2
S11302201C2A0808083E0808005030000008080886
S11302300808006060000020100804023E5149458F
S11302403E00427F400042615149462141454B31C5
S11302501814127F1027454545393C4A4949300155
S1130260710905033649494936064949291E0036AC
S113027036000000563600000008142241141414FD
S1130280141441221408000201510906324979412B
S11302903E7E1111117E7F494949363E414141223A
S11302A07F4141221C7F494949417F090901013E9F
S11302B0414151327F0808087F00417F41002040BE
S11302C0413F017F081422417F404040407F0204A7
S11302D0027F7F0408107F3E4141413E7F090909A6
S11302E0063E4151215E7F09192946464949493153
S11302F001017F01013F4040403F1F2040201F7FFC
S11303002018207F631408146303047804036151E4
S113031049454300007F4141020408102041417FC8
S11303200000040201020440404040400001020475
S11303300020545454787F4844443838444444207A
S1130340384444487F3854545418087E090102083C
S11303501454543C7F0804047800447D4000204039
S1130360443D00007F10284400417F40007C041875
S113037004787C0804047838444444387C14141405
S113038008081414187C7C080404084854545420A5
S1130390043F4440203C4040207C1C2040201C3C26
S11303A04030403C44281028440C5050503C446495
S11303B0544C44000836410000007F0000004136E0
S11303C00800020103020100000000000000000018
S11303D0065F5F060000000007070007070000141F
S11303E07F7F147F7F1400242E6B6B3A120000462B
S11303F06630180C666200307A4F5D377A48000424
S113040007030000000000001C3E634100000000E0
S113041041633E1C000000082A3E1C1C3E2A0808BA
S1130420083E3E0808000000A0E06000000000084C
S11304300808080808000000006060000000006070
S113044030180C060301003E7F594D7F3E000042E8
S1130450427F7F40400000627359496F660000226A
S11304606349497F360000181C16137F7F1000274C
S11304706745457D3900003C7E4B497930000003D7
S11304806371190F070000367F49497F3600000663
S11304904F49693F1E000000006C6C000000000022
S11304A0A0EC6C00000000081C366341000000143E
S11304B014141414140000004163361C08000002D4
S11304C00351590F0600003E7F415D5D1F1E007CF5
S11304D07E13137E7C0000417F7F49497F36001CD8
S11304E03E634141632200417F7F41637F1C0041A1
S11304F07F7F495D416300417F7F491D0103001CEB
S11305003E6341517372007F7F08087F7F000000C3
S1130510417F7F41000000307040417F3F01004136
S11305207F7F081C776300417F7F41406070007FBC
S11305307F060C067F7F007F7F060C187F7F001CE0
S11305403E6341633E1C00417F7F49090F06001E44
S11305503F21717F5E0000417F7F19396F4600267D
S1130560674D597B32000003417F7F410300007FC8
S11305707F40407F7F00001F3F60603F1F00007F7F
S11305807F3018307F7F0063771C081C7763000777
S11305904F78784F0700006773594D476371000027
S11305A07F7F41410000000103060C183060000009
S11305B041417F7F000000080C0603060C08008000
S11305C08080808080808000000307040000002079
S11305D07454543C784000413F7F44447C38003894
S11305E07C44446C280000307848493F7F40003800
S11305F07C54545C180000487E7F49030200009834
S1130600BCA4A4F87C0400417F7F08047C7800002B
S1130610447D7D4000000040C484FD7D0000004115
S11306207F7F10386C440000417F7F400000007CD5
S11306307C0C180C7C78007C7C04047C78000038EA
S11306407C44447C38000084FCF8A4243C18001842
S11306503C24A4F8FC8400447C78441C1800004822
S11306605C54547424000000043E7F442400003C85
S11306707C40403C7C40001C3C60603C1C00003CD6
S11306807C6030607C3C00446C3810386C44009CC6
S1130690BCA0A0FC7C00004C64745C4C64000008AA
S11306A0083E7741410000000000777700000041D8
S11306B041773E0808000002030103020301000021
S11306C011241FBECFEFD4E0DEBFCDBF12E0A0E007
S11306D0B1E0E8E8FEE102C005900D92A832B1074E
S11306E0D9F722E0A8E2B2E001C01D92A034B2071B
S11306F0E1F7E4D60C94420F83CC9FEF980F94302B
S113070058F48D5F8093001485E38A95F1F7000017
S11307108091001490E0089580E090E0089584E0D2
S11307208093001485E38A95F1F70000E0E0F4E19A
S1130730408150E04C58510985E0808385E38A95D7
S1130740F1F700002091001430E02C583109BA016F
S1130750552324F466277727641B750BC9013323BB
S113076024F488279927821B930B6817790744F48C
S113077033238CF0121613068CF084E090E019C039
S11307808617970774F455237CF0141615067CF02D
S113079084E090E00EC083E090E00BC082E090E043
S11307A008C084E090E005C080E090E002C081E0F1
S11307B090E0435E5F4F4B33510538F4235E3F4F67
S11307C02B33310510F484E090E0089580E098E143
S11307D066D690E0089560E078E15DC6089584E00F
S11307E090E0F9CF0895CF93DF93F0DFEC0197DF2A
S11307F0C817D90719F4D5E0C0E002C0D82FC92F13
S1130800EADF8D2F9C2FDF91CF910895CF93DF9353
S1130810CDB7DEB72A970FB6F894DEBF0FBECDBFB3
S1130820ABD241E060E680E6C8D28FEF9FE8019743
S1130830F1F700C0000041E061E08BE2E5D28FEF08
S11308409FE80197F1F700C0000040E060EE8FE000
S1130850DBD28FEF9FE80197F1F700C000004AE078
S1130860BE016F5F7F4F8EE08AD28981807E99F0CE
S11308701F928F938AE091E09F938F93EBD68FE63C
S113088091E09F938F93E6D60F900F900F900F9067
S11308900F900F9007C08EE491E09F938F93DAD668
S11308A00F900F902A960FB6F894DEBF0FBECDBFFF
S11308B0DF91CF9108951F93CF93DF93EC0141E033
S11308C06A8185E37AD241E0688181E376D241E0AE
S11308D0688182E372D28A81882361F010E0FE018C
S11308E0E10FF11D41E0638186E367D21F5F8A81D6
S11308F01817A8F381E878D2DF91CF911F9108955A
S1130900FF920F931F93CF93DF93CDB7DEB72A9750
S11309100FB6F894DEBF0FBECDBF8C01F62E41E0BA
S1130920BE016F5F7F4F8CE22AD2898181110BC097
S11309301F921F9220E631E03F932F938BD60F90A6
S11309400F900F900F9041E0BE016F5F7F4F85E6DF
S11309508F0D15D28981F801828341E0BE016F5F5A
S11309607F4F81E68F0D0BD2298130E0F80131836E
S113097020834281BE016F5F7F4F86E68F0DFFD1DA
S1130980F8019281992361F09E012F5F3F4FD801B6
S11309901396F90181918D938E2F821B8917D0F3C1
S11309A040E061E08CE230D22A960FB6F894DEBFC4
S11309B00FBECDBFDF91CF911F910F91FF9008958E
S11309C00F931F93CF93DF93CDB7DEB72A970FB65C
S11309D0F894DEBF0FBECDBF8C0141E0BE016F5F56
S11309E07F4F8CE2CCD1898180FF0BC060E070E046
S11309F0C80186DF40E061E08CE206D281E090E04D
S1130A000FC081FF0BC061E070E0C80179DF40E0F6
S1130A1062E08CE2F9D181E090E002C080E090E0F5
S1130A202A960FB6F894DEBF0FBECDBFDF91CF91EB
S1130A301F910F910895CF93DF9386B3D4DE9C0169
S1130A40225031092230310530F560912E02709127
S1130A502F0279D380912E0290912F02813091053B
S1130A6039F08230910531F0892B61F4F9D20AC052
S1130A70E0D308C082E791E09F938F93EBD5A3D393
S1130A800F900F902FE788E391E021508040904031
S1130A90E1F700C0000086B382FB882780F9C82FE5
S1130AA020E0D22F8091060190910701009781F4F4
S1130AB0219709F055C081E090E09093070180935D
S1130AC0060183ED90E30197F1F700C0000048C0F0
S1130AD0019709F045C0CD2B09F042C010920701DF
S1130AE01092060183ED90E30197F1F700C0000036
S1130AF080912E0290912F02892B91F5ACD2892BF3
S1130B0071F481E090E0909329028093280281E8B7
S1130B1091E09F938F939ED50F900F9021C0809169
S1130B202E0290912F02892BD9F495D2019741F48A
S1130B3081E090E090932F0280932E027AD310C02C
S1130B4080912E0290912F02892B51F484D2029726
S1130B5039F482E090E090932F0280932E0233D3F5
S1130B60B19B41C080912E0290912F02892B99F55F
S1130B7072D2892B71F481E090E0909329028093E2
S1130B80280281E891E09F938F9364D50F900F9092
S1130B902AC080912E0290912F02892BE1F45BD21E
S1130BA0019741F481E090E090932F0280932E020C
S1130BB040D319C080912E0290912F02892B59F4B1
S1130BC04AD2029741F482E090E090932F028093FE
S1130BD02E02F9D208C080912E0290912F02029722
S1130BE011F4F0D3F0D2B09B0CC080912E029091FE
S1130BF02F020197029728F410922F0210922E02CE
S1130C002FD2DF91CF9108950F931F93CF93DF934A
S1130C10CDB7DEB7A7970FB6F894DEBF0FBECDBF32
S1130C2081E090E09A83898321E02B8382E090E045
S1130C309F878E87288B83E090E09C8F8B8F2D8FEE
S1130C4081E05BDD8C83CE01019635DE84E055DDE9
S1130C50898BCE010E962FDE86B382FB002700F926
S1130C6010E08091060190910701009781F4013012
S1130C70110539F581E090E0909307018093060116
S1130C8083ED90E30197F1F700C000001AC00197CB
S1130C90C1F4012BB1F481E08E8F8DE891E09F9334
S1130CA08F93D8D4CE014B9606DE10920701109292
S1130CB0060183ED90E30197F1F700C000000F9067
S1130CC00F90EAD257D3892B11F0B09B16C081E064
S1130CD090E090932B0280932A027DD39FEB27E22E
S1130CE089E0915020408040E1F700C00000B8D175
S1130CF050D310922D0210922C02A7960FB6F8949E
S1130D00DEBF0FBECDBFDF91CF911F910F9108952C
S1130D1010922D0210922C02089580912C02909131
S1130D202D02089590932D0280932C0208958091B2
S1130D302A0290912B02089510922B0210922A02FB
S1130D400895809128029091290208951092290211
S1130D50109228020895CF93DF931F92CDB7DEB788
S1130D60C49880EC898361E0CE01019666D3C49A6D
S1130D700F90DF91CF91089535D3EDCF0895FF9271
S1130D800F931F93CF93DF9300D0CDB7DEB78B01C2
S1130D90F42EC49893E099838A8362E0CE0101968D
S1130DA04CD36F2DC80124D3C49A0F900F90DF91B8
S1130DB0CF911F910F91FF900895CF93DF9300D0AF
S1130DC01F92CDB7DEB7C49892E099838A836B8370
S1130DD062E0640FCE01019630D3C49A0F900F9055
S1130DE00F90DF91CF910895CF93DF931F92CDB7EA
S1130DF0DEB7C498898361E0CE0101961ED3C49AFC
S1130E000F90DF91CF910895CF93DF9300D000D05E
S1130E10CDB7DEB7C49895E099838A836B834C83FE
S1130E2064E0CE01019609D3C49A0F900F900F90FD
S1130E300F90DF91CF91089591E290930010882351
S1130E401CF08093001003C08FE78093001066238A
S1130E501CF06093001008958FE7809300100895AC
S1130E6092E290930010883028F4E0E0F0E180836F
S1130E7080830895E0E0F0E187E080838083089533
S1130E80883060F4EDDF6FE780E0D6DF80E890E043
S1130E90E0E0F2E1108201970097E1F70895CF9323
S1130EA0C0E08C2FEDDFCF5FC830D9F7CF91089524
S1130EB0623041F494E08902A00111244051504071
S1130EC024E025C0613089F4482F552747FD50950B
S1130ED040525109CA01880F991F880F991F480F62
S1130EE0591F44515E4F25E012C098E08902A001C9
S1130EF0112449535D4F28E00AC0FA01E80FF91F95
S1130F00E491EC93019682179307BCF3089530E0C3
S1130F1080E090E0A0E0B2E1F0CF623041F494E0F0
S1130F208902A00111244051504024E026C06130C0
S1130F3089F4482F552747FD509540525109CA015D
S1130F40880F991F880F991F480F591F44515E4FEE
S1130F5025E013C098E08902A001112449535D4F94
S1130F6028E00BC0FA01E80FF91FE491E095EC9337
S1130F70019682179307B4F3089530E080E090E07F
S1130F80A0E0B2E1EFCF8A3051F4809131028F5F5B
S1130F908093310265DF60E880E04EDF03C060913A
S1130FA0300286DF80E008958A3051F48091310266
S1130FB08F5F8093310254DF60E880E03DDF03C03F
S1130FC060913002AADF80E00895EF92FF920F93C0
S1130FD01F93CF93DF93FC0101900020E9F7319731
S1130FE07F01E81AF90A1E141F045CF48C01C0E0A6
S1130FF0D0E0F80181918F01C6DF2196EC16FD0641
S1131000C1F7DF91CF911F910F91FF90EF90089559
S1131010EF92FF920F931F93CF93DF93FC01019004
S11310200020E9F731977F01E81AF90A1E141F041A
S11310305CF48C01C0E0D0E0F80181918F01B4DF51
S11310402196EC16FD06C1F7DF91CF911F910F9108
S1131050FF90EF90089582E098E121D290E0089506
S1131060CF93DF931CDFF7DFEC0181E0F9DE2097FB
S113107059F485E991E0CCDF82E0F2DE81EA91E087
S1131080A4DF83E0EDDE19C085E991E09EDF82E014
S1131090E7DEC130D10531F481EA91E0B9DF83E0C4
S11310A0DFDE0BC081EA91E090DF83E0D9DE229796
S11310B021F48CEA91E0ACDF03C08CEA91E085DF97
S11310C0DF91CF910895E0E0F0E18EEA808381EA38
S11310D080838AED808382E1808388EC808388EA40
S11310E080838FE3808385ED808380E8808381E83B
S11310F0808380E5808389ED808381E2808380E240
S1131100808382E080838BED808380E380838DEA1B
S11311108083108284EA808386EA80838FEA8083D6
S1131120BEDE109235021092340284E098E1B7D109
S113113090E0909333028093320292CF089562E05C
S113114078E1A9C10895EF92FF920F931F93CF9373
S1131150DF938C016230710529F06894EE24E1F884
S1131160F12C03C0EE24E394F12C75DFEC01023082
S1131170110521F4009779F0219711C0033011056E
S113118071F48E159F0549F00196B7016F5F7F4F8B
S1131190F0D1EC0104C0E70102C0C0E0D0E0CE0110
S11311A0CEDFDF93CF9389EB91E09F938F9352D25D
S11311B00F900F900F900F90DF91CF911F910F918F
S11311C0FF90EF9008950F931F93CF93DF9300D078
S11311D000D0CDB7DEB763DE81E042DE83EC91E080
S11311E0F4DE82E03DDE809133028F9380913202FF
S11311F08F9381ED91E09F938F938E010F5F1F4F2B
S11312001F930F9338D2C801E0DE83E029DE84ED1A
S113121091E0FEDE0F900F900F900F900F900F90C3
S11312200F900F900F900F90DF91CF911F910F911E
S11312300895CF93DF9333DE0EDFEC0181E010DEFF
S1131240209759F48AED91E0E3DE82E009DE81EE35
S113125091E0BBDE83E004DE19C08AED91E0B5DEE7
S113126082E0FEDDC130D10531F481EE91E0D0DEC3
S113127083E0F6DD0BC081EE91E0A7DE83E0F0DDD4
S1131280229721F48AEE91E0C3DE03C08AEE91E056
S11312909CDEDF91CF910895EF92FF920F931F93FD
S11312A0CF93DF93CDB7DEB729970FB6F894DEBF9F
S11312B00FBECDBFF4DD81E0D3DD81EF91E085DEAB
S11312C082E0CEDD8FEF91E080DE809109018F9383
S11312D0809108018F9301ED11E01F930F93CE01CC
S11312E001967C01FF928F93C6D1C7016EDE86E220
S11312F092E06BDE83E0B4DD81E192E066DE0DDD39
S11313009F938F931F930F937E0192E0E90EF11C3C
S1131310FF92EF92B0D1C70158DE86E292E055DE2B
S113132084E09EDD8CE092E050DE809133028F9366
S1131330809132028F931F930F938E010A5F1F4F88
S11313401F930F9398D1C80140DE86E292E03DDE00
S11313500FB6F894DEBF0FBECDBF29960FB6F89432
S1131360DEBF0FBECDBFDF91CF911F910F91FF90D4
S1131370EF9008958091080190910901089580915A
S11313800801909109010197909309018093080144
S1131390089583E090E090930901809308010895F3
S11313A0BCDC20913202309133022817390724F42F
S11313B0909333028093320264E078E180913202A8
S11313C06AC00895109233021092320264E078E108
S11313D080E061C0089563DD81E042DD89E192E04F
S11313E0F4CD089580EB87BBC49A81E58DB9089547
S11313F0CF93DF93CDB7DEB72A970FB6F894DEBF4D
S11314000FBECDBF662381F0FE013196A82FB92F00
S1131410CF01860F911D21912FB9779BFECF2FB15C
S11314202D93E817F907B9F72A960FB6F894DEBF9B
S11314300FBECDBFDF91CF910895262F30E0121655
S113144013066CF4E82FF92F80E090E041914FB936
S1131450779BFECF4FB1019682179307BCF3089593
S11314605D9BFECF8CB908955F99FECF8CB1089532
S113147090BD89B988E98AB98EE880BD64E37AE0D1
S113148080E39AE09DC0089585B7806885BF80B7E2
S1131490806280BF0895FB01F05F80830895905FB0
S11314A0FC01808108958FE190E0E2DFEDDF0BDE47
S11314B096D9ACD987B3887F87BB0895CF93DF9340
S11314C0CDB7DEB72D970FB6F894DEBF0FBECDBFF4
S11314D0EADF83E090E09A83898381E08B838CE761
S11314E08C8300E010E0EE24E394F12CAA24A3946E
S11314F0B12CC12CD12C0115110521F0013011059D
S113150049F015C098DA1DDC892BA9F01FDC0A2DDF
S11315101B2D11C0EF2809F0FBDB76DB08DC892BDF
S113152041F00ADC0C2D1D2DEC2CFD2C04C083DABB
S113153002C0EC2CFD2C2FEF8FE791E0215080406E
S11315409040E1F700C000C0CE01019639DA892B42
S113155091F289819A818130910521F48C8190E006
S1131560E1DBC9CF029709F0C6CF09DF19DFD0DB71
S1131570C2CF97FB072E16F4009406D077FD08D04F
S11315800BD007FC05D03EF4909581959F4F0895AC
S1131590709561957F4F0895AA1BBB1B51E107C04D
S11315A0AA1FBB1FA617B70710F0A61BB70B881FEF
S11315B0991F5A95A9F780959095BC01CD0108957E
S11315C00F931F93CF93DF93EC018B01009731F4BA
S11315D06115710519F480E090E037C06EE070E0A9
S11315E081E090E02AD2FC010097A9F380E883838C
S11315F00115110571F01387028781E883838091B7
S1131600360290913702892B21F4F0933702E0934C
S113161036022097C9F0D187C08783818260838393
S11316208091380290913902892B71F4F093390238
S1131630E093380280913A0290913B02892B21F485
S1131640F0933B02E0933A02CF01DF91CF911F91D7
S11316500F910895A0E0B0E0EFE2FBE0ECC3FE01DF
S1131660359661917191AF01809138029091390260
S113167021D0E2E0FCC3AEE0B0E0E0E4FBE0D9C39B
S11316800D891E8986E08C831A8309838FEF9FE777
S11316909E838D83AE01475E5F4F6F89788DCE0147
S11316A0019608D0EF81F885E00FF11F10822E9685
S11316B0E4E0DBC3ACE0B0E0EFE5FBE0ACC37C010D
S11316C06B018A01FC0117821682838181FFB0C1FC
S11316D0CE0101964C01F7019381F60193FD8591AA
S11316E093FF81916F01882309F49EC1853239F4F7
S11316F093FD859193FF81916F01853221F4B701A8
S113170090E0F9D2E8CF512C312C20E02032A0F423
S11317108B3269F030F4803259F0833269F42061FD
S11317202CC08D3239F0803339F4216026C0226018
S1131730246023C0286021C027FD27C030ED380F66
S11317403A3078F426FF06C0FAE05F9E300D11248B
S1131750532E13C08AE0389E300D1124332E20629C
S11317600CC08E3221F426FD5FC1206406C08C3685
S113177011F4206802C0883641F4F60193FD859186
S113178093FF81916F018111C1CF982F9F7D955453
S1131790933028F40C5F1F4FFFE3F9830DC08336A9
S11317A031F0833771F0833509F057C021C0F80157
S11317B0808189830E5F1F4F44244394512C54012C
S11317C014C03801F2E06F0E711CF801A080B180E2
S11317D026FF03C0652D70E002C06FEF7FEFC501E7
S11317E02C877ED22C0183012C852F77222E16C0C4
S11317F03801F2E06F0E711CF801A080B18026FF61
S113180003C0652D70E002C06FEF7FEFC5012C8728
S113181055D22C012C852068222E830123FC19C06B
S1131820832D90E048165906A0F4B70180E290E0B9
S113183062D23A94F5CFF50127FC859127FE819178
S11318405F01B70190E057D231103A94F1E04F1A9A
S113185051084114510479F7DEC0843611F08936F9
S113186031F5F80127FF07C060817181828193817E
S11318700C5F1F4F08C060817181882777FD8095B8
S1131880982F0E5F1F4F2F76B22E97FF09C09095A9
S11318908095709561957F4F8F4F9F4F2068B22E32
S11318A02AE030E0A40159D2A82EA81843C08537F5
S11318B029F42F7EB22E2AE030E025C0F22FF97FE2
S11318C0BF2E8F36C1F018F4883579F0ADC080375B
S11318D019F0883721F0A8C02F2F2061B22EB4FE52
S11318E00DC08B2D8460B82E09C024FF0AC09F2F21
S11318F09660B92E06C028E030E005C020E130E053
S113190002C020E132E0F801B7FE07C060817181B6
S1131910828193810C5F1F4F06C06081718180E0DA
S113192090E00E5F1F4FA40118D2A82EA818FB2D1B
S1131930FF77BF2EB6FE0BC02B2D2E7FA51450F4BF
S1131940B4FE0AC0B2FC08C02B2D2E7E05C07A2C32
S11319502B2D03C07A2C01C0752C24FF0DC0FE0171
S1131960EA0DF11D8081803311F4297E09C022FF24
S113197006C07394739404C0822F867809F073941C
S113198023FD12C020FF06C05A2C731418F4530C04
S11319905718732C731460F4B70180E290E02C871D
S11319A0AAD173942C85F6CF731410F4371801C0A0
S11319B0312C24FF11C0B70180E390E02C879BD128
S11319C02C8522FF16C021FF03C088E590E002C0E9
S11319D088E790E0B7010CC0822F867851F021FD92
S11319E002C080E201C08BE227FD8DE2B70190E0E6
S11319F082D1A51430F4B70180E390E07CD15A94ED
S1131A00F8CFAA94F401EA0DF11D8081B70190E0AA
S1131A1072D1A110F6CF332009F45DCEB70180E274
S1131A2090E069D13A94F7CFF7018681978102C09B
S1131A308FEF9FEF2C96E2E10AC20F931F93CF938F
S1131A40DF93869F8001879F100D969F100D1124B0
S1131A50C8010DD0EC01009721F0A80160E070E00E
S1131A6038D1CE01DF91CF911F910F910895CF937B
S1131A70DF938230910510F482E090E0E0913E0221
S1131A80F0913F0220E030E0A0E0B0E0309739F17F
S1131A904081518148175907B8F04817590771F424
S1131AA082819381109729F013969C938E931297B9
S1131AB02CC090933F0280933E0227C0211531052C
S1131AC031F04217530718F0A901DB0101C0EF01FF
S1131AD09A01BD01DF010280F381E02DD7CF2115EA
S1131AE03105F9F0281B390B2430310580F48A8143
S1131AF09B816115710521F0FB019383828304C0EE
S1131B0090933F0280933E02FE01329644C0FE0150
S1131B10E20FF31F81939193225031093983288373
S1131B203AC020913C0230913D02232B41F4209194
S1131B3002013091030130933D0220933C02209135
S1131B400001309101012115310541F42DB73EB753
S1131B504091040150910501241B350BE0913C0296
S1131B60F0913D02E217F307A0F42E1B3F0B281758
S1131B70390778F0AC014E5F5F4F2417350748F002
S1131B804E0F5F1F50933D0240933C02819391930B
S1131B9002C0E0E0F0E0CF01DF91CF910895CF9350
S1131BA0DF93009709F487C0FC01329713821282F5
S1131BB0C0913E02D0913F02209781F4208131816F
S1131BC0280F391F80913C0290913D0282179307A0
S1131BD079F5F0933D02E0933C026DC0DE0120E014
S1131BE030E0AE17BF0750F412964D915C911397F5
S1131BF09D014115510509F1DA01F3CFB383A283A5
S1131C0040815181840F951F8A179B0771F48D9130
S1131C109C911197840F951F02969183808312964D
S1131C208D919C911397938382832115310529F417
S1131C30F0933F02E0933E023EC0D9011396FC9319
S1131C40EE9312974D915D91A40FB51FEA17FB0710
S1131C5079F480819181840F951F0296D9011196A0
S1131C609C938E938281938113969C938E93129767
S1131C70E0E0F0E08A819B81009719F0FE01EC011D
S1131C80F9CFCE01029628813981820F931F2091CA
S1131C903C0230913D022817390769F4309729F442
S1131CA010923F0210923E0202C013821282D0931D
S1131CB03D02C0933C02DF91CF910895FC01059051
S1131CC0615070400110D8F7809590958E0F9F1F3A
S1131CD00895DC0101C06D9341505040E0F7089530
S1131CE0FC016150704001900110D8F780959095E7
S1131CF08E0F9F1F08950F931F93CF93DF93182F79
S1131D00092FEB018B8181FD03C08FEF9FEF20C072
S1131D1082FF10C04E815F812C813D8142175307A1
S1131D207CF4E881F9819F012F5F3F4F3983288339
S1131D30108306C0E885F985812F0995892B29F739
S1131D402E813F812F5F3F4F3F832E83812F902F22
S1131D50DF91CF911F910F910895FA01AA2728309E
S1131D6051F1203181F1E8946F936E7F6E5F7F4F64
S1131D708F4F9F4FAF4FB1E03ED0B4E03CD0670FE0
S1131D80781F891F9A1FA11D680F791F8A1F911D33
S1131D90A11D6A0F711D811D911DA11D20D009F483
S1131DA068943F912AE0269F11243019305D3193C5
S1131DB0DEF6CF010895462F4770405D4193B3E0AE
S1131DC00FD0C9F7F6CF462F4F70405D4A3318F055
S1131DD0495D31FD4052419302D0A9F7EACFB4E006
S1131DE0A6959795879577956795BA95C9F70097BE
S1131DF06105710508959B01AC010A2E069457955F
S1131E00479537952795BA95C9F7620F731F841FB5
S1131E10951FA01D08952F923F924F925F926F924B
S1131E207F928F929F92AF92BF92CF92DF92EF9266
S1131E30FF920F931F93CF93DF93CDB7DEB7CA1BE7
S1131E40DB0B0FB6F894DEBF0FBECDBF09942A8812
S1131E50398848885F846E847D848C849B84AA84BA
S1131E60B984C884DF80EE80FD800C811B81AA8147
S1131E70B981CE0FD11D0FB6F894DEBF0FBECDBF12
S10B1E80ED010895F894FFCF71
S1131E88000040022000010003004D435032353168
S1131E9835206973204E4F5420696E20636F727227
S1131EA8656374206D6F6465206166746572207261
S1131EB865736574212049747320636F6E6669675E
S1131EC82062697473206172652025780A00696E3E
S1131ED8206D6F6465206E6F726D616C200A0D0051
S1131EE843414E494E5446206F7574202564200A98
S1131EF80D0068732063617365202564200A200D32
S1131F080067616D65202564200A200D0073686FE1
S1131F1874200A0D00506C61792047616D65200AB0
S1131F2800536574204761696E200A004869676830
S1131F382053636F7265200A00706F733A2025641A
S1131F480A0D00486967682073636F7265203A0A4E
S1131F580025640052657365740045617379200A2D
S1131F68004D656469756D200A0048617264200A31
S1131F780047414D4520414354495645200A006CC9
S1131F8869766573206C6566743A200068696768C9
S1131F982073636F72653A200047414D45204F56C0
S10B1FA845522E2E2E200A00E2
S9030000FC
