S015000050696E6720506F6E675F365F322E73726563A7
S11300005FC3000078C3000076C3000074C300001F
S113001072C3000070C300006EC300006CC3000014
S11300206AC3000068C3000066C3000064C3000024
S113003062C3000060C300005EC300005CC3000034
S11300405AC3000058C3000056C3000054C3000044
S113005052C3000050C300004EC300004CC3000054
S11300604AC3000048C3000046C3000044C3000064
S113007000000000005C00000C000C007C287C28C0
S113008058DC68002410480028542840000C000064
S1130090007884008478000054385400107C1000E8
S11300A080400000101010000040000060100C00A0
S11300B038543800487C40004864580044542C00AC
S11300C01C107C005C5424003854240064140C007C
S11300D068542C0048543800004800008048000050
S11300E0102844002828280044281000045408003C
S11300F038445C00781478007C5428003844280084
S11301007C4438007C5444007C140400384474005B
S11301107C107C00447C440020403C007C106C003B
S11301207C4040007C187C0078103C003844380047
S11301307C1408003844B8007C1468004854240037
S1130140047C04007C407C003C603C007C307C00EF
S11301506C106C000C700C0064544C00007C440067
S11301600C106000447C00000804080080808000BB
S113017000040800304878007C48300030484800CB
S113018030487C00306850001078140090A8780043
S11301907C08700050744000808074007C106800FB
S11301A0447C4000781078007808700030483000B3
S11301B0F82810003048F80078100800505828003B
S11301C0083C4800384078003840380078207800EF
S11301D04830480098A07800486858001078840097
S11301E0007C00008478100008040804000000006B
S11301F00000005F00000007000700147F147F1454
S1130200242A7F2A12231308646236495522500097
S113021005030000001C2241000041221C00082AA2
S11302201C2A0808083E0808005030000008080886
S11302300808006060000020100804023E5149458F
S11302403E00427F400042615149462141454B31C5
S11302501814127F1027454545393C4A4949300155
S1130260710905033649494936064949291E0036AC
S113027036000000563600000008142241141414FD
S1130280141441221408000201510906324979412B
S11302903E7E1111117E7F494949363E414141223A
S11302A07F4141221C7F494949417F090901013E9F
S11302B0414151327F0808087F00417F41002040BE
S11302C0413F017F081422417F404040407F0204A7
S11302D0027F7F0408107F3E4141413E7F090909A6
S11302E0063E4151215E7F09192946464949493153
S11302F001017F01013F4040403F1F2040201F7FFC
S11303002018207F631408146303047804036151E4
S113031049454300007F4141020408102041417FC8
S11303200000040201020440404040400001020475
S11303300020545454787F4844443838444444207A
S1130340384444487F3854545418087E090102083C
S11303501454543C7F0804047800447D4000204039
S1130360443D00007F10284400417F40007C041875
S113037004787C0804047838444444387C14141405
S113038008081414187C7C080404084854545420A5
S1130390043F4440203C4040207C1C2040201C3C26
S11303A04030403C44281028440C5050503C446495
S11303B0544C44000836410000007F0000004136E0
S11303C00800020103020100000000000000000018
S11303D0065F5F060000000007070007070000141F
S11303E07F7F147F7F1400242E6B6B3A120000462B
S11303F06630180C666200307A4F5D377A48000424
S113040007030000000000001C3E634100000000E0
S113041041633E1C000000082A3E1C1C3E2A0808BA
S1130420083E3E0808000000A0E06000000000084C
S11304300808080808000000006060000000006070
S113044030180C060301003E7F594D7F3E000042E8
S1130450427F7F40400000627359496F660000226A
S11304606349497F360000181C16137F7F1000274C
S11304706745457D3900003C7E4B497930000003D7
S11304806371190F070000367F49497F3600000663
S11304904F49693F1E000000006C6C000000000022
S11304A0A0EC6C00000000081C366341000000143E
S11304B014141414140000004163361C08000002D4
S11304C00351590F0600003E7F415D5D1F1E007CF5
S11304D07E13137E7C0000417F7F49497F36001CD8
S11304E03E634141632200417F7F41637F1C0041A1
S11304F07F7F495D416300417F7F491D0103001CEB
S11305003E6341517372007F7F08087F7F000000C3
S1130510417F7F41000000307040417F3F01004136
S11305207F7F081C776300417F7F41406070007FBC
S11305307F060C067F7F007F7F060C187F7F001CE0
S11305403E6341633E1C00417F7F49090F06001E44
S11305503F21717F5E0000417F7F19396F4600267D
S1130560674D597B32000003417F7F410300007FC8
S11305707F40407F7F00001F3F60603F1F00007F7F
S11305807F3018307F7F0063771C081C7763000777
S11305904F78784F0700006773594D476371000027
S11305A07F7F41410000000103060C183060000009
S11305B041417F7F000000080C0603060C08008000
S11305C08080808080808000000307040000002079
S11305D07454543C784000413F7F44447C38003894
S11305E07C44446C280000307848493F7F40003800
S11305F07C54545C180000487E7F49030200009834
S1130600BCA4A4F87C0400417F7F08047C7800002B
S1130610447D7D4000000040C484FD7D0000004115
S11306207F7F10386C440000417F7F400000007CD5
S11306307C0C180C7C78007C7C04047C78000038EA
S11306407C44447C38000084FCF8A4243C18001842
S11306503C24A4F8FC8400447C78441C1800004822
S11306605C54547424000000043E7F442400003C85
S11306707C40403C7C40001C3C60603C1C00003CD6
S11306807C6030607C3C00446C3810386C44009CC6
S1130690BCA0A0FC7C00004C64745C4C64000008AA
S11306A0083E7741410000000000777700000041D8
S11306B041773E0808000002030103020301000021
S11306C011241FBECFEFD4E0DEBFCDBF12E0A0E007
S11306D0B1E0ECEAF6E102C005900D92A03CB1074E
S11306E0D9F723E0A0ECB2E001C01D92A43DB2070B
S11306F0E1F733D3D9C784CC84E090E09093C3026C
S11307008093C2020895CF93DF93CDB7DEB72A97C3
S11307100FB6F894DEBF0FBECDBFF5D041E060E662
S113072080E612D18FEF9FE80197F1F700C0000037
S113073041E061E08BE22FD18FEF9FE80197F1F761
S113074000C0000040E460EE8FE025D18FEF9FE809
S11307500197F1F700C000004AE0BE016F5F7F4FD0
S11307608EE0D4D08981807E803499F01F928F935B
S113077086E091E09F938F939ED38DEB92E09F93BD
S11307808F9399D30F900F900F900F900F900F901D
S113079007C08AE491E09F938F938DD30F900F90BD
S11307A02A960FB6F894DEBF0FBECDBFDF91CF916E
S11307B00895DF92EF92FF920F931F93CF93DF93ED
S11307C08C0141E0FC01628185E3BED041E0F80187
S11307D0608181E3B9D0F80182818823E9F0D12CCA
S11307E00F2EFEE5EF2EF1E0FF2EF02DE801CD0DEA
S11307F0D11D41E06B8186E3A7D08B811F928F933B
S1130800FF92EF9258D3D3940F900F900F900F90C4
S1130810F8018281D81650F38DEB92E09F938F9369
S11308204AD381E8A8D00F900F90DF91CF911F9108
S11308300F91FF90EF90DF900895DF92EF92FF9277
S11308400F931F93CF93DF93CDB7DEB72A970FB6DD
S1130850F894DEBF0FBECDBF8C01FC0182818823DA
S113086041F1D12C0F2EF2E7EF2EF1E0FF2EF02D07
S113087041E0BE016F5F7F4F86E648D02D2D30E00A
S1130880E1E0F0E0EC0FFD1FE20FF31F8081F801BF
S1130890E20FF31F83831F928F93FF92EF920BD388
S11308A0D3940F900F900F900F90F8018281D81677
S11308B0F8F28DEB92E09F938F93FDD240E061E0DC
S11308C08CE269D00F900F902A960FB6F894DEBF91
S11308D00FBECDBFDF91CF911F910F91FF90EF908D
S11308E0DF900895CF93DF931F92CDB7DEB7C498FE
S11308F080EC898361E0CE01019601D2C49A0F9005
S1130900DF91CF910895D0D1EDCF0895FF920F9349
S11309101F93CF93DF9300D0CDB7DEB78B01F42EB6
S1130920C49893E099838A8362E0CE010196E7D16B
S11309306F2DC801BFD1C49A0F900F90DF91CF9152
S11309401F910F91FF900895CF93DF9300D01F92D2
S1130950CDB7DEB7C49892E099838A836B8362E053
S1130960640FCE010196CBD1C49A0F900F900F90D3
S1130970DF91CF910895CF93DF931F92CDB7DEB768
S1130980C498898361E0CE010196B9D1C49A0F90CD
S1130990DF91CF910895CF93DF9300D000D0CDB7EE
S11309A0DEB7C49895E099838A836B834C8364E0B3
S11309B0CE010196A4D1C49A0F900F900F900F907E
S11309C0DF91CF91089591E29093001088231CF059
S11309D08093001003C08FE78093001066231CF0FF
S11309E06093001008958FE780930010089592E2B9
S11309F090930010883028F4E0E0F0E18083808355
S1130A000895E0E0F0E187E08083808308958830F2
S1130A1060F4EDDF6FE780E0D6DF80E890E0E0E0AF
S1130A20F2E1108201970097E1F70895CF93C0E0B7
S1130A308C2FEDDFCF5FC830D9F7CF910895E0E078
S1130A40F0E18EEA808381EA80838AED808382E10B
S1130A50808388EC808388EA80838FE3808385EDBC
S1130A60808380E8808381E8808380E5808389EDCA
S1130A70808381E2808380E2808382E080838BEDC7
S1130A80808380E380838DEA8083108284EA80837C
S1130A9086EA80838FEA8083C9DF1092C9031092AB
S1130AA0C8030895623041F494E08902A00111243E
S1130AB04051504024E025C0613089F4482F552727
S1130AC047FD509540525109CA01880F991F880F5C
S1130AD0991F480F591F44515E4F25E012C098E0FA
S1130AE08902A001112449535D4F28E00AC0FA018C
S1130AF0E80FF91FE491EC93019682179307BCF376
S1130B00089530E080E090E0A0E0B2E1F0CF623000
S1130B1041F494E08902A00111244051504024E0A2
S1130B2026C0613089F4482F552747FD509540521F
S1130B305109CA01880F991F880F991F480F591F1F
S1130B4044515E4F25E013C098E08902A0011124AE
S1130B5049535D4F28E00BC0FA01E80FF91FE491F7
S1130B60E095EC93019682179307B4F3089530E06F
S1130B7080E090E0A0E0B2E1EFCF8A3051F48091C0
S1130B80C1028F5F8093C10232DF60E880E01BDF27
S1130B9003C06091C00286DF80E008958A3051F47A
S1130BA08091C1028F5F8093C10221DF60E880E001
S1130BB00ADF03C06091C002AADF80E00895EF92CB
S1130BC0FF920F931F93CF93DF93FC0101900020BA
S1130BD0E9F731977F01E81AF90A1E141F045CF43F
S1130BE08C01C0E0D0E0F80181918F01C6DF21962D
S1130BF0EC16FD06C1F7DF91CF911F910F91FF9085
S1130C00EF900895EF92FF920F931F93CF93DF938A
S1130C10FC0101900020E9F731977F01E81AF90AF5
S1130C201E141F045CF48C01C0E0D0E0F801819133
S1130C308F01B4DF2196EC16FD06C1F7DF91CF9149
S1130C401F910F91FF90EF900895F0DE81E0CFDEC9
S1130C508091C8039091C903892B21F48BE891E01A
S1130C60D1DF03C08BE891E0AADF82E0C0DE80918F
S1130C70C8039091C903019721F484E991E0C2DF8C
S1130C8003C084E991E09BDF83E0B1DE8091C80377
S1130C909091C903029721F48DE991E0B3CF0895AF
S1130CA08DE991E08CCF089580EB87BBC49A81E5F0
S1130CB08DB90895CF93DF93CDB7DEB72A970FB6DA
S1130CC0F894DEBF0FBECDBF662381F0FE013196DE
S1130CD0A82FB92FCF01860F911D21912FB9779B92
S1130CE0FECF2FB12D93E817F907B9F72A960FB65F
S1130CF0F894DEBF0FBECDBFDF91CF910895262FAC
S1130D0030E0121613066CF4E82FF92F80E090E01F
S1130D1041914FB9779BFECF4FB10196821793074C
S1130D20BCF308955D9BFECF8CB908955F99FECF07
S1130D308CB1089590BD89B988E98AB98EE880BDDF
S1130D4066E976E082E996E06CC0089585B780682C
S1130D5085BF80B7806280BF0895CF93DF93CDB7FE
S1130D60DEB76A970FB6F894DEBF0FBECDBF8FE132
S1130D7090E0E0DFEBDF87B3887F87BB60DEBCDC1D
S1130D8064DFC1DC83E090E09A83898331E03B83B4
S1130D9023E62C839F878E87388B1F922F938BE8B3
S1130DA092E09F938F9387D0CE01019602DD80E07D
S1130DB090EF0197F1F7CE010E963FDD89891F92DE
S1130DC08F9382EA92E09F938F9375D087E68C830A
S1130DD01F928F938BE892E09F938F936CD0CE01F8
S1130DE00196E7DC80E090EF0197F1F7CE010E96D3
S1130DF024DD89891F928F9382EA92E09F938F93D7
S1130E005AD00FB6F894DEBF0FBECDBF80E090E09D
S1130E106A960FB6F894DEBF0FBECDBFDF91CF91B7
S1130E2008950F931F93CF93DF93EC018B010097E9
S1130E3031F46115710519F480E090E037C06EE07B
S1130E4070E081E090E00BD2FC010097A9F380E808
S1130E5083830115110571F01387028781E8838369
S1130E608091CA039091CB03892B21F4F093CB0397
S1130E70E093CA032097C9F0D187C0878381826039
S1130E8083838091CC039091CD03892B71F4F093EB
S1130E90CD03E093CC038091CE039091CF03892BB3
S1130EA021F4F093CF03E093CE03CF01DF91CF91F0
S1130EB01F910F910895A0E0B0E0E0E6F7E0CDC304
S1130EC0FE01359661917191AF018091CC039091AF
S1130ED0CD0302D0E2E0DDC3ACE0B0E0E1E7F7E04F
S1130EE0ACC37C016B018A01FC01178216828381E9
S1130EF081FFB0C1CE0101964C01F7019381F60147
S1130F0093FD859193FF81916F01882309F49EC11C
S1130F10853239F493FD859193FF81916F01853278
S1130F2021F4B70190E0F9D2E8CF512C312C20E024
S1130F302032A0F48B3269F030F4803259F08332DD
S1130F4069F420612CC08D3239F0803339F421608A
S1130F5026C02260246023C0286021C027FD27C04A
S1130F6030ED380F3A3078F426FF06C0FAE05F9E81
S1130F70300D1124532E13C08AE0389E300D1124F5
S1130F80332E20620CC08E3221F426FD5FC1206412
S1130F9006C08C3611F4206802C0883641F4F6018C
S1130FA093FD859193FF81916F018111C1CF982F9A
S1130FB09F7D9554933028F40C5F1F4FFFE3F98312
S1130FC00DC0833631F0833771F0833509F057C093
S1130FD021C0F801808189830E5F1F4F442443940C
S1130FE0512C540114C03801F2E06F0E711CF80149
S1130FF0A080B18026FF03C0652D70E002C06FEFB2
S11310007FEFC5012C877ED22C0183012C852F779D
S1131010222E16C03801F2E06F0E711CF801A08078
S1131020B18026FF03C0652D70E002C06FEF7FEF33
S1131030C5012C8755D22C012C852068222E8301D2
S113104023FC19C0832D90E048165906A0F4B7017B
S113105080E290E062D23A94F5CFF50127FC8591C5
S113106027FE81915F01B70190E057D231103A9485
S1131070F1E04F1A51084114510479F7DEC0843667
S113108011F0893631F5F80127FF07C060817181BD
S1131090828193810C5F1F4F08C060817181882712
S11310A077FD8095982F0E5F1F4F2F76B22E97FFF6
S11310B009C090958095709561957F4F8F4F9F4F94
S11310C02068B22E2AE030E0A40159D2A82EA81834
S11310D043C0853729F42F7EB22E2AE030E025C0A4
S11310E0F22FF97FBF2E8F36C1F018F4883579F0CE
S11310F0ADC0803719F0883721F0A8C02F2F2061A8
S1131100B22EB4FE0DC08B2D8460B82E09C024FF0E
S11311100AC09F2F9660B92E06C028E030E005C0B3
S113112020E130E002C020E132E0F801B7FE07C060
S113113060817181828193810C5F1F4F06C0608141
S1131140718180E090E00E5F1F4FA40118D2A82E99
S1131150A818FB2DFF77BF2EB6FE0BC02B2D2E7FBC
S1131160A51450F4B4FE0AC0B2FC08C02B2D2E7E88
S113117005C07A2C2B2D03C07A2C01C0752C24FFBA
S11311800DC0FE01EA0DF11D8081803311F4297E2A
S113119009C022FF06C07394739404C0822F86781A
S11311A009F0739423FD12C020FF06C05A2C731457
S11311B018F4530C5718732C731460F4B70180E2BD
S11311C090E02C87AAD173942C85F6CF731410F475
S11311D0371801C0312C24FF11C0B70180E390E01F
S11311E02C879BD12C8522FF16C021FF03C088E5E4
S11311F090E002C088E790E0B7010CC0822F8678A7
S113120051F021FD02C080E201C08BE227FD8DE296
S1131210B70190E082D1A51430F4B70180E390E0E7
S11312207CD15A94F8CFAA94F401EA0DF11D80817F
S1131230B70190E072D1A110F6CF332009F45DCE4E
S1131240B70180E290E069D13A94F7CFF701868143
S1131250978102C08FEF9FEF2C96E2E10AC20F93B1
S11312601F93CF93DF93869F8001879F100D969FD6
S1131270100D1124C8010DD0EC01009721F0A80134
S113128060E070E038D1CE01DF91CF911F910F91D2
S11312900895CF93DF938230910510F482E090E0BB
S11312A0E091D203F091D30320E030E0A0E0B0E07D
S11312B0309739F14081518148175907B8F04817E0
S11312C0590771F482819381109729F013969C93A6
S11312D08E9312972CC09093D3038093D20327C08C
S11312E02115310531F04217530718F0A901DB012C
S11312F001C0EF019A01BD01DF010280F381E02DFD
S1131300D7CF21153105F9F0281B390B24303105CD
S113131080F48A819B816115710521F0FB0193831F
S1131320828304C09093D3038093D203FE01329648
S113133044C0FE01E20FF31F8193919322503109BF
S1131340398328833AC02091D0033091D103232BD1
S113135041F420910201309103013093D103209391
S1131360D00320910001309101012115310541F490
S11313702DB73EB74091040150910501241B350B54
S1131380E091D003F091D103E217F307A0F42E1BF0
S11313903F0B2817390778F0AC014E5F5F4F2417D5
S11313A0350748F04E0F5F1F5093D1034093D0038D
S11313B08193919302C0E0E0F0E0CF01DF91CF91FF
S11313C00895CF93DF93009709F487C0FC01329707
S11313D013821282C091D203D091D303209781F457
S11313E020813181280F391F8091D0039091D1033E
S11313F08217930779F5F093D103E093D0036DC07E
S1131400DE0120E030E0AE17BF0750F412964D9194
S11314105C9113979D014115510509F1DA01F3CF50
S1131420B383A28340815181840F951F8A179B0740
S113143071F48D919C911197840F951F029691835D
S1131440808312968D919C911397938382832115A7
S1131450310529F4F093D303E093D2033EC0D901BC
S11314601396FC93EE9312974D915D91A40FB51FC3
S1131470EA17FB0779F480819181840F951F029606
S1131480D90111969C938E938281938113969C9398
S11314908E931297E0E0F0E08A819B81009719F027
S11314A0FE01EC01F9CFCE01029628813981820F29
S11314B0931F2091D0033091D1032817390769F481
S11314C0309729F41092D3031092D20302C01382EE
S11314D01282D093D103C093D003DF91CF910895AA
S11314E0FC010590615070400110D8F780959095EB
S11314F08E0F9F1F0895DC0101C06D934150504031
S1131500E0F70895FC016150704001900110D8F794
S1131510809590958E0F9F1F08950F931F93CF93DF
S1131520DF93182F092FEB018B8181FD03C08FEF0F
S11315309FEF20C082FF10C04E815F812C813D81CE
S1131540421753077CF4E881F9819F012F5F3F4FD5
S113155039832883108306C0E885F985812F09958E
S1131560892B29F72E813F812F5F3F4F3F832E83A5
S1131570812F902FDF91CF911F910F910895FA0140
S1131580AA27283051F1203181F1E8946F936E7FBE
S11315906E5F7F4F8F4F9F4FAF4FB1E03ED0B4E0AF
S11315A03CD0670F781F891F9A1FA11D680F791FF0
S11315B08A1F911DA11D6A0F711D811D911DA11D01
S11315C020D009F468943F912AE0269F1124301911
S11315D0305D3193DEF6CF010895462F4770405DAC
S11315E04193B3E00FD0C9F7F6CF462F4F70405D5B
S11315F04A3318F0495D31FD4052419302D0A9F7B6
S1131600EACFB4E0A6959795879577956795BA95AF
S1131610C9F700976105710508959B01AC010A2E75
S113162006945795479537952795BA95C9F7620F4C
S1131630731F841F951FA01D08952F923F924F92F0
S11316405F926F927F928F929F92AF92BF92CF924E
S1131650DF92EF92FF920F931F93CF93DF93CDB757
S1131660DEB7CA1BDB0B0FB6F894DEBF0FBECDBFCF
S113167009942A88398848885F846E847D848C84A0
S11316809B84AA84B984C884DF80EE80FD800C81A9
S11316901B81AA81B981CE0FD11D0FB6F894DEBF8C
S10F16A00FBECDBFED010895F894FFCFFC
S11316AC0000D40320004D4350323531352069738A
S11316BC204E4F5420696E20636F727265637420E0
S11316CC6D6F6465206166746572207265736574F0
S11316DC212049747320636F6E6669672062697494
S11316EC73206172652025780A00696E206D6F6421
S11316FC65206C6F6F706261636B200A0D0063610F
S113170C6E206D6573736167652073656E64202547
S113171C640063616E206D65737373616765207219
S113172C6563656976656420256400537072696E1F
S113173C67200A0053756D6D6572200A005265743A
S113174C75726E200A005374617274696E6720534B
S113175C52414D20746573742E2E2E005772697489
S113176C65207068617365206572726F723A2065CA
S113177C78745F72616D5B2534645D203D20253087
S113178C3258202873686F756C642062652025308C
S113179C3258290A0052657472696576616C20703E
S11317AC68617365206572726F723A206578745F34
S11317BC72616D5B2534645D203D202530325820E8
S11317CC2873686F756C6420626520253032582943
S11317DC0A005352414D207465737420636F6D700D
S11317EC6C657465642077697468200A25346420F8
S11317FC6572726F727320696E20777269746520DA
S113180C706861736520616E64200A2534642065F8
S113181C72726F727320696E207265747269657668
S113182C616C2070686173650A0A00496E207468E3
S113183C65206D61696E2073656E64202563200AD2
S113184C0D00496E20746865206D61696E207265A7
S113185C636569766564202563200A0D200A0D00F2
S9030000FC
